{
  "contracts/Generator.sol": {
    "Generator": {
      "abi": [
        {
          "inputs": [],
          "stateMutability": "nonpayable",
          "type": "constructor"
        },
        {
          "inputs": [
            {
              "internalType": "uint256",
              "name": "_secret",
              "type": "uint256"
            }
          ],
          "name": "checkPass",
          "outputs": [
            {
              "internalType": "bool",
              "name": "",
              "type": "bool"
            }
          ],
          "stateMutability": "view",
          "type": "function"
        },
        {
          "inputs": [
            {
              "internalType": "uint256",
              "name": "_p",
              "type": "uint256"
            },
            {
              "internalType": "uint256",
              "name": "_q",
              "type": "uint256"
            },
            {
              "internalType": "uint256",
              "name": "_secret",
              "type": "uint256"
            },
            {
              "internalType": "uint256",
              "name": "_numInstances",
              "type": "uint256"
            }
          ],
          "name": "createAInstance",
          "outputs": [],
          "stateMutability": "nonpayable",
          "type": "function"
        },
        {
          "inputs": [
            {
              "internalType": "uint256",
              "name": "_p",
              "type": "uint256"
            },
            {
              "internalType": "uint256",
              "name": "_q",
              "type": "uint256"
            },
            {
              "internalType": "uint256",
              "name": "_secret",
              "type": "uint256"
            },
            {
              "internalType": "uint256",
              "name": "_numInstances",
              "type": "uint256"
            }
          ],
          "name": "createBInstance",
          "outputs": [],
          "stateMutability": "nonpayable",
          "type": "function"
        },
        {
          "inputs": [
            {
              "internalType": "uint256",
              "name": "_orcid",
              "type": "uint256"
            }
          ],
          "name": "getAllInstances",
          "outputs": [
            {
              "components": [
                {
                  "internalType": "uint256",
                  "name": "id",
                  "type": "uint256"
                },
                {
                  "internalType": "string",
                  "name": "chain",
                  "type": "string"
                },
                {
                  "internalType": "uint256",
                  "name": "size",
                  "type": "uint256"
                },
                {
                  "internalType": "uint256",
                  "name": "dateCreated",
                  "type": "uint256"
                },
                {
                  "internalType": "string",
                  "name": "solution",
                  "type": "string"
                },
                {
                  "internalType": "bool",
                  "name": "solved",
                  "type": "bool"
                },
                {
                  "internalType": "uint256",
                  "name": "dateSolution",
                  "type": "uint256"
                }
              ],
              "internalType": "struct Generator.Instance[]",
              "name": "",
              "type": "tuple[]"
            }
          ],
          "stateMutability": "view",
          "type": "function"
        },
        {
          "inputs": [
            {
              "internalType": "uint256",
              "name": "_secret",
              "type": "uint256"
            }
          ],
          "name": "getDateNumber",
          "outputs": [
            {
              "internalType": "uint256[]",
              "name": "",
              "type": "uint256[]"
            }
          ],
          "stateMutability": "view",
          "type": "function"
        },
        {
          "inputs": [
            {
              "internalType": "uint256",
              "name": "_id",
              "type": "uint256"
            }
          ],
          "name": "getHash",
          "outputs": [
            {
              "internalType": "string",
              "name": "",
              "type": "string"
            },
            {
              "internalType": "string",
              "name": "",
              "type": "string"
            },
            {
              "internalType": "string",
              "name": "",
              "type": "string"
            }
          ],
          "stateMutability": "view",
          "type": "function"
        },
        {
          "inputs": [
            {
              "internalType": "uint256",
              "name": "_id",
              "type": "uint256"
            }
          ],
          "name": "getInstance",
          "outputs": [
            {
              "internalType": "uint256",
              "name": "",
              "type": "uint256"
            },
            {
              "internalType": "string",
              "name": "",
              "type": "string"
            },
            {
              "internalType": "uint256",
              "name": "",
              "type": "uint256"
            },
            {
              "internalType": "uint256",
              "name": "",
              "type": "uint256"
            },
            {
              "internalType": "string",
              "name": "",
              "type": "string"
            },
            {
              "internalType": "bool",
              "name": "",
              "type": "bool"
            },
            {
              "internalType": "uint256",
              "name": "",
              "type": "uint256"
            }
          ],
          "stateMutability": "view",
          "type": "function"
        },
        {
          "inputs": [
            {
              "internalType": "uint256",
              "name": "_secret",
              "type": "uint256"
            }
          ],
          "name": "getRandomNumber",
          "outputs": [
            {
              "internalType": "bytes32",
              "name": "requestId",
              "type": "bytes32"
            }
          ],
          "stateMutability": "nonpayable",
          "type": "function"
        },
        {
          "inputs": [],
          "name": "getRemainingLINK",
          "outputs": [
            {
              "internalType": "uint256",
              "name": "",
              "type": "uint256"
            }
          ],
          "stateMutability": "view",
          "type": "function"
        },
        {
          "inputs": [],
          "name": "randomResult",
          "outputs": [
            {
              "internalType": "uint256",
              "name": "",
              "type": "uint256"
            }
          ],
          "stateMutability": "view",
          "type": "function"
        },
        {
          "inputs": [
            {
              "internalType": "bytes32",
              "name": "requestId",
              "type": "bytes32"
            },
            {
              "internalType": "uint256",
              "name": "randomness",
              "type": "uint256"
            }
          ],
          "name": "rawFulfillRandomness",
          "outputs": [],
          "stateMutability": "nonpayable",
          "type": "function"
        },
        {
          "inputs": [
            {
              "internalType": "uint256",
              "name": "_secret",
              "type": "uint256"
            },
            {
              "internalType": "string",
              "name": "_name",
              "type": "string"
            },
            {
              "internalType": "string",
              "name": "_email",
              "type": "string"
            },
            {
              "internalType": "uint256",
              "name": "_orcid",
              "type": "uint256"
            }
          ],
          "name": "setResearcher",
          "outputs": [],
          "stateMutability": "nonpayable",
          "type": "function"
        },
        {
          "inputs": [
            {
              "internalType": "uint256",
              "name": "_secret",
              "type": "uint256"
            },
            {
              "internalType": "uint256",
              "name": "_id",
              "type": "uint256"
            },
            {
              "internalType": "string",
              "name": "_solution",
              "type": "string"
            },
            {
              "internalType": "string",
              "name": "_algorithm_hash",
              "type": "string"
            },
            {
              "internalType": "string",
              "name": "_hash_method",
              "type": "string"
            }
          ],
          "name": "solveInstance",
          "outputs": [
            {
              "internalType": "bool",
              "name": "",
              "type": "bool"
            }
          ],
          "stateMutability": "nonpayable",
          "type": "function"
        }
      ],
      "evm": {
        "bytecode": {
          "linkReferences": {},
          "object": "60c060405234801561001057600080fd5b5073dd3782915140c8f3b190b5d67eac6dc5760c46e973a36085f69e2889c224210f603d836748e7dc00888173ffffffffffffffffffffffffffffffffffffffff1660a08173ffffffffffffffffffffffffffffffffffffffff1660601b815250508073ffffffffffffffffffffffffffffffffffffffff1660808173ffffffffffffffffffffffffffffffffffffffff1660601b8152505050507f6c3699283bda56ad74f6b855546325b68d482e983852a7a82979cc4807b641f460001b60058190555067016345785d8a0000600681905550600060088190555060006009819055506003600a81905550610834600b8190555060805160601c60a05160601c612bf961013e6000396000818161101801526119e9015260008181610f6a01526119ad0152612bf96000f3fe608060405234801561001057600080fd5b50600436106100cf5760003560e01c80638ed0fbe71161008c5780639878ca2c116100665780639878ca2c14610226578063b37217a414610256578063db7bbdb314610286578063ebd348de146102a2576100cf565b80638ed0fbe7146101d05780638f006527146101ec57806394985ddd1461020a576100cf565b8063070a6e95146100d45780630eea10b21461010457806342619f66146101345780634dde53ab146101525780636b2fafa9146101825780637e8b7e3e146101b4575b600080fd5b6100ee60048036038101906100e99190611dc7565b6102d8565b6040516100fb9190612499565b60405180910390f35b61011e60048036038101906101199190611dc7565b610346565b60405161012b91906124bb565b60405180910390f35b61013c610373565b60405161014991906125eb565b60405180910390f35b61016c60048036038101906101679190611dc7565b610379565b6040516101799190612477565b60405180910390f35b61019c60048036038101906101979190611dc7565b610690565b6040516101ab9392919061255f565b60405180910390f35b6101ce60048036038101906101c99190611f6b565b610888565b005b6101ea60048036038101906101e59190611f6b565b610c55565b005b6101f4610f66565b60405161020191906125eb565b60405180910390f35b610224600480360381019061021f9190611d8b565b611016565b005b610240600480360381019061023b9190611eac565b6110b2565b60405161024d91906124bb565b60405180910390f35b610270600480360381019061026b9190611dc7565b611277565b60405161027d91906124d6565b60405180910390f35b6102a0600480360381019061029b9190611e19565b6112cb565b005b6102bc60048036038101906102b79190611dc7565b61143b565b6040516102cf9796959493929190612606565b60405180910390f35b60606001600083815260200190815260200160002060040180548060200260200160405190810160405280929190818152602001828054801561033a57602002820191906000526020600020905b815481526020019060010190808311610326575b50505050509050919050565b60006001600083815260200190815260200160002060020160009054906101000a900460ff169050919050565b60075481565b60606000600260008481526020019081526020016000206000015490506000600160008381526020019081526020016000206003018054905067ffffffffffffffff8111156103f1577f4e487b7100000000000000000000000000000000000000000000000000000000600052604160045260246000fd5b60405190808252806020026020018201604052801561042a57816020015b610417611b77565b81526020019060019003908161040f5790505b50905060005b600160008481526020019081526020016000206003018054905081101561068557600360006001600086815260200190815260200160002060030183815481106104a3577f4e487b7100000000000000000000000000000000000000000000000000000000600052603260045260246000fd5b906000526020600020015481526020019081526020016000206040518060e0016040529081600082015481526020016001820180546104e1906129c0565b80601f016020809104026020016040519081016040528092919081815260200182805461050d906129c0565b801561055a5780601f1061052f5761010080835404028352916020019161055a565b820191906000526020600020905b81548152906001019060200180831161053d57829003601f168201915b505050505081526020016002820154815260200160038201548152602001600482018054610587906129c0565b80601f01602080910402602001604051908101604052809291908181526020018280546105b3906129c0565b80156106005780601f106105d557610100808354040283529160200191610600565b820191906000526020600020905b8154815290600101906020018083116105e357829003601f168201915b505050505081526020016005820160009054906101000a900460ff16151515158152602001600682015481525050828281518110610667577f4e487b7100000000000000000000000000000000000000000000000000000000600052603260045260246000fd5b6020026020010181905250808061067d906129f2565b915050610430565b508092505050919050565b60608060606004600085815260200190815260200160002060000160046000868152602001908152602001600020600101600460008781526020019081526020016000206002018280546106e3906129c0565b80601f016020809104026020016040519081016040528092919081815260200182805461070f906129c0565b801561075c5780601f106107315761010080835404028352916020019161075c565b820191906000526020600020905b81548152906001019060200180831161073f57829003601f168201915b5050505050925081805461076f906129c0565b80601f016020809104026020016040519081016040528092919081815260200182805461079b906129c0565b80156107e85780601f106107bd576101008083540402835291602001916107e8565b820191906000526020600020905b8154815290600101906020018083116107cb57829003601f168201915b505050505091508080546107fb906129c0565b80601f0160208091040260200160405190810160405280929190818152602001828054610827906129c0565b80156108745780601f1061084957610100808354040283529160200191610874565b820191906000526020600020905b81548152906001019060200180831161085757829003601f168201915b505050505090509250925092509193909250565b6000610892611624565b90506000806064905060005b84811015610c4b5760006040518060200160405280600081525090506000600190506000805b6001600a546108d391906128eb565b811015610952578b888881518110610914577f4e487b7100000000000000000000000000000000000000000000000000000000600052603260045260246000fd5b6020026020010151101561093157828061092d906129f2565b9350505b868061093c906129f2565b975050808061094a906129f2565b9150506108c4565b5060005b600a5481101561098f5761097a846109756109708661173c565b61179d565b611972565b93508080610987906129f2565b915050610956565b50808061099b906129f2565b9150505b898787815181106109d9577f4e487b7100000000000000000000000000000000000000000000000000000000600052603260045260246000fd5b60200260200101511080156109ed57508481105b15610ad65785806109fd906129f2565b96505060005b600a54811015610a85578b888881518110610a47577f4e487b7100000000000000000000000000000000000000000000000000000000600052603260045260246000fd5b60200260200101511015610a64578280610a60906129f2565b9350505b8680610a6f906129f2565b9750508080610a7d906129f2565b915050610a03565b5060005b600a54811015610ac257610aad84610aa8610aa38661173c565b61179d565b611972565b93508080610aba906129f2565b915050610a89565b508080610ace906129f2565b91505061099f565b6040518060e0016040528060095481526020018481526020018281526020014281526020016040518060400160405280600a81526020017f556e7265736f6c7665640000000000000000000000000000000000000000000081525081526020016000151581526020016000815250600360006009548152602001908152602001600020600082015181600001556020820151816001019080519060200190610b7f929190611bb6565b5060408201518160020155606082015181600301556080820151816004019080519060200190610bb0929190611bb6565b5060a08201518160050160006101000a81548160ff02191690831515021790555060c08201518160060155905050600160008a8152602001908152602001600020600301600954908060018154018082558091505060019003906000526020600020016000909190919091505560096000815480929190610c30906129f2565b91905055505050508080610c43906129f2565b91505061089e565b5050505050505050565b6000610c5f611624565b90506000806064905060005b84811015610f5c57600060405180602001604052806000815250905060006001905060005b89878781518110610cca577f4e487b7100000000000000000000000000000000000000000000000000000000600052603260045260246000fd5b6020026020010151108015610cde57508481105b15610d04578080610cee906129f2565b9150508580610cfc906129f2565b965050610c90565b60005b6001826003610d169190612891565b610d2091906128eb565b811015610d9f578b888881518110610d61577f4e487b7100000000000000000000000000000000000000000000000000000000600052603260045260246000fd5b60200260200101511015610d7e578280610d7a906129f2565b9350505b8680610d89906129f2565b9750508080610d97906129f2565b915050610d07565b5060005b816003610db09190612891565b811015610de657610dd184610dcc610dc78661173c565b61179d565b611972565b93508080610dde906129f2565b915050610da3565b506040518060e0016040528060095481526020018481526020018281526020014281526020016040518060400160405280600a81526020017f556e7265736f6c7665640000000000000000000000000000000000000000000081525081526020016000151581526020016000815250600360006009548152602001908152602001600020600082015181600001556020820151816001019080519060200190610e90929190611bb6565b5060408201518160020155606082015181600301556080820151816004019080519060200190610ec1929190611bb6565b5060a08201518160050160006101000a81548160ff02191690831515021790555060c08201518160060155905050600160008a8152602001908152602001600020600301600954908060018154018082558091505060019003906000526020600020016000909190919091505560096000815480929190610f41906129f2565b91905055505050508080610f54906129f2565b915050610c6b565b5050505050505050565b60007f000000000000000000000000000000000000000000000000000000000000000073ffffffffffffffffffffffffffffffffffffffff166370a08231306040518263ffffffff1660e01b8152600401610fc1919061241e565b60206040518083038186803b158015610fd957600080fd5b505afa158015610fed573d6000803e3d6000fd5b505050506040513d601f19601f820116820180604052508101906110119190611df0565b905090565b7f000000000000000000000000000000000000000000000000000000000000000073ffffffffffffffffffffffffffffffffffffffff163373ffffffffffffffffffffffffffffffffffffffff16146110a4576040517f08c379a000000000000000000000000000000000000000000000000000000000815260040161109b906125ab565b60405180910390fd5b6110ae828261199e565b5050565b6000806000905060005b600015158215151480156110e85750600160008981526020019081526020016000206003018054905081105b156111655786600160008a8152602001908152602001600020600301828154811061113c577f4e487b7100000000000000000000000000000000000000000000000000000000600052603260045260246000fd5b9060005260206000200154141561115257600191505b808061115d906129f2565b9150506110bc565b600115158215151415611269578560036000898152602001908152602001600020600401908051906020019061119c929190611bb6565b5060016003600089815260200190815260200160002060050160006101000a81548160ff02191690831515021790555042600360008981526020019081526020016000206006018190555085600460008981526020019081526020016000206000019080519060200190611211929190611bb6565b508460046000898152602001908152602001600020600101908051906020019061123c929190611bb6565b5083600460008981526020019081526020016000206002019080519060200190611267929190611bb6565b505b819250505095945050505050565b6000600160008381526020019081526020016000206004014290806001815401808255809150506001900390600052602060002001600090919091909150556112c46005546006546119a9565b9050919050565b6001600085815260200190815260200160002060020160009054906101000a900460ff161561132f576040517f08c379a0000000000000000000000000000000000000000000000000000000008152600401611326906125cb565b60405180910390fd5b60606040518060a001604052808581526020018481526020016001151581526020018281526020018281525060016000878152602001908152602001600020600082015181600001908051906020019061138a929190611bb6565b5060208201518160010190805190602001906113a7929190611bb6565b5060408201518160020160006101000a81548160ff02191690831515021790555060608201518160030190805190602001906113e4929190611c3c565b506080820151816004019080519060200190611401929190611c3c565b5090505060405180602001604052808681525060026000848152602001908152602001600020600082015181600001559050505050505050565b6000606060008060606000806003600089815260200190815260200160002060000154600360008a8152602001908152602001600020600101600360008b815260200190815260200160002060020154600360008c815260200190815260200160002060030154600360008d8152602001908152602001600020600401600360008e815260200190815260200160002060050160009054906101000a900460ff16600360008f8152602001908152602001600020600601548580546114ff906129c0565b80601f016020809104026020016040519081016040528092919081815260200182805461152b906129c0565b80156115785780601f1061154d57610100808354040283529160200191611578565b820191906000526020600020905b81548152906001019060200180831161155b57829003601f168201915b5050505050955082805461158b906129c0565b80601f01602080910402602001604051908101604052809291908181526020018280546115b7906129c0565b80156116045780601f106115d957610100808354040283529160200191611604565b820191906000526020600020905b8154815290600101906020018083116115e757829003601f168201915b505050505092509650965096509650965096509650919395979092949650565b6060600b5467ffffffffffffffff811115611668577f4e487b7100000000000000000000000000000000000000000000000000000000600052604160045260246000fd5b6040519080825280602002602001820160405280156116965781602001602082028036833780820191505090505b50905060005b600b54811015611738576064600754826040516020016116bd929190612683565b6040516020818303038152906040528051906020012060001c6116e09190612a73565b828281518110611719577f4e487b7100000000000000000000000000000000000000000000000000000000600052603260045260246000fd5b6020026020010181815250508080611730906129f2565b91505061169c565b5090565b600080824233600854604051602001611757939291906123e1565b6040516020818303038152906040528051906020012060001c61177a9190612a73565b90506008600081548092919061178f906129f2565b919050555080915050919050565b606060008214156117e5576040518060400160405280600181526020017f3000000000000000000000000000000000000000000000000000000000000000815250905061196d565b600082905060005b60008214611817578080611800906129f2565b915050600a826118109190612860565b91506117ed565b60008167ffffffffffffffff811115611859577f4e487b7100000000000000000000000000000000000000000000000000000000600052604160045260246000fd5b6040519080825280601f01601f19166020018201604052801561188b5781602001600182028036833780820191505090505b50905060008290505b60008614611965576001816118a991906128eb565b90506000600a80886118bb9190612860565b6118c59190612891565b876118d091906128eb565b60306118dc9190612829565b905060008160f81b905080848481518110611920577f4e487b7100000000000000000000000000000000000000000000000000000000600052603260045260246000fd5b60200101907effffffffffffffffffffffffffffffffffffffffffffffffffffffffffffff1916908160001a905350600a8861195c9190612860565b97505050611894565b819450505050505b919050565b606082826040516020016119879291906123bd565b604051602081830303815290604052905092915050565b806007819055505050565b60007f000000000000000000000000000000000000000000000000000000000000000073ffffffffffffffffffffffffffffffffffffffff16634000aea07f000000000000000000000000000000000000000000000000000000000000000084866000604051602001611a1d9291906124f1565b6040516020818303038152906040526040518463ffffffff1660e01b8152600401611a4a93929190612439565b602060405180830381600087803b158015611a6457600080fd5b505af1158015611a78573d6000803e3d6000fd5b505050506040513d601f19601f82011682018060405250810190611a9c9190611d62565b506000611abe8460003060008089815260200190815260200160002054611b08565b9050600160008086815260200190815260200160002054611adf91906127d3565b60008086815260200190815260200160002081905550611aff8482611b44565b91505092915050565b600084848484604051602001611b21949392919061251a565b6040516020818303038152906040528051906020012060001c9050949350505050565b60008282604051602001611b59929190612391565b60405160208183030381529060405280519060200120905092915050565b6040518060e001604052806000815260200160608152602001600081526020016000815260200160608152602001600015158152602001600081525090565b828054611bc2906129c0565b90600052602060002090601f016020900481019282611be45760008555611c2b565b82601f10611bfd57805160ff1916838001178555611c2b565b82800160010185558215611c2b579182015b82811115611c2a578251825591602001919060010190611c0f565b5b509050611c389190611c89565b5090565b828054828255906000526020600020908101928215611c78579160200282015b82811115611c77578251825591602001919060010190611c5c565b5b509050611c859190611c89565b5090565b5b80821115611ca2576000816000905550600101611c8a565b5090565b6000611cb9611cb4846126dd565b6126ac565b905082815260208101848484011115611cd157600080fd5b611cdc84828561297e565b509392505050565b600081519050611cf381612b7e565b92915050565b600081359050611d0881612b95565b92915050565b600082601f830112611d1f57600080fd5b8135611d2f848260208601611ca6565b91505092915050565b600081359050611d4781612bac565b92915050565b600081519050611d5c81612bac565b92915050565b600060208284031215611d7457600080fd5b6000611d8284828501611ce4565b91505092915050565b60008060408385031215611d9e57600080fd5b6000611dac85828601611cf9565b9250506020611dbd85828601611d38565b9150509250929050565b600060208284031215611dd957600080fd5b6000611de784828501611d38565b91505092915050565b600060208284031215611e0257600080fd5b6000611e1084828501611d4d565b91505092915050565b60008060008060808587031215611e2f57600080fd5b6000611e3d87828801611d38565b945050602085013567ffffffffffffffff811115611e5a57600080fd5b611e6687828801611d0e565b935050604085013567ffffffffffffffff811115611e8357600080fd5b611e8f87828801611d0e565b9250506060611ea087828801611d38565b91505092959194509250565b600080600080600060a08688031215611ec457600080fd5b6000611ed288828901611d38565b9550506020611ee388828901611d38565b945050604086013567ffffffffffffffff811115611f0057600080fd5b611f0c88828901611d0e565b935050606086013567ffffffffffffffff811115611f2957600080fd5b611f3588828901611d0e565b925050608086013567ffffffffffffffff811115611f5257600080fd5b611f5e88828901611d0e565b9150509295509295909350565b60008060008060808587031215611f8157600080fd5b6000611f8f87828801611d38565b9450506020611fa087828801611d38565b9350506040611fb187828801611d38565b9250506060611fc287828801611d38565b91505092959194509250565b6000611fda83836122b9565b905092915050565b6000611fee838361235c565b60208301905092915050565b6120038161291f565b82525050565b61201a6120158261291f565b612a3b565b82525050565b600061202b8261272d565b6120358185612773565b9350836020820285016120478561270d565b8060005b8581101561208357848403895281516120648582611fce565b945061206f83612759565b925060208a0199505060018101905061204b565b50829750879550505050505092915050565b60006120a082612738565b6120aa8185612784565b93506120b58361271d565b8060005b838110156120e65781516120cd8882611fe2565b97506120d883612766565b9250506001810190506120b9565b5085935050505092915050565b6120fc81612931565b82525050565b61210b81612931565b82525050565b61211a8161293d565b82525050565b61213161212c8261293d565b612a4d565b82525050565b600061214282612743565b61214c8185612795565b935061215c81856020860161298d565b61216581612b60565b840191505092915050565b600061217b8261274e565b61218581856127a6565b935061219581856020860161298d565b61219e81612b60565b840191505092915050565b60006121b48261274e565b6121be81856127b7565b93506121ce81856020860161298d565b6121d781612b60565b840191505092915050565b60006121ed8261274e565b6121f781856127c8565b935061220781856020860161298d565b80840191505092915050565b6000612220601f836127b7565b91507f4f6e6c7920565246436f6f7264696e61746f722063616e2066756c66696c6c006000830152602082019050919050565b60006122606021836127b7565b91507f54686973204f5243494420697320616c7265616479207265676973746572656460008301527f2e000000000000000000000000000000000000000000000000000000000000006020830152604082019050919050565b600060e0830160008301516122d1600086018261235c565b50602083015184820360208601526122e98282612170565b91505060408301516122fe604086018261235c565b506060830151612311606086018261235c565b50608083015184820360808601526123298282612170565b91505060a083015161233e60a08601826120f3565b5060c083015161235160c086018261235c565b508091505092915050565b61236581612967565b82525050565b61237481612967565b82525050565b61238b61238682612967565b612a69565b82525050565b600061239d8285612120565b6020820191506123ad828461237a565b6020820191508190509392505050565b60006123c982856121e2565b91506123d582846121e2565b91508190509392505050565b60006123ed828661237a565b6020820191506123fd8285612009565b60148201915061240d828461237a565b602082019150819050949350505050565b60006020820190506124336000830184611ffa565b92915050565b600060608201905061244e6000830186611ffa565b61245b602083018561236b565b818103604083015261246d8184612137565b9050949350505050565b600060208201905081810360008301526124918184612020565b905092915050565b600060208201905081810360008301526124b38184612095565b905092915050565b60006020820190506124d06000830184612102565b92915050565b60006020820190506124eb6000830184612111565b92915050565b60006040820190506125066000830185612111565b612513602083018461236b565b9392505050565b600060808201905061252f6000830187612111565b61253c602083018661236b565b6125496040830185611ffa565b612556606083018461236b565b95945050505050565b6000606082019050818103600083015261257981866121a9565b9050818103602083015261258d81856121a9565b905081810360408301526125a181846121a9565b9050949350505050565b600060208201905081810360008301526125c481612213565b9050919050565b600060208201905081810360008301526125e481612253565b9050919050565b6000602082019050612600600083018461236b565b92915050565b600060e08201905061261b600083018a61236b565b818103602083015261262d81896121a9565b905061263c604083018861236b565b612649606083018761236b565b818103608083015261265b81866121a9565b905061266a60a0830185612102565b61267760c083018461236b565b98975050505050505050565b6000604082019050612698600083018561236b565b6126a5602083018461236b565b9392505050565b6000604051905081810181811067ffffffffffffffff821117156126d3576126d2612b31565b5b8060405250919050565b600067ffffffffffffffff8211156126f8576126f7612b31565b5b601f19601f8301169050602081019050919050565b6000819050602082019050919050565b6000819050602082019050919050565b600081519050919050565b600081519050919050565b600081519050919050565b600081519050919050565b6000602082019050919050565b6000602082019050919050565b600082825260208201905092915050565b600082825260208201905092915050565b600082825260208201905092915050565b600082825260208201905092915050565b600082825260208201905092915050565b600081905092915050565b60006127de82612967565b91506127e983612967565b9250827fffffffffffffffffffffffffffffffffffffffffffffffffffffffffffffffff0382111561281e5761281d612aa4565b5b828201905092915050565b600061283482612971565b915061283f83612971565b92508260ff0382111561285557612854612aa4565b5b828201905092915050565b600061286b82612967565b915061287683612967565b92508261288657612885612ad3565b5b828204905092915050565b600061289c82612967565b91506128a783612967565b9250817fffffffffffffffffffffffffffffffffffffffffffffffffffffffffffffffff04831182151516156128e0576128df612aa4565b5b828202905092915050565b60006128f682612967565b915061290183612967565b92508282101561291457612913612aa4565b5b828203905092915050565b600061292a82612947565b9050919050565b60008115159050919050565b6000819050919050565b600073ffffffffffffffffffffffffffffffffffffffff82169050919050565b6000819050919050565b600060ff82169050919050565b82818337600083830152505050565b60005b838110156129ab578082015181840152602081019050612990565b838111156129ba576000848401525b50505050565b600060028204905060018216806129d857607f821691505b602082108114156129ec576129eb612b02565b5b50919050565b60006129fd82612967565b91507fffffffffffffffffffffffffffffffffffffffffffffffffffffffffffffffff821415612a3057612a2f612aa4565b5b600182019050919050565b6000612a4682612a57565b9050919050565b6000819050919050565b6000612a6282612b71565b9050919050565b6000819050919050565b6000612a7e82612967565b9150612a8983612967565b925082612a9957612a98612ad3565b5b828206905092915050565b7f4e487b7100000000000000000000000000000000000000000000000000000000600052601160045260246000fd5b7f4e487b7100000000000000000000000000000000000000000000000000000000600052601260045260246000fd5b7f4e487b7100000000000000000000000000000000000000000000000000000000600052602260045260246000fd5b7f4e487b7100000000000000000000000000000000000000000000000000000000600052604160045260246000fd5b6000601f19601f8301169050919050565b60008160601b9050919050565b612b8781612931565b8114612b9257600080fd5b50565b612b9e8161293d565b8114612ba957600080fd5b50565b612bb581612967565b8114612bc057600080fd5b5056fea2646970667358221220b8a36f56b2a70c7ac90c988b170d78c7109d07eb9be8db060f92003f1a858c5964736f6c63430008000033",
          "opcodes": "PUSH1 0xC0 PUSH1 0x40 MSTORE CALLVALUE DUP1 ISZERO PUSH2 0x10 JUMPI PUSH1 0x0 DUP1 REVERT JUMPDEST POP PUSH20 0xDD3782915140C8F3B190B5D67EAC6DC5760C46E9 PUSH20 0xA36085F69E2889C224210F603D836748E7DC0088 DUP2 PUSH20 0xFFFFFFFFFFFFFFFFFFFFFFFFFFFFFFFFFFFFFFFF AND PUSH1 0xA0 DUP2 PUSH20 0xFFFFFFFFFFFFFFFFFFFFFFFFFFFFFFFFFFFFFFFF AND PUSH1 0x60 SHL DUP2 MSTORE POP POP DUP1 PUSH20 0xFFFFFFFFFFFFFFFFFFFFFFFFFFFFFFFFFFFFFFFF AND PUSH1 0x80 DUP2 PUSH20 0xFFFFFFFFFFFFFFFFFFFFFFFFFFFFFFFFFFFFFFFF AND PUSH1 0x60 SHL DUP2 MSTORE POP POP POP POP PUSH32 0x6C3699283BDA56AD74F6B855546325B68D482E983852A7A82979CC4807B641F4 PUSH1 0x0 SHL PUSH1 0x5 DUP2 SWAP1 SSTORE POP PUSH8 0x16345785D8A0000 PUSH1 0x6 DUP2 SWAP1 SSTORE POP PUSH1 0x0 PUSH1 0x8 DUP2 SWAP1 SSTORE POP PUSH1 0x0 PUSH1 0x9 DUP2 SWAP1 SSTORE POP PUSH1 0x3 PUSH1 0xA DUP2 SWAP1 SSTORE POP PUSH2 0x834 PUSH1 0xB DUP2 SWAP1 SSTORE POP PUSH1 0x80 MLOAD PUSH1 0x60 SHR PUSH1 0xA0 MLOAD PUSH1 0x60 SHR PUSH2 0x2BF9 PUSH2 0x13E PUSH1 0x0 CODECOPY PUSH1 0x0 DUP2 DUP2 PUSH2 0x1018 ADD MSTORE PUSH2 0x19E9 ADD MSTORE PUSH1 0x0 DUP2 DUP2 PUSH2 0xF6A ADD MSTORE PUSH2 0x19AD ADD MSTORE PUSH2 0x2BF9 PUSH1 0x0 RETURN INVALID PUSH1 0x80 PUSH1 0x40 MSTORE CALLVALUE DUP1 ISZERO PUSH2 0x10 JUMPI PUSH1 0x0 DUP1 REVERT JUMPDEST POP PUSH1 0x4 CALLDATASIZE LT PUSH2 0xCF JUMPI PUSH1 0x0 CALLDATALOAD PUSH1 0xE0 SHR DUP1 PUSH4 0x8ED0FBE7 GT PUSH2 0x8C JUMPI DUP1 PUSH4 0x9878CA2C GT PUSH2 0x66 JUMPI DUP1 PUSH4 0x9878CA2C EQ PUSH2 0x226 JUMPI DUP1 PUSH4 0xB37217A4 EQ PUSH2 0x256 JUMPI DUP1 PUSH4 0xDB7BBDB3 EQ PUSH2 0x286 JUMPI DUP1 PUSH4 0xEBD348DE EQ PUSH2 0x2A2 JUMPI PUSH2 0xCF JUMP JUMPDEST DUP1 PUSH4 0x8ED0FBE7 EQ PUSH2 0x1D0 JUMPI DUP1 PUSH4 0x8F006527 EQ PUSH2 0x1EC JUMPI DUP1 PUSH4 0x94985DDD EQ PUSH2 0x20A JUMPI PUSH2 0xCF JUMP JUMPDEST DUP1 PUSH4 0x70A6E95 EQ PUSH2 0xD4 JUMPI DUP1 PUSH4 0xEEA10B2 EQ PUSH2 0x104 JUMPI DUP1 PUSH4 0x42619F66 EQ PUSH2 0x134 JUMPI DUP1 PUSH4 0x4DDE53AB EQ PUSH2 0x152 JUMPI DUP1 PUSH4 0x6B2FAFA9 EQ PUSH2 0x182 JUMPI DUP1 PUSH4 0x7E8B7E3E EQ PUSH2 0x1B4 JUMPI JUMPDEST PUSH1 0x0 DUP1 REVERT JUMPDEST PUSH2 0xEE PUSH1 0x4 DUP1 CALLDATASIZE SUB DUP2 ADD SWAP1 PUSH2 0xE9 SWAP2 SWAP1 PUSH2 0x1DC7 JUMP JUMPDEST PUSH2 0x2D8 JUMP JUMPDEST PUSH1 0x40 MLOAD PUSH2 0xFB SWAP2 SWAP1 PUSH2 0x2499 JUMP JUMPDEST PUSH1 0x40 MLOAD DUP1 SWAP2 SUB SWAP1 RETURN JUMPDEST PUSH2 0x11E PUSH1 0x4 DUP1 CALLDATASIZE SUB DUP2 ADD SWAP1 PUSH2 0x119 SWAP2 SWAP1 PUSH2 0x1DC7 JUMP JUMPDEST PUSH2 0x346 JUMP JUMPDEST PUSH1 0x40 MLOAD PUSH2 0x12B SWAP2 SWAP1 PUSH2 0x24BB JUMP JUMPDEST PUSH1 0x40 MLOAD DUP1 SWAP2 SUB SWAP1 RETURN JUMPDEST PUSH2 0x13C PUSH2 0x373 JUMP JUMPDEST PUSH1 0x40 MLOAD PUSH2 0x149 SWAP2 SWAP1 PUSH2 0x25EB JUMP JUMPDEST PUSH1 0x40 MLOAD DUP1 SWAP2 SUB SWAP1 RETURN JUMPDEST PUSH2 0x16C PUSH1 0x4 DUP1 CALLDATASIZE SUB DUP2 ADD SWAP1 PUSH2 0x167 SWAP2 SWAP1 PUSH2 0x1DC7 JUMP JUMPDEST PUSH2 0x379 JUMP JUMPDEST PUSH1 0x40 MLOAD PUSH2 0x179 SWAP2 SWAP1 PUSH2 0x2477 JUMP JUMPDEST PUSH1 0x40 MLOAD DUP1 SWAP2 SUB SWAP1 RETURN JUMPDEST PUSH2 0x19C PUSH1 0x4 DUP1 CALLDATASIZE SUB DUP2 ADD SWAP1 PUSH2 0x197 SWAP2 SWAP1 PUSH2 0x1DC7 JUMP JUMPDEST PUSH2 0x690 JUMP JUMPDEST PUSH1 0x40 MLOAD PUSH2 0x1AB SWAP4 SWAP3 SWAP2 SWAP1 PUSH2 0x255F JUMP JUMPDEST PUSH1 0x40 MLOAD DUP1 SWAP2 SUB SWAP1 RETURN JUMPDEST PUSH2 0x1CE PUSH1 0x4 DUP1 CALLDATASIZE SUB DUP2 ADD SWAP1 PUSH2 0x1C9 SWAP2 SWAP1 PUSH2 0x1F6B JUMP JUMPDEST PUSH2 0x888 JUMP JUMPDEST STOP JUMPDEST PUSH2 0x1EA PUSH1 0x4 DUP1 CALLDATASIZE SUB DUP2 ADD SWAP1 PUSH2 0x1E5 SWAP2 SWAP1 PUSH2 0x1F6B JUMP JUMPDEST PUSH2 0xC55 JUMP JUMPDEST STOP JUMPDEST PUSH2 0x1F4 PUSH2 0xF66 JUMP JUMPDEST PUSH1 0x40 MLOAD PUSH2 0x201 SWAP2 SWAP1 PUSH2 0x25EB JUMP JUMPDEST PUSH1 0x40 MLOAD DUP1 SWAP2 SUB SWAP1 RETURN JUMPDEST PUSH2 0x224 PUSH1 0x4 DUP1 CALLDATASIZE SUB DUP2 ADD SWAP1 PUSH2 0x21F SWAP2 SWAP1 PUSH2 0x1D8B JUMP JUMPDEST PUSH2 0x1016 JUMP JUMPDEST STOP JUMPDEST PUSH2 0x240 PUSH1 0x4 DUP1 CALLDATASIZE SUB DUP2 ADD SWAP1 PUSH2 0x23B SWAP2 SWAP1 PUSH2 0x1EAC JUMP JUMPDEST PUSH2 0x10B2 JUMP JUMPDEST PUSH1 0x40 MLOAD PUSH2 0x24D SWAP2 SWAP1 PUSH2 0x24BB JUMP JUMPDEST PUSH1 0x40 MLOAD DUP1 SWAP2 SUB SWAP1 RETURN JUMPDEST PUSH2 0x270 PUSH1 0x4 DUP1 CALLDATASIZE SUB DUP2 ADD SWAP1 PUSH2 0x26B SWAP2 SWAP1 PUSH2 0x1DC7 JUMP JUMPDEST PUSH2 0x1277 JUMP JUMPDEST PUSH1 0x40 MLOAD PUSH2 0x27D SWAP2 SWAP1 PUSH2 0x24D6 JUMP JUMPDEST PUSH1 0x40 MLOAD DUP1 SWAP2 SUB SWAP1 RETURN JUMPDEST PUSH2 0x2A0 PUSH1 0x4 DUP1 CALLDATASIZE SUB DUP2 ADD SWAP1 PUSH2 0x29B SWAP2 SWAP1 PUSH2 0x1E19 JUMP JUMPDEST PUSH2 0x12CB JUMP JUMPDEST STOP JUMPDEST PUSH2 0x2BC PUSH1 0x4 DUP1 CALLDATASIZE SUB DUP2 ADD SWAP1 PUSH2 0x2B7 SWAP2 SWAP1 PUSH2 0x1DC7 JUMP JUMPDEST PUSH2 0x143B JUMP JUMPDEST PUSH1 0x40 MLOAD PUSH2 0x2CF SWAP8 SWAP7 SWAP6 SWAP5 SWAP4 SWAP3 SWAP2 SWAP1 PUSH2 0x2606 JUMP JUMPDEST PUSH1 0x40 MLOAD DUP1 SWAP2 SUB SWAP1 RETURN JUMPDEST PUSH1 0x60 PUSH1 0x1 PUSH1 0x0 DUP4 DUP2 MSTORE PUSH1 0x20 ADD SWAP1 DUP2 MSTORE PUSH1 0x20 ADD PUSH1 0x0 KECCAK256 PUSH1 0x4 ADD DUP1 SLOAD DUP1 PUSH1 0x20 MUL PUSH1 0x20 ADD PUSH1 0x40 MLOAD SWAP1 DUP2 ADD PUSH1 0x40 MSTORE DUP1 SWAP3 SWAP2 SWAP1 DUP2 DUP2 MSTORE PUSH1 0x20 ADD DUP3 DUP1 SLOAD DUP1 ISZERO PUSH2 0x33A JUMPI PUSH1 0x20 MUL DUP3 ADD SWAP2 SWAP1 PUSH1 0x0 MSTORE PUSH1 0x20 PUSH1 0x0 KECCAK256 SWAP1 JUMPDEST DUP2 SLOAD DUP2 MSTORE PUSH1 0x20 ADD SWAP1 PUSH1 0x1 ADD SWAP1 DUP1 DUP4 GT PUSH2 0x326 JUMPI JUMPDEST POP POP POP POP POP SWAP1 POP SWAP2 SWAP1 POP JUMP JUMPDEST PUSH1 0x0 PUSH1 0x1 PUSH1 0x0 DUP4 DUP2 MSTORE PUSH1 0x20 ADD SWAP1 DUP2 MSTORE PUSH1 0x20 ADD PUSH1 0x0 KECCAK256 PUSH1 0x2 ADD PUSH1 0x0 SWAP1 SLOAD SWAP1 PUSH2 0x100 EXP SWAP1 DIV PUSH1 0xFF AND SWAP1 POP SWAP2 SWAP1 POP JUMP JUMPDEST PUSH1 0x7 SLOAD DUP2 JUMP JUMPDEST PUSH1 0x60 PUSH1 0x0 PUSH1 0x2 PUSH1 0x0 DUP5 DUP2 MSTORE PUSH1 0x20 ADD SWAP1 DUP2 MSTORE PUSH1 0x20 ADD PUSH1 0x0 KECCAK256 PUSH1 0x0 ADD SLOAD SWAP1 POP PUSH1 0x0 PUSH1 0x1 PUSH1 0x0 DUP4 DUP2 MSTORE PUSH1 0x20 ADD SWAP1 DUP2 MSTORE PUSH1 0x20 ADD PUSH1 0x0 KECCAK256 PUSH1 0x3 ADD DUP1 SLOAD SWAP1 POP PUSH8 0xFFFFFFFFFFFFFFFF DUP2 GT ISZERO PUSH2 0x3F1 JUMPI PUSH32 0x4E487B7100000000000000000000000000000000000000000000000000000000 PUSH1 0x0 MSTORE PUSH1 0x41 PUSH1 0x4 MSTORE PUSH1 0x24 PUSH1 0x0 REVERT JUMPDEST PUSH1 0x40 MLOAD SWAP1 DUP1 DUP3 MSTORE DUP1 PUSH1 0x20 MUL PUSH1 0x20 ADD DUP3 ADD PUSH1 0x40 MSTORE DUP1 ISZERO PUSH2 0x42A JUMPI DUP2 PUSH1 0x20 ADD JUMPDEST PUSH2 0x417 PUSH2 0x1B77 JUMP JUMPDEST DUP2 MSTORE PUSH1 0x20 ADD SWAP1 PUSH1 0x1 SWAP1 SUB SWAP1 DUP2 PUSH2 0x40F JUMPI SWAP1 POP JUMPDEST POP SWAP1 POP PUSH1 0x0 JUMPDEST PUSH1 0x1 PUSH1 0x0 DUP5 DUP2 MSTORE PUSH1 0x20 ADD SWAP1 DUP2 MSTORE PUSH1 0x20 ADD PUSH1 0x0 KECCAK256 PUSH1 0x3 ADD DUP1 SLOAD SWAP1 POP DUP2 LT ISZERO PUSH2 0x685 JUMPI PUSH1 0x3 PUSH1 0x0 PUSH1 0x1 PUSH1 0x0 DUP7 DUP2 MSTORE PUSH1 0x20 ADD SWAP1 DUP2 MSTORE PUSH1 0x20 ADD PUSH1 0x0 KECCAK256 PUSH1 0x3 ADD DUP4 DUP2 SLOAD DUP2 LT PUSH2 0x4A3 JUMPI PUSH32 0x4E487B7100000000000000000000000000000000000000000000000000000000 PUSH1 0x0 MSTORE PUSH1 0x32 PUSH1 0x4 MSTORE PUSH1 0x24 PUSH1 0x0 REVERT JUMPDEST SWAP1 PUSH1 0x0 MSTORE PUSH1 0x20 PUSH1 0x0 KECCAK256 ADD SLOAD DUP2 MSTORE PUSH1 0x20 ADD SWAP1 DUP2 MSTORE PUSH1 0x20 ADD PUSH1 0x0 KECCAK256 PUSH1 0x40 MLOAD DUP1 PUSH1 0xE0 ADD PUSH1 0x40 MSTORE SWAP1 DUP2 PUSH1 0x0 DUP3 ADD SLOAD DUP2 MSTORE PUSH1 0x20 ADD PUSH1 0x1 DUP3 ADD DUP1 SLOAD PUSH2 0x4E1 SWAP1 PUSH2 0x29C0 JUMP JUMPDEST DUP1 PUSH1 0x1F ADD PUSH1 0x20 DUP1 SWAP2 DIV MUL PUSH1 0x20 ADD PUSH1 0x40 MLOAD SWAP1 DUP2 ADD PUSH1 0x40 MSTORE DUP1 SWAP3 SWAP2 SWAP1 DUP2 DUP2 MSTORE PUSH1 0x20 ADD DUP3 DUP1 SLOAD PUSH2 0x50D SWAP1 PUSH2 0x29C0 JUMP JUMPDEST DUP1 ISZERO PUSH2 0x55A JUMPI DUP1 PUSH1 0x1F LT PUSH2 0x52F JUMPI PUSH2 0x100 DUP1 DUP4 SLOAD DIV MUL DUP4 MSTORE SWAP2 PUSH1 0x20 ADD SWAP2 PUSH2 0x55A JUMP JUMPDEST DUP3 ADD SWAP2 SWAP1 PUSH1 0x0 MSTORE PUSH1 0x20 PUSH1 0x0 KECCAK256 SWAP1 JUMPDEST DUP2 SLOAD DUP2 MSTORE SWAP1 PUSH1 0x1 ADD SWAP1 PUSH1 0x20 ADD DUP1 DUP4 GT PUSH2 0x53D JUMPI DUP3 SWAP1 SUB PUSH1 0x1F AND DUP3 ADD SWAP2 JUMPDEST POP POP POP POP POP DUP2 MSTORE PUSH1 0x20 ADD PUSH1 0x2 DUP3 ADD SLOAD DUP2 MSTORE PUSH1 0x20 ADD PUSH1 0x3 DUP3 ADD SLOAD DUP2 MSTORE PUSH1 0x20 ADD PUSH1 0x4 DUP3 ADD DUP1 SLOAD PUSH2 0x587 SWAP1 PUSH2 0x29C0 JUMP JUMPDEST DUP1 PUSH1 0x1F ADD PUSH1 0x20 DUP1 SWAP2 DIV MUL PUSH1 0x20 ADD PUSH1 0x40 MLOAD SWAP1 DUP2 ADD PUSH1 0x40 MSTORE DUP1 SWAP3 SWAP2 SWAP1 DUP2 DUP2 MSTORE PUSH1 0x20 ADD DUP3 DUP1 SLOAD PUSH2 0x5B3 SWAP1 PUSH2 0x29C0 JUMP JUMPDEST DUP1 ISZERO PUSH2 0x600 JUMPI DUP1 PUSH1 0x1F LT PUSH2 0x5D5 JUMPI PUSH2 0x100 DUP1 DUP4 SLOAD DIV MUL DUP4 MSTORE SWAP2 PUSH1 0x20 ADD SWAP2 PUSH2 0x600 JUMP JUMPDEST DUP3 ADD SWAP2 SWAP1 PUSH1 0x0 MSTORE PUSH1 0x20 PUSH1 0x0 KECCAK256 SWAP1 JUMPDEST DUP2 SLOAD DUP2 MSTORE SWAP1 PUSH1 0x1 ADD SWAP1 PUSH1 0x20 ADD DUP1 DUP4 GT PUSH2 0x5E3 JUMPI DUP3 SWAP1 SUB PUSH1 0x1F AND DUP3 ADD SWAP2 JUMPDEST POP POP POP POP POP DUP2 MSTORE PUSH1 0x20 ADD PUSH1 0x5 DUP3 ADD PUSH1 0x0 SWAP1 SLOAD SWAP1 PUSH2 0x100 EXP SWAP1 DIV PUSH1 0xFF AND ISZERO ISZERO ISZERO ISZERO DUP2 MSTORE PUSH1 0x20 ADD PUSH1 0x6 DUP3 ADD SLOAD DUP2 MSTORE POP POP DUP3 DUP3 DUP2 MLOAD DUP2 LT PUSH2 0x667 JUMPI PUSH32 0x4E487B7100000000000000000000000000000000000000000000000000000000 PUSH1 0x0 MSTORE PUSH1 0x32 PUSH1 0x4 MSTORE PUSH1 0x24 PUSH1 0x0 REVERT JUMPDEST PUSH1 0x20 MUL PUSH1 0x20 ADD ADD DUP2 SWAP1 MSTORE POP DUP1 DUP1 PUSH2 0x67D SWAP1 PUSH2 0x29F2 JUMP JUMPDEST SWAP2 POP POP PUSH2 0x430 JUMP JUMPDEST POP DUP1 SWAP3 POP POP POP SWAP2 SWAP1 POP JUMP JUMPDEST PUSH1 0x60 DUP1 PUSH1 0x60 PUSH1 0x4 PUSH1 0x0 DUP6 DUP2 MSTORE PUSH1 0x20 ADD SWAP1 DUP2 MSTORE PUSH1 0x20 ADD PUSH1 0x0 KECCAK256 PUSH1 0x0 ADD PUSH1 0x4 PUSH1 0x0 DUP7 DUP2 MSTORE PUSH1 0x20 ADD SWAP1 DUP2 MSTORE PUSH1 0x20 ADD PUSH1 0x0 KECCAK256 PUSH1 0x1 ADD PUSH1 0x4 PUSH1 0x0 DUP8 DUP2 MSTORE PUSH1 0x20 ADD SWAP1 DUP2 MSTORE PUSH1 0x20 ADD PUSH1 0x0 KECCAK256 PUSH1 0x2 ADD DUP3 DUP1 SLOAD PUSH2 0x6E3 SWAP1 PUSH2 0x29C0 JUMP JUMPDEST DUP1 PUSH1 0x1F ADD PUSH1 0x20 DUP1 SWAP2 DIV MUL PUSH1 0x20 ADD PUSH1 0x40 MLOAD SWAP1 DUP2 ADD PUSH1 0x40 MSTORE DUP1 SWAP3 SWAP2 SWAP1 DUP2 DUP2 MSTORE PUSH1 0x20 ADD DUP3 DUP1 SLOAD PUSH2 0x70F SWAP1 PUSH2 0x29C0 JUMP JUMPDEST DUP1 ISZERO PUSH2 0x75C JUMPI DUP1 PUSH1 0x1F LT PUSH2 0x731 JUMPI PUSH2 0x100 DUP1 DUP4 SLOAD DIV MUL DUP4 MSTORE SWAP2 PUSH1 0x20 ADD SWAP2 PUSH2 0x75C JUMP JUMPDEST DUP3 ADD SWAP2 SWAP1 PUSH1 0x0 MSTORE PUSH1 0x20 PUSH1 0x0 KECCAK256 SWAP1 JUMPDEST DUP2 SLOAD DUP2 MSTORE SWAP1 PUSH1 0x1 ADD SWAP1 PUSH1 0x20 ADD DUP1 DUP4 GT PUSH2 0x73F JUMPI DUP3 SWAP1 SUB PUSH1 0x1F AND DUP3 ADD SWAP2 JUMPDEST POP POP POP POP POP SWAP3 POP DUP2 DUP1 SLOAD PUSH2 0x76F SWAP1 PUSH2 0x29C0 JUMP JUMPDEST DUP1 PUSH1 0x1F ADD PUSH1 0x20 DUP1 SWAP2 DIV MUL PUSH1 0x20 ADD PUSH1 0x40 MLOAD SWAP1 DUP2 ADD PUSH1 0x40 MSTORE DUP1 SWAP3 SWAP2 SWAP1 DUP2 DUP2 MSTORE PUSH1 0x20 ADD DUP3 DUP1 SLOAD PUSH2 0x79B SWAP1 PUSH2 0x29C0 JUMP JUMPDEST DUP1 ISZERO PUSH2 0x7E8 JUMPI DUP1 PUSH1 0x1F LT PUSH2 0x7BD JUMPI PUSH2 0x100 DUP1 DUP4 SLOAD DIV MUL DUP4 MSTORE SWAP2 PUSH1 0x20 ADD SWAP2 PUSH2 0x7E8 JUMP JUMPDEST DUP3 ADD SWAP2 SWAP1 PUSH1 0x0 MSTORE PUSH1 0x20 PUSH1 0x0 KECCAK256 SWAP1 JUMPDEST DUP2 SLOAD DUP2 MSTORE SWAP1 PUSH1 0x1 ADD SWAP1 PUSH1 0x20 ADD DUP1 DUP4 GT PUSH2 0x7CB JUMPI DUP3 SWAP1 SUB PUSH1 0x1F AND DUP3 ADD SWAP2 JUMPDEST POP POP POP POP POP SWAP2 POP DUP1 DUP1 SLOAD PUSH2 0x7FB SWAP1 PUSH2 0x29C0 JUMP JUMPDEST DUP1 PUSH1 0x1F ADD PUSH1 0x20 DUP1 SWAP2 DIV MUL PUSH1 0x20 ADD PUSH1 0x40 MLOAD SWAP1 DUP2 ADD PUSH1 0x40 MSTORE DUP1 SWAP3 SWAP2 SWAP1 DUP2 DUP2 MSTORE PUSH1 0x20 ADD DUP3 DUP1 SLOAD PUSH2 0x827 SWAP1 PUSH2 0x29C0 JUMP JUMPDEST DUP1 ISZERO PUSH2 0x874 JUMPI DUP1 PUSH1 0x1F LT PUSH2 0x849 JUMPI PUSH2 0x100 DUP1 DUP4 SLOAD DIV MUL DUP4 MSTORE SWAP2 PUSH1 0x20 ADD SWAP2 PUSH2 0x874 JUMP JUMPDEST DUP3 ADD SWAP2 SWAP1 PUSH1 0x0 MSTORE PUSH1 0x20 PUSH1 0x0 KECCAK256 SWAP1 JUMPDEST DUP2 SLOAD DUP2 MSTORE SWAP1 PUSH1 0x1 ADD SWAP1 PUSH1 0x20 ADD DUP1 DUP4 GT PUSH2 0x857 JUMPI DUP3 SWAP1 SUB PUSH1 0x1F AND DUP3 ADD SWAP2 JUMPDEST POP POP POP POP POP SWAP1 POP SWAP3 POP SWAP3 POP SWAP3 POP SWAP2 SWAP4 SWAP1 SWAP3 POP JUMP JUMPDEST PUSH1 0x0 PUSH2 0x892 PUSH2 0x1624 JUMP JUMPDEST SWAP1 POP PUSH1 0x0 DUP1 PUSH1 0x64 SWAP1 POP PUSH1 0x0 JUMPDEST DUP5 DUP2 LT ISZERO PUSH2 0xC4B JUMPI PUSH1 0x0 PUSH1 0x40 MLOAD DUP1 PUSH1 0x20 ADD PUSH1 0x40 MSTORE DUP1 PUSH1 0x0 DUP2 MSTORE POP SWAP1 POP PUSH1 0x0 PUSH1 0x1 SWAP1 POP PUSH1 0x0 DUP1 JUMPDEST PUSH1 0x1 PUSH1 0xA SLOAD PUSH2 0x8D3 SWAP2 SWAP1 PUSH2 0x28EB JUMP JUMPDEST DUP2 LT ISZERO PUSH2 0x952 JUMPI DUP12 DUP9 DUP9 DUP2 MLOAD DUP2 LT PUSH2 0x914 JUMPI PUSH32 0x4E487B7100000000000000000000000000000000000000000000000000000000 PUSH1 0x0 MSTORE PUSH1 0x32 PUSH1 0x4 MSTORE PUSH1 0x24 PUSH1 0x0 REVERT JUMPDEST PUSH1 0x20 MUL PUSH1 0x20 ADD ADD MLOAD LT ISZERO PUSH2 0x931 JUMPI DUP3 DUP1 PUSH2 0x92D SWAP1 PUSH2 0x29F2 JUMP JUMPDEST SWAP4 POP POP JUMPDEST DUP7 DUP1 PUSH2 0x93C SWAP1 PUSH2 0x29F2 JUMP JUMPDEST SWAP8 POP POP DUP1 DUP1 PUSH2 0x94A SWAP1 PUSH2 0x29F2 JUMP JUMPDEST SWAP2 POP POP PUSH2 0x8C4 JUMP JUMPDEST POP PUSH1 0x0 JUMPDEST PUSH1 0xA SLOAD DUP2 LT ISZERO PUSH2 0x98F JUMPI PUSH2 0x97A DUP5 PUSH2 0x975 PUSH2 0x970 DUP7 PUSH2 0x173C JUMP JUMPDEST PUSH2 0x179D JUMP JUMPDEST PUSH2 0x1972 JUMP JUMPDEST SWAP4 POP DUP1 DUP1 PUSH2 0x987 SWAP1 PUSH2 0x29F2 JUMP JUMPDEST SWAP2 POP POP PUSH2 0x956 JUMP JUMPDEST POP DUP1 DUP1 PUSH2 0x99B SWAP1 PUSH2 0x29F2 JUMP JUMPDEST SWAP2 POP POP JUMPDEST DUP10 DUP8 DUP8 DUP2 MLOAD DUP2 LT PUSH2 0x9D9 JUMPI PUSH32 0x4E487B7100000000000000000000000000000000000000000000000000000000 PUSH1 0x0 MSTORE PUSH1 0x32 PUSH1 0x4 MSTORE PUSH1 0x24 PUSH1 0x0 REVERT JUMPDEST PUSH1 0x20 MUL PUSH1 0x20 ADD ADD MLOAD LT DUP1 ISZERO PUSH2 0x9ED JUMPI POP DUP5 DUP2 LT JUMPDEST ISZERO PUSH2 0xAD6 JUMPI DUP6 DUP1 PUSH2 0x9FD SWAP1 PUSH2 0x29F2 JUMP JUMPDEST SWAP7 POP POP PUSH1 0x0 JUMPDEST PUSH1 0xA SLOAD DUP2 LT ISZERO PUSH2 0xA85 JUMPI DUP12 DUP9 DUP9 DUP2 MLOAD DUP2 LT PUSH2 0xA47 JUMPI PUSH32 0x4E487B7100000000000000000000000000000000000000000000000000000000 PUSH1 0x0 MSTORE PUSH1 0x32 PUSH1 0x4 MSTORE PUSH1 0x24 PUSH1 0x0 REVERT JUMPDEST PUSH1 0x20 MUL PUSH1 0x20 ADD ADD MLOAD LT ISZERO PUSH2 0xA64 JUMPI DUP3 DUP1 PUSH2 0xA60 SWAP1 PUSH2 0x29F2 JUMP JUMPDEST SWAP4 POP POP JUMPDEST DUP7 DUP1 PUSH2 0xA6F SWAP1 PUSH2 0x29F2 JUMP JUMPDEST SWAP8 POP POP DUP1 DUP1 PUSH2 0xA7D SWAP1 PUSH2 0x29F2 JUMP JUMPDEST SWAP2 POP POP PUSH2 0xA03 JUMP JUMPDEST POP PUSH1 0x0 JUMPDEST PUSH1 0xA SLOAD DUP2 LT ISZERO PUSH2 0xAC2 JUMPI PUSH2 0xAAD DUP5 PUSH2 0xAA8 PUSH2 0xAA3 DUP7 PUSH2 0x173C JUMP JUMPDEST PUSH2 0x179D JUMP JUMPDEST PUSH2 0x1972 JUMP JUMPDEST SWAP4 POP DUP1 DUP1 PUSH2 0xABA SWAP1 PUSH2 0x29F2 JUMP JUMPDEST SWAP2 POP POP PUSH2 0xA89 JUMP JUMPDEST POP DUP1 DUP1 PUSH2 0xACE SWAP1 PUSH2 0x29F2 JUMP JUMPDEST SWAP2 POP POP PUSH2 0x99F JUMP JUMPDEST PUSH1 0x40 MLOAD DUP1 PUSH1 0xE0 ADD PUSH1 0x40 MSTORE DUP1 PUSH1 0x9 SLOAD DUP2 MSTORE PUSH1 0x20 ADD DUP5 DUP2 MSTORE PUSH1 0x20 ADD DUP3 DUP2 MSTORE PUSH1 0x20 ADD TIMESTAMP DUP2 MSTORE PUSH1 0x20 ADD PUSH1 0x40 MLOAD DUP1 PUSH1 0x40 ADD PUSH1 0x40 MSTORE DUP1 PUSH1 0xA DUP2 MSTORE PUSH1 0x20 ADD PUSH32 0x556E7265736F6C76656400000000000000000000000000000000000000000000 DUP2 MSTORE POP DUP2 MSTORE PUSH1 0x20 ADD PUSH1 0x0 ISZERO ISZERO DUP2 MSTORE PUSH1 0x20 ADD PUSH1 0x0 DUP2 MSTORE POP PUSH1 0x3 PUSH1 0x0 PUSH1 0x9 SLOAD DUP2 MSTORE PUSH1 0x20 ADD SWAP1 DUP2 MSTORE PUSH1 0x20 ADD PUSH1 0x0 KECCAK256 PUSH1 0x0 DUP3 ADD MLOAD DUP2 PUSH1 0x0 ADD SSTORE PUSH1 0x20 DUP3 ADD MLOAD DUP2 PUSH1 0x1 ADD SWAP1 DUP1 MLOAD SWAP1 PUSH1 0x20 ADD SWAP1 PUSH2 0xB7F SWAP3 SWAP2 SWAP1 PUSH2 0x1BB6 JUMP JUMPDEST POP PUSH1 0x40 DUP3 ADD MLOAD DUP2 PUSH1 0x2 ADD SSTORE PUSH1 0x60 DUP3 ADD MLOAD DUP2 PUSH1 0x3 ADD SSTORE PUSH1 0x80 DUP3 ADD MLOAD DUP2 PUSH1 0x4 ADD SWAP1 DUP1 MLOAD SWAP1 PUSH1 0x20 ADD SWAP1 PUSH2 0xBB0 SWAP3 SWAP2 SWAP1 PUSH2 0x1BB6 JUMP JUMPDEST POP PUSH1 0xA0 DUP3 ADD MLOAD DUP2 PUSH1 0x5 ADD PUSH1 0x0 PUSH2 0x100 EXP DUP2 SLOAD DUP2 PUSH1 0xFF MUL NOT AND SWAP1 DUP4 ISZERO ISZERO MUL OR SWAP1 SSTORE POP PUSH1 0xC0 DUP3 ADD MLOAD DUP2 PUSH1 0x6 ADD SSTORE SWAP1 POP POP PUSH1 0x1 PUSH1 0x0 DUP11 DUP2 MSTORE PUSH1 0x20 ADD SWAP1 DUP2 MSTORE PUSH1 0x20 ADD PUSH1 0x0 KECCAK256 PUSH1 0x3 ADD PUSH1 0x9 SLOAD SWAP1 DUP1 PUSH1 0x1 DUP2 SLOAD ADD DUP1 DUP3 SSTORE DUP1 SWAP2 POP POP PUSH1 0x1 SWAP1 SUB SWAP1 PUSH1 0x0 MSTORE PUSH1 0x20 PUSH1 0x0 KECCAK256 ADD PUSH1 0x0 SWAP1 SWAP2 SWAP1 SWAP2 SWAP1 SWAP2 POP SSTORE PUSH1 0x9 PUSH1 0x0 DUP2 SLOAD DUP1 SWAP3 SWAP2 SWAP1 PUSH2 0xC30 SWAP1 PUSH2 0x29F2 JUMP JUMPDEST SWAP2 SWAP1 POP SSTORE POP POP POP POP DUP1 DUP1 PUSH2 0xC43 SWAP1 PUSH2 0x29F2 JUMP JUMPDEST SWAP2 POP POP PUSH2 0x89E JUMP JUMPDEST POP POP POP POP POP POP POP POP JUMP JUMPDEST PUSH1 0x0 PUSH2 0xC5F PUSH2 0x1624 JUMP JUMPDEST SWAP1 POP PUSH1 0x0 DUP1 PUSH1 0x64 SWAP1 POP PUSH1 0x0 JUMPDEST DUP5 DUP2 LT ISZERO PUSH2 0xF5C JUMPI PUSH1 0x0 PUSH1 0x40 MLOAD DUP1 PUSH1 0x20 ADD PUSH1 0x40 MSTORE DUP1 PUSH1 0x0 DUP2 MSTORE POP SWAP1 POP PUSH1 0x0 PUSH1 0x1 SWAP1 POP PUSH1 0x0 JUMPDEST DUP10 DUP8 DUP8 DUP2 MLOAD DUP2 LT PUSH2 0xCCA JUMPI PUSH32 0x4E487B7100000000000000000000000000000000000000000000000000000000 PUSH1 0x0 MSTORE PUSH1 0x32 PUSH1 0x4 MSTORE PUSH1 0x24 PUSH1 0x0 REVERT JUMPDEST PUSH1 0x20 MUL PUSH1 0x20 ADD ADD MLOAD LT DUP1 ISZERO PUSH2 0xCDE JUMPI POP DUP5 DUP2 LT JUMPDEST ISZERO PUSH2 0xD04 JUMPI DUP1 DUP1 PUSH2 0xCEE SWAP1 PUSH2 0x29F2 JUMP JUMPDEST SWAP2 POP POP DUP6 DUP1 PUSH2 0xCFC SWAP1 PUSH2 0x29F2 JUMP JUMPDEST SWAP7 POP POP PUSH2 0xC90 JUMP JUMPDEST PUSH1 0x0 JUMPDEST PUSH1 0x1 DUP3 PUSH1 0x3 PUSH2 0xD16 SWAP2 SWAP1 PUSH2 0x2891 JUMP JUMPDEST PUSH2 0xD20 SWAP2 SWAP1 PUSH2 0x28EB JUMP JUMPDEST DUP2 LT ISZERO PUSH2 0xD9F JUMPI DUP12 DUP9 DUP9 DUP2 MLOAD DUP2 LT PUSH2 0xD61 JUMPI PUSH32 0x4E487B7100000000000000000000000000000000000000000000000000000000 PUSH1 0x0 MSTORE PUSH1 0x32 PUSH1 0x4 MSTORE PUSH1 0x24 PUSH1 0x0 REVERT JUMPDEST PUSH1 0x20 MUL PUSH1 0x20 ADD ADD MLOAD LT ISZERO PUSH2 0xD7E JUMPI DUP3 DUP1 PUSH2 0xD7A SWAP1 PUSH2 0x29F2 JUMP JUMPDEST SWAP4 POP POP JUMPDEST DUP7 DUP1 PUSH2 0xD89 SWAP1 PUSH2 0x29F2 JUMP JUMPDEST SWAP8 POP POP DUP1 DUP1 PUSH2 0xD97 SWAP1 PUSH2 0x29F2 JUMP JUMPDEST SWAP2 POP POP PUSH2 0xD07 JUMP JUMPDEST POP PUSH1 0x0 JUMPDEST DUP2 PUSH1 0x3 PUSH2 0xDB0 SWAP2 SWAP1 PUSH2 0x2891 JUMP JUMPDEST DUP2 LT ISZERO PUSH2 0xDE6 JUMPI PUSH2 0xDD1 DUP5 PUSH2 0xDCC PUSH2 0xDC7 DUP7 PUSH2 0x173C JUMP JUMPDEST PUSH2 0x179D JUMP JUMPDEST PUSH2 0x1972 JUMP JUMPDEST SWAP4 POP DUP1 DUP1 PUSH2 0xDDE SWAP1 PUSH2 0x29F2 JUMP JUMPDEST SWAP2 POP POP PUSH2 0xDA3 JUMP JUMPDEST POP PUSH1 0x40 MLOAD DUP1 PUSH1 0xE0 ADD PUSH1 0x40 MSTORE DUP1 PUSH1 0x9 SLOAD DUP2 MSTORE PUSH1 0x20 ADD DUP5 DUP2 MSTORE PUSH1 0x20 ADD DUP3 DUP2 MSTORE PUSH1 0x20 ADD TIMESTAMP DUP2 MSTORE PUSH1 0x20 ADD PUSH1 0x40 MLOAD DUP1 PUSH1 0x40 ADD PUSH1 0x40 MSTORE DUP1 PUSH1 0xA DUP2 MSTORE PUSH1 0x20 ADD PUSH32 0x556E7265736F6C76656400000000000000000000000000000000000000000000 DUP2 MSTORE POP DUP2 MSTORE PUSH1 0x20 ADD PUSH1 0x0 ISZERO ISZERO DUP2 MSTORE PUSH1 0x20 ADD PUSH1 0x0 DUP2 MSTORE POP PUSH1 0x3 PUSH1 0x0 PUSH1 0x9 SLOAD DUP2 MSTORE PUSH1 0x20 ADD SWAP1 DUP2 MSTORE PUSH1 0x20 ADD PUSH1 0x0 KECCAK256 PUSH1 0x0 DUP3 ADD MLOAD DUP2 PUSH1 0x0 ADD SSTORE PUSH1 0x20 DUP3 ADD MLOAD DUP2 PUSH1 0x1 ADD SWAP1 DUP1 MLOAD SWAP1 PUSH1 0x20 ADD SWAP1 PUSH2 0xE90 SWAP3 SWAP2 SWAP1 PUSH2 0x1BB6 JUMP JUMPDEST POP PUSH1 0x40 DUP3 ADD MLOAD DUP2 PUSH1 0x2 ADD SSTORE PUSH1 0x60 DUP3 ADD MLOAD DUP2 PUSH1 0x3 ADD SSTORE PUSH1 0x80 DUP3 ADD MLOAD DUP2 PUSH1 0x4 ADD SWAP1 DUP1 MLOAD SWAP1 PUSH1 0x20 ADD SWAP1 PUSH2 0xEC1 SWAP3 SWAP2 SWAP1 PUSH2 0x1BB6 JUMP JUMPDEST POP PUSH1 0xA0 DUP3 ADD MLOAD DUP2 PUSH1 0x5 ADD PUSH1 0x0 PUSH2 0x100 EXP DUP2 SLOAD DUP2 PUSH1 0xFF MUL NOT AND SWAP1 DUP4 ISZERO ISZERO MUL OR SWAP1 SSTORE POP PUSH1 0xC0 DUP3 ADD MLOAD DUP2 PUSH1 0x6 ADD SSTORE SWAP1 POP POP PUSH1 0x1 PUSH1 0x0 DUP11 DUP2 MSTORE PUSH1 0x20 ADD SWAP1 DUP2 MSTORE PUSH1 0x20 ADD PUSH1 0x0 KECCAK256 PUSH1 0x3 ADD PUSH1 0x9 SLOAD SWAP1 DUP1 PUSH1 0x1 DUP2 SLOAD ADD DUP1 DUP3 SSTORE DUP1 SWAP2 POP POP PUSH1 0x1 SWAP1 SUB SWAP1 PUSH1 0x0 MSTORE PUSH1 0x20 PUSH1 0x0 KECCAK256 ADD PUSH1 0x0 SWAP1 SWAP2 SWAP1 SWAP2 SWAP1 SWAP2 POP SSTORE PUSH1 0x9 PUSH1 0x0 DUP2 SLOAD DUP1 SWAP3 SWAP2 SWAP1 PUSH2 0xF41 SWAP1 PUSH2 0x29F2 JUMP JUMPDEST SWAP2 SWAP1 POP SSTORE POP POP POP POP DUP1 DUP1 PUSH2 0xF54 SWAP1 PUSH2 0x29F2 JUMP JUMPDEST SWAP2 POP POP PUSH2 0xC6B JUMP JUMPDEST POP POP POP POP POP POP POP POP JUMP JUMPDEST PUSH1 0x0 PUSH32 0x0 PUSH20 0xFFFFFFFFFFFFFFFFFFFFFFFFFFFFFFFFFFFFFFFF AND PUSH4 0x70A08231 ADDRESS PUSH1 0x40 MLOAD DUP3 PUSH4 0xFFFFFFFF AND PUSH1 0xE0 SHL DUP2 MSTORE PUSH1 0x4 ADD PUSH2 0xFC1 SWAP2 SWAP1 PUSH2 0x241E JUMP JUMPDEST PUSH1 0x20 PUSH1 0x40 MLOAD DUP1 DUP4 SUB DUP2 DUP7 DUP1 EXTCODESIZE ISZERO DUP1 ISZERO PUSH2 0xFD9 JUMPI PUSH1 0x0 DUP1 REVERT JUMPDEST POP GAS STATICCALL ISZERO DUP1 ISZERO PUSH2 0xFED JUMPI RETURNDATASIZE PUSH1 0x0 DUP1 RETURNDATACOPY RETURNDATASIZE PUSH1 0x0 REVERT JUMPDEST POP POP POP POP PUSH1 0x40 MLOAD RETURNDATASIZE PUSH1 0x1F NOT PUSH1 0x1F DUP3 ADD AND DUP3 ADD DUP1 PUSH1 0x40 MSTORE POP DUP2 ADD SWAP1 PUSH2 0x1011 SWAP2 SWAP1 PUSH2 0x1DF0 JUMP JUMPDEST SWAP1 POP SWAP1 JUMP JUMPDEST PUSH32 0x0 PUSH20 0xFFFFFFFFFFFFFFFFFFFFFFFFFFFFFFFFFFFFFFFF AND CALLER PUSH20 0xFFFFFFFFFFFFFFFFFFFFFFFFFFFFFFFFFFFFFFFF AND EQ PUSH2 0x10A4 JUMPI PUSH1 0x40 MLOAD PUSH32 0x8C379A000000000000000000000000000000000000000000000000000000000 DUP2 MSTORE PUSH1 0x4 ADD PUSH2 0x109B SWAP1 PUSH2 0x25AB JUMP JUMPDEST PUSH1 0x40 MLOAD DUP1 SWAP2 SUB SWAP1 REVERT JUMPDEST PUSH2 0x10AE DUP3 DUP3 PUSH2 0x199E JUMP JUMPDEST POP POP JUMP JUMPDEST PUSH1 0x0 DUP1 PUSH1 0x0 SWAP1 POP PUSH1 0x0 JUMPDEST PUSH1 0x0 ISZERO ISZERO DUP3 ISZERO ISZERO EQ DUP1 ISZERO PUSH2 0x10E8 JUMPI POP PUSH1 0x1 PUSH1 0x0 DUP10 DUP2 MSTORE PUSH1 0x20 ADD SWAP1 DUP2 MSTORE PUSH1 0x20 ADD PUSH1 0x0 KECCAK256 PUSH1 0x3 ADD DUP1 SLOAD SWAP1 POP DUP2 LT JUMPDEST ISZERO PUSH2 0x1165 JUMPI DUP7 PUSH1 0x1 PUSH1 0x0 DUP11 DUP2 MSTORE PUSH1 0x20 ADD SWAP1 DUP2 MSTORE PUSH1 0x20 ADD PUSH1 0x0 KECCAK256 PUSH1 0x3 ADD DUP3 DUP2 SLOAD DUP2 LT PUSH2 0x113C JUMPI PUSH32 0x4E487B7100000000000000000000000000000000000000000000000000000000 PUSH1 0x0 MSTORE PUSH1 0x32 PUSH1 0x4 MSTORE PUSH1 0x24 PUSH1 0x0 REVERT JUMPDEST SWAP1 PUSH1 0x0 MSTORE PUSH1 0x20 PUSH1 0x0 KECCAK256 ADD SLOAD EQ ISZERO PUSH2 0x1152 JUMPI PUSH1 0x1 SWAP2 POP JUMPDEST DUP1 DUP1 PUSH2 0x115D SWAP1 PUSH2 0x29F2 JUMP JUMPDEST SWAP2 POP POP PUSH2 0x10BC JUMP JUMPDEST PUSH1 0x1 ISZERO ISZERO DUP3 ISZERO ISZERO EQ ISZERO PUSH2 0x1269 JUMPI DUP6 PUSH1 0x3 PUSH1 0x0 DUP10 DUP2 MSTORE PUSH1 0x20 ADD SWAP1 DUP2 MSTORE PUSH1 0x20 ADD PUSH1 0x0 KECCAK256 PUSH1 0x4 ADD SWAP1 DUP1 MLOAD SWAP1 PUSH1 0x20 ADD SWAP1 PUSH2 0x119C SWAP3 SWAP2 SWAP1 PUSH2 0x1BB6 JUMP JUMPDEST POP PUSH1 0x1 PUSH1 0x3 PUSH1 0x0 DUP10 DUP2 MSTORE PUSH1 0x20 ADD SWAP1 DUP2 MSTORE PUSH1 0x20 ADD PUSH1 0x0 KECCAK256 PUSH1 0x5 ADD PUSH1 0x0 PUSH2 0x100 EXP DUP2 SLOAD DUP2 PUSH1 0xFF MUL NOT AND SWAP1 DUP4 ISZERO ISZERO MUL OR SWAP1 SSTORE POP TIMESTAMP PUSH1 0x3 PUSH1 0x0 DUP10 DUP2 MSTORE PUSH1 0x20 ADD SWAP1 DUP2 MSTORE PUSH1 0x20 ADD PUSH1 0x0 KECCAK256 PUSH1 0x6 ADD DUP2 SWAP1 SSTORE POP DUP6 PUSH1 0x4 PUSH1 0x0 DUP10 DUP2 MSTORE PUSH1 0x20 ADD SWAP1 DUP2 MSTORE PUSH1 0x20 ADD PUSH1 0x0 KECCAK256 PUSH1 0x0 ADD SWAP1 DUP1 MLOAD SWAP1 PUSH1 0x20 ADD SWAP1 PUSH2 0x1211 SWAP3 SWAP2 SWAP1 PUSH2 0x1BB6 JUMP JUMPDEST POP DUP5 PUSH1 0x4 PUSH1 0x0 DUP10 DUP2 MSTORE PUSH1 0x20 ADD SWAP1 DUP2 MSTORE PUSH1 0x20 ADD PUSH1 0x0 KECCAK256 PUSH1 0x1 ADD SWAP1 DUP1 MLOAD SWAP1 PUSH1 0x20 ADD SWAP1 PUSH2 0x123C SWAP3 SWAP2 SWAP1 PUSH2 0x1BB6 JUMP JUMPDEST POP DUP4 PUSH1 0x4 PUSH1 0x0 DUP10 DUP2 MSTORE PUSH1 0x20 ADD SWAP1 DUP2 MSTORE PUSH1 0x20 ADD PUSH1 0x0 KECCAK256 PUSH1 0x2 ADD SWAP1 DUP1 MLOAD SWAP1 PUSH1 0x20 ADD SWAP1 PUSH2 0x1267 SWAP3 SWAP2 SWAP1 PUSH2 0x1BB6 JUMP JUMPDEST POP JUMPDEST DUP2 SWAP3 POP POP POP SWAP6 SWAP5 POP POP POP POP POP JUMP JUMPDEST PUSH1 0x0 PUSH1 0x1 PUSH1 0x0 DUP4 DUP2 MSTORE PUSH1 0x20 ADD SWAP1 DUP2 MSTORE PUSH1 0x20 ADD PUSH1 0x0 KECCAK256 PUSH1 0x4 ADD TIMESTAMP SWAP1 DUP1 PUSH1 0x1 DUP2 SLOAD ADD DUP1 DUP3 SSTORE DUP1 SWAP2 POP POP PUSH1 0x1 SWAP1 SUB SWAP1 PUSH1 0x0 MSTORE PUSH1 0x20 PUSH1 0x0 KECCAK256 ADD PUSH1 0x0 SWAP1 SWAP2 SWAP1 SWAP2 SWAP1 SWAP2 POP SSTORE PUSH2 0x12C4 PUSH1 0x5 SLOAD PUSH1 0x6 SLOAD PUSH2 0x19A9 JUMP JUMPDEST SWAP1 POP SWAP2 SWAP1 POP JUMP JUMPDEST PUSH1 0x1 PUSH1 0x0 DUP6 DUP2 MSTORE PUSH1 0x20 ADD SWAP1 DUP2 MSTORE PUSH1 0x20 ADD PUSH1 0x0 KECCAK256 PUSH1 0x2 ADD PUSH1 0x0 SWAP1 SLOAD SWAP1 PUSH2 0x100 EXP SWAP1 DIV PUSH1 0xFF AND ISZERO PUSH2 0x132F JUMPI PUSH1 0x40 MLOAD PUSH32 0x8C379A000000000000000000000000000000000000000000000000000000000 DUP2 MSTORE PUSH1 0x4 ADD PUSH2 0x1326 SWAP1 PUSH2 0x25CB JUMP JUMPDEST PUSH1 0x40 MLOAD DUP1 SWAP2 SUB SWAP1 REVERT JUMPDEST PUSH1 0x60 PUSH1 0x40 MLOAD DUP1 PUSH1 0xA0 ADD PUSH1 0x40 MSTORE DUP1 DUP6 DUP2 MSTORE PUSH1 0x20 ADD DUP5 DUP2 MSTORE PUSH1 0x20 ADD PUSH1 0x1 ISZERO ISZERO DUP2 MSTORE PUSH1 0x20 ADD DUP3 DUP2 MSTORE PUSH1 0x20 ADD DUP3 DUP2 MSTORE POP PUSH1 0x1 PUSH1 0x0 DUP8 DUP2 MSTORE PUSH1 0x20 ADD SWAP1 DUP2 MSTORE PUSH1 0x20 ADD PUSH1 0x0 KECCAK256 PUSH1 0x0 DUP3 ADD MLOAD DUP2 PUSH1 0x0 ADD SWAP1 DUP1 MLOAD SWAP1 PUSH1 0x20 ADD SWAP1 PUSH2 0x138A SWAP3 SWAP2 SWAP1 PUSH2 0x1BB6 JUMP JUMPDEST POP PUSH1 0x20 DUP3 ADD MLOAD DUP2 PUSH1 0x1 ADD SWAP1 DUP1 MLOAD SWAP1 PUSH1 0x20 ADD SWAP1 PUSH2 0x13A7 SWAP3 SWAP2 SWAP1 PUSH2 0x1BB6 JUMP JUMPDEST POP PUSH1 0x40 DUP3 ADD MLOAD DUP2 PUSH1 0x2 ADD PUSH1 0x0 PUSH2 0x100 EXP DUP2 SLOAD DUP2 PUSH1 0xFF MUL NOT AND SWAP1 DUP4 ISZERO ISZERO MUL OR SWAP1 SSTORE POP PUSH1 0x60 DUP3 ADD MLOAD DUP2 PUSH1 0x3 ADD SWAP1 DUP1 MLOAD SWAP1 PUSH1 0x20 ADD SWAP1 PUSH2 0x13E4 SWAP3 SWAP2 SWAP1 PUSH2 0x1C3C JUMP JUMPDEST POP PUSH1 0x80 DUP3 ADD MLOAD DUP2 PUSH1 0x4 ADD SWAP1 DUP1 MLOAD SWAP1 PUSH1 0x20 ADD SWAP1 PUSH2 0x1401 SWAP3 SWAP2 SWAP1 PUSH2 0x1C3C JUMP JUMPDEST POP SWAP1 POP POP PUSH1 0x40 MLOAD DUP1 PUSH1 0x20 ADD PUSH1 0x40 MSTORE DUP1 DUP7 DUP2 MSTORE POP PUSH1 0x2 PUSH1 0x0 DUP5 DUP2 MSTORE PUSH1 0x20 ADD SWAP1 DUP2 MSTORE PUSH1 0x20 ADD PUSH1 0x0 KECCAK256 PUSH1 0x0 DUP3 ADD MLOAD DUP2 PUSH1 0x0 ADD SSTORE SWAP1 POP POP POP POP POP POP POP JUMP JUMPDEST PUSH1 0x0 PUSH1 0x60 PUSH1 0x0 DUP1 PUSH1 0x60 PUSH1 0x0 DUP1 PUSH1 0x3 PUSH1 0x0 DUP10 DUP2 MSTORE PUSH1 0x20 ADD SWAP1 DUP2 MSTORE PUSH1 0x20 ADD PUSH1 0x0 KECCAK256 PUSH1 0x0 ADD SLOAD PUSH1 0x3 PUSH1 0x0 DUP11 DUP2 MSTORE PUSH1 0x20 ADD SWAP1 DUP2 MSTORE PUSH1 0x20 ADD PUSH1 0x0 KECCAK256 PUSH1 0x1 ADD PUSH1 0x3 PUSH1 0x0 DUP12 DUP2 MSTORE PUSH1 0x20 ADD SWAP1 DUP2 MSTORE PUSH1 0x20 ADD PUSH1 0x0 KECCAK256 PUSH1 0x2 ADD SLOAD PUSH1 0x3 PUSH1 0x0 DUP13 DUP2 MSTORE PUSH1 0x20 ADD SWAP1 DUP2 MSTORE PUSH1 0x20 ADD PUSH1 0x0 KECCAK256 PUSH1 0x3 ADD SLOAD PUSH1 0x3 PUSH1 0x0 DUP14 DUP2 MSTORE PUSH1 0x20 ADD SWAP1 DUP2 MSTORE PUSH1 0x20 ADD PUSH1 0x0 KECCAK256 PUSH1 0x4 ADD PUSH1 0x3 PUSH1 0x0 DUP15 DUP2 MSTORE PUSH1 0x20 ADD SWAP1 DUP2 MSTORE PUSH1 0x20 ADD PUSH1 0x0 KECCAK256 PUSH1 0x5 ADD PUSH1 0x0 SWAP1 SLOAD SWAP1 PUSH2 0x100 EXP SWAP1 DIV PUSH1 0xFF AND PUSH1 0x3 PUSH1 0x0 DUP16 DUP2 MSTORE PUSH1 0x20 ADD SWAP1 DUP2 MSTORE PUSH1 0x20 ADD PUSH1 0x0 KECCAK256 PUSH1 0x6 ADD SLOAD DUP6 DUP1 SLOAD PUSH2 0x14FF SWAP1 PUSH2 0x29C0 JUMP JUMPDEST DUP1 PUSH1 0x1F ADD PUSH1 0x20 DUP1 SWAP2 DIV MUL PUSH1 0x20 ADD PUSH1 0x40 MLOAD SWAP1 DUP2 ADD PUSH1 0x40 MSTORE DUP1 SWAP3 SWAP2 SWAP1 DUP2 DUP2 MSTORE PUSH1 0x20 ADD DUP3 DUP1 SLOAD PUSH2 0x152B SWAP1 PUSH2 0x29C0 JUMP JUMPDEST DUP1 ISZERO PUSH2 0x1578 JUMPI DUP1 PUSH1 0x1F LT PUSH2 0x154D JUMPI PUSH2 0x100 DUP1 DUP4 SLOAD DIV MUL DUP4 MSTORE SWAP2 PUSH1 0x20 ADD SWAP2 PUSH2 0x1578 JUMP JUMPDEST DUP3 ADD SWAP2 SWAP1 PUSH1 0x0 MSTORE PUSH1 0x20 PUSH1 0x0 KECCAK256 SWAP1 JUMPDEST DUP2 SLOAD DUP2 MSTORE SWAP1 PUSH1 0x1 ADD SWAP1 PUSH1 0x20 ADD DUP1 DUP4 GT PUSH2 0x155B JUMPI DUP3 SWAP1 SUB PUSH1 0x1F AND DUP3 ADD SWAP2 JUMPDEST POP POP POP POP POP SWAP6 POP DUP3 DUP1 SLOAD PUSH2 0x158B SWAP1 PUSH2 0x29C0 JUMP JUMPDEST DUP1 PUSH1 0x1F ADD PUSH1 0x20 DUP1 SWAP2 DIV MUL PUSH1 0x20 ADD PUSH1 0x40 MLOAD SWAP1 DUP2 ADD PUSH1 0x40 MSTORE DUP1 SWAP3 SWAP2 SWAP1 DUP2 DUP2 MSTORE PUSH1 0x20 ADD DUP3 DUP1 SLOAD PUSH2 0x15B7 SWAP1 PUSH2 0x29C0 JUMP JUMPDEST DUP1 ISZERO PUSH2 0x1604 JUMPI DUP1 PUSH1 0x1F LT PUSH2 0x15D9 JUMPI PUSH2 0x100 DUP1 DUP4 SLOAD DIV MUL DUP4 MSTORE SWAP2 PUSH1 0x20 ADD SWAP2 PUSH2 0x1604 JUMP JUMPDEST DUP3 ADD SWAP2 SWAP1 PUSH1 0x0 MSTORE PUSH1 0x20 PUSH1 0x0 KECCAK256 SWAP1 JUMPDEST DUP2 SLOAD DUP2 MSTORE SWAP1 PUSH1 0x1 ADD SWAP1 PUSH1 0x20 ADD DUP1 DUP4 GT PUSH2 0x15E7 JUMPI DUP3 SWAP1 SUB PUSH1 0x1F AND DUP3 ADD SWAP2 JUMPDEST POP POP POP POP POP SWAP3 POP SWAP7 POP SWAP7 POP SWAP7 POP SWAP7 POP SWAP7 POP SWAP7 POP SWAP7 POP SWAP2 SWAP4 SWAP6 SWAP8 SWAP1 SWAP3 SWAP5 SWAP7 POP JUMP JUMPDEST PUSH1 0x60 PUSH1 0xB SLOAD PUSH8 0xFFFFFFFFFFFFFFFF DUP2 GT ISZERO PUSH2 0x1668 JUMPI PUSH32 0x4E487B7100000000000000000000000000000000000000000000000000000000 PUSH1 0x0 MSTORE PUSH1 0x41 PUSH1 0x4 MSTORE PUSH1 0x24 PUSH1 0x0 REVERT JUMPDEST PUSH1 0x40 MLOAD SWAP1 DUP1 DUP3 MSTORE DUP1 PUSH1 0x20 MUL PUSH1 0x20 ADD DUP3 ADD PUSH1 0x40 MSTORE DUP1 ISZERO PUSH2 0x1696 JUMPI DUP2 PUSH1 0x20 ADD PUSH1 0x20 DUP3 MUL DUP1 CALLDATASIZE DUP4 CALLDATACOPY DUP1 DUP3 ADD SWAP2 POP POP SWAP1 POP JUMPDEST POP SWAP1 POP PUSH1 0x0 JUMPDEST PUSH1 0xB SLOAD DUP2 LT ISZERO PUSH2 0x1738 JUMPI PUSH1 0x64 PUSH1 0x7 SLOAD DUP3 PUSH1 0x40 MLOAD PUSH1 0x20 ADD PUSH2 0x16BD SWAP3 SWAP2 SWAP1 PUSH2 0x2683 JUMP JUMPDEST PUSH1 0x40 MLOAD PUSH1 0x20 DUP2 DUP4 SUB SUB DUP2 MSTORE SWAP1 PUSH1 0x40 MSTORE DUP1 MLOAD SWAP1 PUSH1 0x20 ADD KECCAK256 PUSH1 0x0 SHR PUSH2 0x16E0 SWAP2 SWAP1 PUSH2 0x2A73 JUMP JUMPDEST DUP3 DUP3 DUP2 MLOAD DUP2 LT PUSH2 0x1719 JUMPI PUSH32 0x4E487B7100000000000000000000000000000000000000000000000000000000 PUSH1 0x0 MSTORE PUSH1 0x32 PUSH1 0x4 MSTORE PUSH1 0x24 PUSH1 0x0 REVERT JUMPDEST PUSH1 0x20 MUL PUSH1 0x20 ADD ADD DUP2 DUP2 MSTORE POP POP DUP1 DUP1 PUSH2 0x1730 SWAP1 PUSH2 0x29F2 JUMP JUMPDEST SWAP2 POP POP PUSH2 0x169C JUMP JUMPDEST POP SWAP1 JUMP JUMPDEST PUSH1 0x0 DUP1 DUP3 TIMESTAMP CALLER PUSH1 0x8 SLOAD PUSH1 0x40 MLOAD PUSH1 0x20 ADD PUSH2 0x1757 SWAP4 SWAP3 SWAP2 SWAP1 PUSH2 0x23E1 JUMP JUMPDEST PUSH1 0x40 MLOAD PUSH1 0x20 DUP2 DUP4 SUB SUB DUP2 MSTORE SWAP1 PUSH1 0x40 MSTORE DUP1 MLOAD SWAP1 PUSH1 0x20 ADD KECCAK256 PUSH1 0x0 SHR PUSH2 0x177A SWAP2 SWAP1 PUSH2 0x2A73 JUMP JUMPDEST SWAP1 POP PUSH1 0x8 PUSH1 0x0 DUP2 SLOAD DUP1 SWAP3 SWAP2 SWAP1 PUSH2 0x178F SWAP1 PUSH2 0x29F2 JUMP JUMPDEST SWAP2 SWAP1 POP SSTORE POP DUP1 SWAP2 POP POP SWAP2 SWAP1 POP JUMP JUMPDEST PUSH1 0x60 PUSH1 0x0 DUP3 EQ ISZERO PUSH2 0x17E5 JUMPI PUSH1 0x40 MLOAD DUP1 PUSH1 0x40 ADD PUSH1 0x40 MSTORE DUP1 PUSH1 0x1 DUP2 MSTORE PUSH1 0x20 ADD PUSH32 0x3000000000000000000000000000000000000000000000000000000000000000 DUP2 MSTORE POP SWAP1 POP PUSH2 0x196D JUMP JUMPDEST PUSH1 0x0 DUP3 SWAP1 POP PUSH1 0x0 JUMPDEST PUSH1 0x0 DUP3 EQ PUSH2 0x1817 JUMPI DUP1 DUP1 PUSH2 0x1800 SWAP1 PUSH2 0x29F2 JUMP JUMPDEST SWAP2 POP POP PUSH1 0xA DUP3 PUSH2 0x1810 SWAP2 SWAP1 PUSH2 0x2860 JUMP JUMPDEST SWAP2 POP PUSH2 0x17ED JUMP JUMPDEST PUSH1 0x0 DUP2 PUSH8 0xFFFFFFFFFFFFFFFF DUP2 GT ISZERO PUSH2 0x1859 JUMPI PUSH32 0x4E487B7100000000000000000000000000000000000000000000000000000000 PUSH1 0x0 MSTORE PUSH1 0x41 PUSH1 0x4 MSTORE PUSH1 0x24 PUSH1 0x0 REVERT JUMPDEST PUSH1 0x40 MLOAD SWAP1 DUP1 DUP3 MSTORE DUP1 PUSH1 0x1F ADD PUSH1 0x1F NOT AND PUSH1 0x20 ADD DUP3 ADD PUSH1 0x40 MSTORE DUP1 ISZERO PUSH2 0x188B JUMPI DUP2 PUSH1 0x20 ADD PUSH1 0x1 DUP3 MUL DUP1 CALLDATASIZE DUP4 CALLDATACOPY DUP1 DUP3 ADD SWAP2 POP POP SWAP1 POP JUMPDEST POP SWAP1 POP PUSH1 0x0 DUP3 SWAP1 POP JUMPDEST PUSH1 0x0 DUP7 EQ PUSH2 0x1965 JUMPI PUSH1 0x1 DUP2 PUSH2 0x18A9 SWAP2 SWAP1 PUSH2 0x28EB JUMP JUMPDEST SWAP1 POP PUSH1 0x0 PUSH1 0xA DUP1 DUP9 PUSH2 0x18BB SWAP2 SWAP1 PUSH2 0x2860 JUMP JUMPDEST PUSH2 0x18C5 SWAP2 SWAP1 PUSH2 0x2891 JUMP JUMPDEST DUP8 PUSH2 0x18D0 SWAP2 SWAP1 PUSH2 0x28EB JUMP JUMPDEST PUSH1 0x30 PUSH2 0x18DC SWAP2 SWAP1 PUSH2 0x2829 JUMP JUMPDEST SWAP1 POP PUSH1 0x0 DUP2 PUSH1 0xF8 SHL SWAP1 POP DUP1 DUP5 DUP5 DUP2 MLOAD DUP2 LT PUSH2 0x1920 JUMPI PUSH32 0x4E487B7100000000000000000000000000000000000000000000000000000000 PUSH1 0x0 MSTORE PUSH1 0x32 PUSH1 0x4 MSTORE PUSH1 0x24 PUSH1 0x0 REVERT JUMPDEST PUSH1 0x20 ADD ADD SWAP1 PUSH31 0xFFFFFFFFFFFFFFFFFFFFFFFFFFFFFFFFFFFFFFFFFFFFFFFFFFFFFFFFFFFFFF NOT AND SWAP1 DUP2 PUSH1 0x0 BYTE SWAP1 MSTORE8 POP PUSH1 0xA DUP9 PUSH2 0x195C SWAP2 SWAP1 PUSH2 0x2860 JUMP JUMPDEST SWAP8 POP POP POP PUSH2 0x1894 JUMP JUMPDEST DUP2 SWAP5 POP POP POP POP POP JUMPDEST SWAP2 SWAP1 POP JUMP JUMPDEST PUSH1 0x60 DUP3 DUP3 PUSH1 0x40 MLOAD PUSH1 0x20 ADD PUSH2 0x1987 SWAP3 SWAP2 SWAP1 PUSH2 0x23BD JUMP JUMPDEST PUSH1 0x40 MLOAD PUSH1 0x20 DUP2 DUP4 SUB SUB DUP2 MSTORE SWAP1 PUSH1 0x40 MSTORE SWAP1 POP SWAP3 SWAP2 POP POP JUMP JUMPDEST DUP1 PUSH1 0x7 DUP2 SWAP1 SSTORE POP POP POP JUMP JUMPDEST PUSH1 0x0 PUSH32 0x0 PUSH20 0xFFFFFFFFFFFFFFFFFFFFFFFFFFFFFFFFFFFFFFFF AND PUSH4 0x4000AEA0 PUSH32 0x0 DUP5 DUP7 PUSH1 0x0 PUSH1 0x40 MLOAD PUSH1 0x20 ADD PUSH2 0x1A1D SWAP3 SWAP2 SWAP1 PUSH2 0x24F1 JUMP JUMPDEST PUSH1 0x40 MLOAD PUSH1 0x20 DUP2 DUP4 SUB SUB DUP2 MSTORE SWAP1 PUSH1 0x40 MSTORE PUSH1 0x40 MLOAD DUP5 PUSH4 0xFFFFFFFF AND PUSH1 0xE0 SHL DUP2 MSTORE PUSH1 0x4 ADD PUSH2 0x1A4A SWAP4 SWAP3 SWAP2 SWAP1 PUSH2 0x2439 JUMP JUMPDEST PUSH1 0x20 PUSH1 0x40 MLOAD DUP1 DUP4 SUB DUP2 PUSH1 0x0 DUP8 DUP1 EXTCODESIZE ISZERO DUP1 ISZERO PUSH2 0x1A64 JUMPI PUSH1 0x0 DUP1 REVERT JUMPDEST POP GAS CALL ISZERO DUP1 ISZERO PUSH2 0x1A78 JUMPI RETURNDATASIZE PUSH1 0x0 DUP1 RETURNDATACOPY RETURNDATASIZE PUSH1 0x0 REVERT JUMPDEST POP POP POP POP PUSH1 0x40 MLOAD RETURNDATASIZE PUSH1 0x1F NOT PUSH1 0x1F DUP3 ADD AND DUP3 ADD DUP1 PUSH1 0x40 MSTORE POP DUP2 ADD SWAP1 PUSH2 0x1A9C SWAP2 SWAP1 PUSH2 0x1D62 JUMP JUMPDEST POP PUSH1 0x0 PUSH2 0x1ABE DUP5 PUSH1 0x0 ADDRESS PUSH1 0x0 DUP1 DUP10 DUP2 MSTORE PUSH1 0x20 ADD SWAP1 DUP2 MSTORE PUSH1 0x20 ADD PUSH1 0x0 KECCAK256 SLOAD PUSH2 0x1B08 JUMP JUMPDEST SWAP1 POP PUSH1 0x1 PUSH1 0x0 DUP1 DUP7 DUP2 MSTORE PUSH1 0x20 ADD SWAP1 DUP2 MSTORE PUSH1 0x20 ADD PUSH1 0x0 KECCAK256 SLOAD PUSH2 0x1ADF SWAP2 SWAP1 PUSH2 0x27D3 JUMP JUMPDEST PUSH1 0x0 DUP1 DUP7 DUP2 MSTORE PUSH1 0x20 ADD SWAP1 DUP2 MSTORE PUSH1 0x20 ADD PUSH1 0x0 KECCAK256 DUP2 SWAP1 SSTORE POP PUSH2 0x1AFF DUP5 DUP3 PUSH2 0x1B44 JUMP JUMPDEST SWAP2 POP POP SWAP3 SWAP2 POP POP JUMP JUMPDEST PUSH1 0x0 DUP5 DUP5 DUP5 DUP5 PUSH1 0x40 MLOAD PUSH1 0x20 ADD PUSH2 0x1B21 SWAP5 SWAP4 SWAP3 SWAP2 SWAP1 PUSH2 0x251A JUMP JUMPDEST PUSH1 0x40 MLOAD PUSH1 0x20 DUP2 DUP4 SUB SUB DUP2 MSTORE SWAP1 PUSH1 0x40 MSTORE DUP1 MLOAD SWAP1 PUSH1 0x20 ADD KECCAK256 PUSH1 0x0 SHR SWAP1 POP SWAP5 SWAP4 POP POP POP POP JUMP JUMPDEST PUSH1 0x0 DUP3 DUP3 PUSH1 0x40 MLOAD PUSH1 0x20 ADD PUSH2 0x1B59 SWAP3 SWAP2 SWAP1 PUSH2 0x2391 JUMP JUMPDEST PUSH1 0x40 MLOAD PUSH1 0x20 DUP2 DUP4 SUB SUB DUP2 MSTORE SWAP1 PUSH1 0x40 MSTORE DUP1 MLOAD SWAP1 PUSH1 0x20 ADD KECCAK256 SWAP1 POP SWAP3 SWAP2 POP POP JUMP JUMPDEST PUSH1 0x40 MLOAD DUP1 PUSH1 0xE0 ADD PUSH1 0x40 MSTORE DUP1 PUSH1 0x0 DUP2 MSTORE PUSH1 0x20 ADD PUSH1 0x60 DUP2 MSTORE PUSH1 0x20 ADD PUSH1 0x0 DUP2 MSTORE PUSH1 0x20 ADD PUSH1 0x0 DUP2 MSTORE PUSH1 0x20 ADD PUSH1 0x60 DUP2 MSTORE PUSH1 0x20 ADD PUSH1 0x0 ISZERO ISZERO DUP2 MSTORE PUSH1 0x20 ADD PUSH1 0x0 DUP2 MSTORE POP SWAP1 JUMP JUMPDEST DUP3 DUP1 SLOAD PUSH2 0x1BC2 SWAP1 PUSH2 0x29C0 JUMP JUMPDEST SWAP1 PUSH1 0x0 MSTORE PUSH1 0x20 PUSH1 0x0 KECCAK256 SWAP1 PUSH1 0x1F ADD PUSH1 0x20 SWAP1 DIV DUP2 ADD SWAP3 DUP3 PUSH2 0x1BE4 JUMPI PUSH1 0x0 DUP6 SSTORE PUSH2 0x1C2B JUMP JUMPDEST DUP3 PUSH1 0x1F LT PUSH2 0x1BFD JUMPI DUP1 MLOAD PUSH1 0xFF NOT AND DUP4 DUP1 ADD OR DUP6 SSTORE PUSH2 0x1C2B JUMP JUMPDEST DUP3 DUP1 ADD PUSH1 0x1 ADD DUP6 SSTORE DUP3 ISZERO PUSH2 0x1C2B JUMPI SWAP2 DUP3 ADD JUMPDEST DUP3 DUP2 GT ISZERO PUSH2 0x1C2A JUMPI DUP3 MLOAD DUP3 SSTORE SWAP2 PUSH1 0x20 ADD SWAP2 SWAP1 PUSH1 0x1 ADD SWAP1 PUSH2 0x1C0F JUMP JUMPDEST JUMPDEST POP SWAP1 POP PUSH2 0x1C38 SWAP2 SWAP1 PUSH2 0x1C89 JUMP JUMPDEST POP SWAP1 JUMP JUMPDEST DUP3 DUP1 SLOAD DUP3 DUP3 SSTORE SWAP1 PUSH1 0x0 MSTORE PUSH1 0x20 PUSH1 0x0 KECCAK256 SWAP1 DUP2 ADD SWAP3 DUP3 ISZERO PUSH2 0x1C78 JUMPI SWAP2 PUSH1 0x20 MUL DUP3 ADD JUMPDEST DUP3 DUP2 GT ISZERO PUSH2 0x1C77 JUMPI DUP3 MLOAD DUP3 SSTORE SWAP2 PUSH1 0x20 ADD SWAP2 SWAP1 PUSH1 0x1 ADD SWAP1 PUSH2 0x1C5C JUMP JUMPDEST JUMPDEST POP SWAP1 POP PUSH2 0x1C85 SWAP2 SWAP1 PUSH2 0x1C89 JUMP JUMPDEST POP SWAP1 JUMP JUMPDEST JUMPDEST DUP1 DUP3 GT ISZERO PUSH2 0x1CA2 JUMPI PUSH1 0x0 DUP2 PUSH1 0x0 SWAP1 SSTORE POP PUSH1 0x1 ADD PUSH2 0x1C8A JUMP JUMPDEST POP SWAP1 JUMP JUMPDEST PUSH1 0x0 PUSH2 0x1CB9 PUSH2 0x1CB4 DUP5 PUSH2 0x26DD JUMP JUMPDEST PUSH2 0x26AC JUMP JUMPDEST SWAP1 POP DUP3 DUP2 MSTORE PUSH1 0x20 DUP2 ADD DUP5 DUP5 DUP5 ADD GT ISZERO PUSH2 0x1CD1 JUMPI PUSH1 0x0 DUP1 REVERT JUMPDEST PUSH2 0x1CDC DUP5 DUP3 DUP6 PUSH2 0x297E JUMP JUMPDEST POP SWAP4 SWAP3 POP POP POP JUMP JUMPDEST PUSH1 0x0 DUP2 MLOAD SWAP1 POP PUSH2 0x1CF3 DUP2 PUSH2 0x2B7E JUMP JUMPDEST SWAP3 SWAP2 POP POP JUMP JUMPDEST PUSH1 0x0 DUP2 CALLDATALOAD SWAP1 POP PUSH2 0x1D08 DUP2 PUSH2 0x2B95 JUMP JUMPDEST SWAP3 SWAP2 POP POP JUMP JUMPDEST PUSH1 0x0 DUP3 PUSH1 0x1F DUP4 ADD SLT PUSH2 0x1D1F JUMPI PUSH1 0x0 DUP1 REVERT JUMPDEST DUP2 CALLDATALOAD PUSH2 0x1D2F DUP5 DUP3 PUSH1 0x20 DUP7 ADD PUSH2 0x1CA6 JUMP JUMPDEST SWAP2 POP POP SWAP3 SWAP2 POP POP JUMP JUMPDEST PUSH1 0x0 DUP2 CALLDATALOAD SWAP1 POP PUSH2 0x1D47 DUP2 PUSH2 0x2BAC JUMP JUMPDEST SWAP3 SWAP2 POP POP JUMP JUMPDEST PUSH1 0x0 DUP2 MLOAD SWAP1 POP PUSH2 0x1D5C DUP2 PUSH2 0x2BAC JUMP JUMPDEST SWAP3 SWAP2 POP POP JUMP JUMPDEST PUSH1 0x0 PUSH1 0x20 DUP3 DUP5 SUB SLT ISZERO PUSH2 0x1D74 JUMPI PUSH1 0x0 DUP1 REVERT JUMPDEST PUSH1 0x0 PUSH2 0x1D82 DUP5 DUP3 DUP6 ADD PUSH2 0x1CE4 JUMP JUMPDEST SWAP2 POP POP SWAP3 SWAP2 POP POP JUMP JUMPDEST PUSH1 0x0 DUP1 PUSH1 0x40 DUP4 DUP6 SUB SLT ISZERO PUSH2 0x1D9E JUMPI PUSH1 0x0 DUP1 REVERT JUMPDEST PUSH1 0x0 PUSH2 0x1DAC DUP6 DUP3 DUP7 ADD PUSH2 0x1CF9 JUMP JUMPDEST SWAP3 POP POP PUSH1 0x20 PUSH2 0x1DBD DUP6 DUP3 DUP7 ADD PUSH2 0x1D38 JUMP JUMPDEST SWAP2 POP POP SWAP3 POP SWAP3 SWAP1 POP JUMP JUMPDEST PUSH1 0x0 PUSH1 0x20 DUP3 DUP5 SUB SLT ISZERO PUSH2 0x1DD9 JUMPI PUSH1 0x0 DUP1 REVERT JUMPDEST PUSH1 0x0 PUSH2 0x1DE7 DUP5 DUP3 DUP6 ADD PUSH2 0x1D38 JUMP JUMPDEST SWAP2 POP POP SWAP3 SWAP2 POP POP JUMP JUMPDEST PUSH1 0x0 PUSH1 0x20 DUP3 DUP5 SUB SLT ISZERO PUSH2 0x1E02 JUMPI PUSH1 0x0 DUP1 REVERT JUMPDEST PUSH1 0x0 PUSH2 0x1E10 DUP5 DUP3 DUP6 ADD PUSH2 0x1D4D JUMP JUMPDEST SWAP2 POP POP SWAP3 SWAP2 POP POP JUMP JUMPDEST PUSH1 0x0 DUP1 PUSH1 0x0 DUP1 PUSH1 0x80 DUP6 DUP8 SUB SLT ISZERO PUSH2 0x1E2F JUMPI PUSH1 0x0 DUP1 REVERT JUMPDEST PUSH1 0x0 PUSH2 0x1E3D DUP8 DUP3 DUP9 ADD PUSH2 0x1D38 JUMP JUMPDEST SWAP5 POP POP PUSH1 0x20 DUP6 ADD CALLDATALOAD PUSH8 0xFFFFFFFFFFFFFFFF DUP2 GT ISZERO PUSH2 0x1E5A JUMPI PUSH1 0x0 DUP1 REVERT JUMPDEST PUSH2 0x1E66 DUP8 DUP3 DUP9 ADD PUSH2 0x1D0E JUMP JUMPDEST SWAP4 POP POP PUSH1 0x40 DUP6 ADD CALLDATALOAD PUSH8 0xFFFFFFFFFFFFFFFF DUP2 GT ISZERO PUSH2 0x1E83 JUMPI PUSH1 0x0 DUP1 REVERT JUMPDEST PUSH2 0x1E8F DUP8 DUP3 DUP9 ADD PUSH2 0x1D0E JUMP JUMPDEST SWAP3 POP POP PUSH1 0x60 PUSH2 0x1EA0 DUP8 DUP3 DUP9 ADD PUSH2 0x1D38 JUMP JUMPDEST SWAP2 POP POP SWAP3 SWAP6 SWAP2 SWAP5 POP SWAP3 POP JUMP JUMPDEST PUSH1 0x0 DUP1 PUSH1 0x0 DUP1 PUSH1 0x0 PUSH1 0xA0 DUP7 DUP9 SUB SLT ISZERO PUSH2 0x1EC4 JUMPI PUSH1 0x0 DUP1 REVERT JUMPDEST PUSH1 0x0 PUSH2 0x1ED2 DUP9 DUP3 DUP10 ADD PUSH2 0x1D38 JUMP JUMPDEST SWAP6 POP POP PUSH1 0x20 PUSH2 0x1EE3 DUP9 DUP3 DUP10 ADD PUSH2 0x1D38 JUMP JUMPDEST SWAP5 POP POP PUSH1 0x40 DUP7 ADD CALLDATALOAD PUSH8 0xFFFFFFFFFFFFFFFF DUP2 GT ISZERO PUSH2 0x1F00 JUMPI PUSH1 0x0 DUP1 REVERT JUMPDEST PUSH2 0x1F0C DUP9 DUP3 DUP10 ADD PUSH2 0x1D0E JUMP JUMPDEST SWAP4 POP POP PUSH1 0x60 DUP7 ADD CALLDATALOAD PUSH8 0xFFFFFFFFFFFFFFFF DUP2 GT ISZERO PUSH2 0x1F29 JUMPI PUSH1 0x0 DUP1 REVERT JUMPDEST PUSH2 0x1F35 DUP9 DUP3 DUP10 ADD PUSH2 0x1D0E JUMP JUMPDEST SWAP3 POP POP PUSH1 0x80 DUP7 ADD CALLDATALOAD PUSH8 0xFFFFFFFFFFFFFFFF DUP2 GT ISZERO PUSH2 0x1F52 JUMPI PUSH1 0x0 DUP1 REVERT JUMPDEST PUSH2 0x1F5E DUP9 DUP3 DUP10 ADD PUSH2 0x1D0E JUMP JUMPDEST SWAP2 POP POP SWAP3 SWAP6 POP SWAP3 SWAP6 SWAP1 SWAP4 POP JUMP JUMPDEST PUSH1 0x0 DUP1 PUSH1 0x0 DUP1 PUSH1 0x80 DUP6 DUP8 SUB SLT ISZERO PUSH2 0x1F81 JUMPI PUSH1 0x0 DUP1 REVERT JUMPDEST PUSH1 0x0 PUSH2 0x1F8F DUP8 DUP3 DUP9 ADD PUSH2 0x1D38 JUMP JUMPDEST SWAP5 POP POP PUSH1 0x20 PUSH2 0x1FA0 DUP8 DUP3 DUP9 ADD PUSH2 0x1D38 JUMP JUMPDEST SWAP4 POP POP PUSH1 0x40 PUSH2 0x1FB1 DUP8 DUP3 DUP9 ADD PUSH2 0x1D38 JUMP JUMPDEST SWAP3 POP POP PUSH1 0x60 PUSH2 0x1FC2 DUP8 DUP3 DUP9 ADD PUSH2 0x1D38 JUMP JUMPDEST SWAP2 POP POP SWAP3 SWAP6 SWAP2 SWAP5 POP SWAP3 POP JUMP JUMPDEST PUSH1 0x0 PUSH2 0x1FDA DUP4 DUP4 PUSH2 0x22B9 JUMP JUMPDEST SWAP1 POP SWAP3 SWAP2 POP POP JUMP JUMPDEST PUSH1 0x0 PUSH2 0x1FEE DUP4 DUP4 PUSH2 0x235C JUMP JUMPDEST PUSH1 0x20 DUP4 ADD SWAP1 POP SWAP3 SWAP2 POP POP JUMP JUMPDEST PUSH2 0x2003 DUP2 PUSH2 0x291F JUMP JUMPDEST DUP3 MSTORE POP POP JUMP JUMPDEST PUSH2 0x201A PUSH2 0x2015 DUP3 PUSH2 0x291F JUMP JUMPDEST PUSH2 0x2A3B JUMP JUMPDEST DUP3 MSTORE POP POP JUMP JUMPDEST PUSH1 0x0 PUSH2 0x202B DUP3 PUSH2 0x272D JUMP JUMPDEST PUSH2 0x2035 DUP2 DUP6 PUSH2 0x2773 JUMP JUMPDEST SWAP4 POP DUP4 PUSH1 0x20 DUP3 MUL DUP6 ADD PUSH2 0x2047 DUP6 PUSH2 0x270D JUMP JUMPDEST DUP1 PUSH1 0x0 JUMPDEST DUP6 DUP2 LT ISZERO PUSH2 0x2083 JUMPI DUP5 DUP5 SUB DUP10 MSTORE DUP2 MLOAD PUSH2 0x2064 DUP6 DUP3 PUSH2 0x1FCE JUMP JUMPDEST SWAP5 POP PUSH2 0x206F DUP4 PUSH2 0x2759 JUMP JUMPDEST SWAP3 POP PUSH1 0x20 DUP11 ADD SWAP10 POP POP PUSH1 0x1 DUP2 ADD SWAP1 POP PUSH2 0x204B JUMP JUMPDEST POP DUP3 SWAP8 POP DUP8 SWAP6 POP POP POP POP POP POP SWAP3 SWAP2 POP POP JUMP JUMPDEST PUSH1 0x0 PUSH2 0x20A0 DUP3 PUSH2 0x2738 JUMP JUMPDEST PUSH2 0x20AA DUP2 DUP6 PUSH2 0x2784 JUMP JUMPDEST SWAP4 POP PUSH2 0x20B5 DUP4 PUSH2 0x271D JUMP JUMPDEST DUP1 PUSH1 0x0 JUMPDEST DUP4 DUP2 LT ISZERO PUSH2 0x20E6 JUMPI DUP2 MLOAD PUSH2 0x20CD DUP9 DUP3 PUSH2 0x1FE2 JUMP JUMPDEST SWAP8 POP PUSH2 0x20D8 DUP4 PUSH2 0x2766 JUMP JUMPDEST SWAP3 POP POP PUSH1 0x1 DUP2 ADD SWAP1 POP PUSH2 0x20B9 JUMP JUMPDEST POP DUP6 SWAP4 POP POP POP POP SWAP3 SWAP2 POP POP JUMP JUMPDEST PUSH2 0x20FC DUP2 PUSH2 0x2931 JUMP JUMPDEST DUP3 MSTORE POP POP JUMP JUMPDEST PUSH2 0x210B DUP2 PUSH2 0x2931 JUMP JUMPDEST DUP3 MSTORE POP POP JUMP JUMPDEST PUSH2 0x211A DUP2 PUSH2 0x293D JUMP JUMPDEST DUP3 MSTORE POP POP JUMP JUMPDEST PUSH2 0x2131 PUSH2 0x212C DUP3 PUSH2 0x293D JUMP JUMPDEST PUSH2 0x2A4D JUMP JUMPDEST DUP3 MSTORE POP POP JUMP JUMPDEST PUSH1 0x0 PUSH2 0x2142 DUP3 PUSH2 0x2743 JUMP JUMPDEST PUSH2 0x214C DUP2 DUP6 PUSH2 0x2795 JUMP JUMPDEST SWAP4 POP PUSH2 0x215C DUP2 DUP6 PUSH1 0x20 DUP7 ADD PUSH2 0x298D JUMP JUMPDEST PUSH2 0x2165 DUP2 PUSH2 0x2B60 JUMP JUMPDEST DUP5 ADD SWAP2 POP POP SWAP3 SWAP2 POP POP JUMP JUMPDEST PUSH1 0x0 PUSH2 0x217B DUP3 PUSH2 0x274E JUMP JUMPDEST PUSH2 0x2185 DUP2 DUP6 PUSH2 0x27A6 JUMP JUMPDEST SWAP4 POP PUSH2 0x2195 DUP2 DUP6 PUSH1 0x20 DUP7 ADD PUSH2 0x298D JUMP JUMPDEST PUSH2 0x219E DUP2 PUSH2 0x2B60 JUMP JUMPDEST DUP5 ADD SWAP2 POP POP SWAP3 SWAP2 POP POP JUMP JUMPDEST PUSH1 0x0 PUSH2 0x21B4 DUP3 PUSH2 0x274E JUMP JUMPDEST PUSH2 0x21BE DUP2 DUP6 PUSH2 0x27B7 JUMP JUMPDEST SWAP4 POP PUSH2 0x21CE DUP2 DUP6 PUSH1 0x20 DUP7 ADD PUSH2 0x298D JUMP JUMPDEST PUSH2 0x21D7 DUP2 PUSH2 0x2B60 JUMP JUMPDEST DUP5 ADD SWAP2 POP POP SWAP3 SWAP2 POP POP JUMP JUMPDEST PUSH1 0x0 PUSH2 0x21ED DUP3 PUSH2 0x274E JUMP JUMPDEST PUSH2 0x21F7 DUP2 DUP6 PUSH2 0x27C8 JUMP JUMPDEST SWAP4 POP PUSH2 0x2207 DUP2 DUP6 PUSH1 0x20 DUP7 ADD PUSH2 0x298D JUMP JUMPDEST DUP1 DUP5 ADD SWAP2 POP POP SWAP3 SWAP2 POP POP JUMP JUMPDEST PUSH1 0x0 PUSH2 0x2220 PUSH1 0x1F DUP4 PUSH2 0x27B7 JUMP JUMPDEST SWAP2 POP PUSH32 0x4F6E6C7920565246436F6F7264696E61746F722063616E2066756C66696C6C00 PUSH1 0x0 DUP4 ADD MSTORE PUSH1 0x20 DUP3 ADD SWAP1 POP SWAP2 SWAP1 POP JUMP JUMPDEST PUSH1 0x0 PUSH2 0x2260 PUSH1 0x21 DUP4 PUSH2 0x27B7 JUMP JUMPDEST SWAP2 POP PUSH32 0x54686973204F5243494420697320616C72656164792072656769737465726564 PUSH1 0x0 DUP4 ADD MSTORE PUSH32 0x2E00000000000000000000000000000000000000000000000000000000000000 PUSH1 0x20 DUP4 ADD MSTORE PUSH1 0x40 DUP3 ADD SWAP1 POP SWAP2 SWAP1 POP JUMP JUMPDEST PUSH1 0x0 PUSH1 0xE0 DUP4 ADD PUSH1 0x0 DUP4 ADD MLOAD PUSH2 0x22D1 PUSH1 0x0 DUP7 ADD DUP3 PUSH2 0x235C JUMP JUMPDEST POP PUSH1 0x20 DUP4 ADD MLOAD DUP5 DUP3 SUB PUSH1 0x20 DUP7 ADD MSTORE PUSH2 0x22E9 DUP3 DUP3 PUSH2 0x2170 JUMP JUMPDEST SWAP2 POP POP PUSH1 0x40 DUP4 ADD MLOAD PUSH2 0x22FE PUSH1 0x40 DUP7 ADD DUP3 PUSH2 0x235C JUMP JUMPDEST POP PUSH1 0x60 DUP4 ADD MLOAD PUSH2 0x2311 PUSH1 0x60 DUP7 ADD DUP3 PUSH2 0x235C JUMP JUMPDEST POP PUSH1 0x80 DUP4 ADD MLOAD DUP5 DUP3 SUB PUSH1 0x80 DUP7 ADD MSTORE PUSH2 0x2329 DUP3 DUP3 PUSH2 0x2170 JUMP JUMPDEST SWAP2 POP POP PUSH1 0xA0 DUP4 ADD MLOAD PUSH2 0x233E PUSH1 0xA0 DUP7 ADD DUP3 PUSH2 0x20F3 JUMP JUMPDEST POP PUSH1 0xC0 DUP4 ADD MLOAD PUSH2 0x2351 PUSH1 0xC0 DUP7 ADD DUP3 PUSH2 0x235C JUMP JUMPDEST POP DUP1 SWAP2 POP POP SWAP3 SWAP2 POP POP JUMP JUMPDEST PUSH2 0x2365 DUP2 PUSH2 0x2967 JUMP JUMPDEST DUP3 MSTORE POP POP JUMP JUMPDEST PUSH2 0x2374 DUP2 PUSH2 0x2967 JUMP JUMPDEST DUP3 MSTORE POP POP JUMP JUMPDEST PUSH2 0x238B PUSH2 0x2386 DUP3 PUSH2 0x2967 JUMP JUMPDEST PUSH2 0x2A69 JUMP JUMPDEST DUP3 MSTORE POP POP JUMP JUMPDEST PUSH1 0x0 PUSH2 0x239D DUP3 DUP6 PUSH2 0x2120 JUMP JUMPDEST PUSH1 0x20 DUP3 ADD SWAP2 POP PUSH2 0x23AD DUP3 DUP5 PUSH2 0x237A JUMP JUMPDEST PUSH1 0x20 DUP3 ADD SWAP2 POP DUP2 SWAP1 POP SWAP4 SWAP3 POP POP POP JUMP JUMPDEST PUSH1 0x0 PUSH2 0x23C9 DUP3 DUP6 PUSH2 0x21E2 JUMP JUMPDEST SWAP2 POP PUSH2 0x23D5 DUP3 DUP5 PUSH2 0x21E2 JUMP JUMPDEST SWAP2 POP DUP2 SWAP1 POP SWAP4 SWAP3 POP POP POP JUMP JUMPDEST PUSH1 0x0 PUSH2 0x23ED DUP3 DUP7 PUSH2 0x237A JUMP JUMPDEST PUSH1 0x20 DUP3 ADD SWAP2 POP PUSH2 0x23FD DUP3 DUP6 PUSH2 0x2009 JUMP JUMPDEST PUSH1 0x14 DUP3 ADD SWAP2 POP PUSH2 0x240D DUP3 DUP5 PUSH2 0x237A JUMP JUMPDEST PUSH1 0x20 DUP3 ADD SWAP2 POP DUP2 SWAP1 POP SWAP5 SWAP4 POP POP POP POP JUMP JUMPDEST PUSH1 0x0 PUSH1 0x20 DUP3 ADD SWAP1 POP PUSH2 0x2433 PUSH1 0x0 DUP4 ADD DUP5 PUSH2 0x1FFA JUMP JUMPDEST SWAP3 SWAP2 POP POP JUMP JUMPDEST PUSH1 0x0 PUSH1 0x60 DUP3 ADD SWAP1 POP PUSH2 0x244E PUSH1 0x0 DUP4 ADD DUP7 PUSH2 0x1FFA JUMP JUMPDEST PUSH2 0x245B PUSH1 0x20 DUP4 ADD DUP6 PUSH2 0x236B JUMP JUMPDEST DUP2 DUP2 SUB PUSH1 0x40 DUP4 ADD MSTORE PUSH2 0x246D DUP2 DUP5 PUSH2 0x2137 JUMP JUMPDEST SWAP1 POP SWAP5 SWAP4 POP POP POP POP JUMP JUMPDEST PUSH1 0x0 PUSH1 0x20 DUP3 ADD SWAP1 POP DUP2 DUP2 SUB PUSH1 0x0 DUP4 ADD MSTORE PUSH2 0x2491 DUP2 DUP5 PUSH2 0x2020 JUMP JUMPDEST SWAP1 POP SWAP3 SWAP2 POP POP JUMP JUMPDEST PUSH1 0x0 PUSH1 0x20 DUP3 ADD SWAP1 POP DUP2 DUP2 SUB PUSH1 0x0 DUP4 ADD MSTORE PUSH2 0x24B3 DUP2 DUP5 PUSH2 0x2095 JUMP JUMPDEST SWAP1 POP SWAP3 SWAP2 POP POP JUMP JUMPDEST PUSH1 0x0 PUSH1 0x20 DUP3 ADD SWAP1 POP PUSH2 0x24D0 PUSH1 0x0 DUP4 ADD DUP5 PUSH2 0x2102 JUMP JUMPDEST SWAP3 SWAP2 POP POP JUMP JUMPDEST PUSH1 0x0 PUSH1 0x20 DUP3 ADD SWAP1 POP PUSH2 0x24EB PUSH1 0x0 DUP4 ADD DUP5 PUSH2 0x2111 JUMP JUMPDEST SWAP3 SWAP2 POP POP JUMP JUMPDEST PUSH1 0x0 PUSH1 0x40 DUP3 ADD SWAP1 POP PUSH2 0x2506 PUSH1 0x0 DUP4 ADD DUP6 PUSH2 0x2111 JUMP JUMPDEST PUSH2 0x2513 PUSH1 0x20 DUP4 ADD DUP5 PUSH2 0x236B JUMP JUMPDEST SWAP4 SWAP3 POP POP POP JUMP JUMPDEST PUSH1 0x0 PUSH1 0x80 DUP3 ADD SWAP1 POP PUSH2 0x252F PUSH1 0x0 DUP4 ADD DUP8 PUSH2 0x2111 JUMP JUMPDEST PUSH2 0x253C PUSH1 0x20 DUP4 ADD DUP7 PUSH2 0x236B JUMP JUMPDEST PUSH2 0x2549 PUSH1 0x40 DUP4 ADD DUP6 PUSH2 0x1FFA JUMP JUMPDEST PUSH2 0x2556 PUSH1 0x60 DUP4 ADD DUP5 PUSH2 0x236B JUMP JUMPDEST SWAP6 SWAP5 POP POP POP POP POP JUMP JUMPDEST PUSH1 0x0 PUSH1 0x60 DUP3 ADD SWAP1 POP DUP2 DUP2 SUB PUSH1 0x0 DUP4 ADD MSTORE PUSH2 0x2579 DUP2 DUP7 PUSH2 0x21A9 JUMP JUMPDEST SWAP1 POP DUP2 DUP2 SUB PUSH1 0x20 DUP4 ADD MSTORE PUSH2 0x258D DUP2 DUP6 PUSH2 0x21A9 JUMP JUMPDEST SWAP1 POP DUP2 DUP2 SUB PUSH1 0x40 DUP4 ADD MSTORE PUSH2 0x25A1 DUP2 DUP5 PUSH2 0x21A9 JUMP JUMPDEST SWAP1 POP SWAP5 SWAP4 POP POP POP POP JUMP JUMPDEST PUSH1 0x0 PUSH1 0x20 DUP3 ADD SWAP1 POP DUP2 DUP2 SUB PUSH1 0x0 DUP4 ADD MSTORE PUSH2 0x25C4 DUP2 PUSH2 0x2213 JUMP JUMPDEST SWAP1 POP SWAP2 SWAP1 POP JUMP JUMPDEST PUSH1 0x0 PUSH1 0x20 DUP3 ADD SWAP1 POP DUP2 DUP2 SUB PUSH1 0x0 DUP4 ADD MSTORE PUSH2 0x25E4 DUP2 PUSH2 0x2253 JUMP JUMPDEST SWAP1 POP SWAP2 SWAP1 POP JUMP JUMPDEST PUSH1 0x0 PUSH1 0x20 DUP3 ADD SWAP1 POP PUSH2 0x2600 PUSH1 0x0 DUP4 ADD DUP5 PUSH2 0x236B JUMP JUMPDEST SWAP3 SWAP2 POP POP JUMP JUMPDEST PUSH1 0x0 PUSH1 0xE0 DUP3 ADD SWAP1 POP PUSH2 0x261B PUSH1 0x0 DUP4 ADD DUP11 PUSH2 0x236B JUMP JUMPDEST DUP2 DUP2 SUB PUSH1 0x20 DUP4 ADD MSTORE PUSH2 0x262D DUP2 DUP10 PUSH2 0x21A9 JUMP JUMPDEST SWAP1 POP PUSH2 0x263C PUSH1 0x40 DUP4 ADD DUP9 PUSH2 0x236B JUMP JUMPDEST PUSH2 0x2649 PUSH1 0x60 DUP4 ADD DUP8 PUSH2 0x236B JUMP JUMPDEST DUP2 DUP2 SUB PUSH1 0x80 DUP4 ADD MSTORE PUSH2 0x265B DUP2 DUP7 PUSH2 0x21A9 JUMP JUMPDEST SWAP1 POP PUSH2 0x266A PUSH1 0xA0 DUP4 ADD DUP6 PUSH2 0x2102 JUMP JUMPDEST PUSH2 0x2677 PUSH1 0xC0 DUP4 ADD DUP5 PUSH2 0x236B JUMP JUMPDEST SWAP9 SWAP8 POP POP POP POP POP POP POP POP JUMP JUMPDEST PUSH1 0x0 PUSH1 0x40 DUP3 ADD SWAP1 POP PUSH2 0x2698 PUSH1 0x0 DUP4 ADD DUP6 PUSH2 0x236B JUMP JUMPDEST PUSH2 0x26A5 PUSH1 0x20 DUP4 ADD DUP5 PUSH2 0x236B JUMP JUMPDEST SWAP4 SWAP3 POP POP POP JUMP JUMPDEST PUSH1 0x0 PUSH1 0x40 MLOAD SWAP1 POP DUP2 DUP2 ADD DUP2 DUP2 LT PUSH8 0xFFFFFFFFFFFFFFFF DUP3 GT OR ISZERO PUSH2 0x26D3 JUMPI PUSH2 0x26D2 PUSH2 0x2B31 JUMP JUMPDEST JUMPDEST DUP1 PUSH1 0x40 MSTORE POP SWAP2 SWAP1 POP JUMP JUMPDEST PUSH1 0x0 PUSH8 0xFFFFFFFFFFFFFFFF DUP3 GT ISZERO PUSH2 0x26F8 JUMPI PUSH2 0x26F7 PUSH2 0x2B31 JUMP JUMPDEST JUMPDEST PUSH1 0x1F NOT PUSH1 0x1F DUP4 ADD AND SWAP1 POP PUSH1 0x20 DUP2 ADD SWAP1 POP SWAP2 SWAP1 POP JUMP JUMPDEST PUSH1 0x0 DUP2 SWAP1 POP PUSH1 0x20 DUP3 ADD SWAP1 POP SWAP2 SWAP1 POP JUMP JUMPDEST PUSH1 0x0 DUP2 SWAP1 POP PUSH1 0x20 DUP3 ADD SWAP1 POP SWAP2 SWAP1 POP JUMP JUMPDEST PUSH1 0x0 DUP2 MLOAD SWAP1 POP SWAP2 SWAP1 POP JUMP JUMPDEST PUSH1 0x0 DUP2 MLOAD SWAP1 POP SWAP2 SWAP1 POP JUMP JUMPDEST PUSH1 0x0 DUP2 MLOAD SWAP1 POP SWAP2 SWAP1 POP JUMP JUMPDEST PUSH1 0x0 DUP2 MLOAD SWAP1 POP SWAP2 SWAP1 POP JUMP JUMPDEST PUSH1 0x0 PUSH1 0x20 DUP3 ADD SWAP1 POP SWAP2 SWAP1 POP JUMP JUMPDEST PUSH1 0x0 PUSH1 0x20 DUP3 ADD SWAP1 POP SWAP2 SWAP1 POP JUMP JUMPDEST PUSH1 0x0 DUP3 DUP3 MSTORE PUSH1 0x20 DUP3 ADD SWAP1 POP SWAP3 SWAP2 POP POP JUMP JUMPDEST PUSH1 0x0 DUP3 DUP3 MSTORE PUSH1 0x20 DUP3 ADD SWAP1 POP SWAP3 SWAP2 POP POP JUMP JUMPDEST PUSH1 0x0 DUP3 DUP3 MSTORE PUSH1 0x20 DUP3 ADD SWAP1 POP SWAP3 SWAP2 POP POP JUMP JUMPDEST PUSH1 0x0 DUP3 DUP3 MSTORE PUSH1 0x20 DUP3 ADD SWAP1 POP SWAP3 SWAP2 POP POP JUMP JUMPDEST PUSH1 0x0 DUP3 DUP3 MSTORE PUSH1 0x20 DUP3 ADD SWAP1 POP SWAP3 SWAP2 POP POP JUMP JUMPDEST PUSH1 0x0 DUP2 SWAP1 POP SWAP3 SWAP2 POP POP JUMP JUMPDEST PUSH1 0x0 PUSH2 0x27DE DUP3 PUSH2 0x2967 JUMP JUMPDEST SWAP2 POP PUSH2 0x27E9 DUP4 PUSH2 0x2967 JUMP JUMPDEST SWAP3 POP DUP3 PUSH32 0xFFFFFFFFFFFFFFFFFFFFFFFFFFFFFFFFFFFFFFFFFFFFFFFFFFFFFFFFFFFFFFFF SUB DUP3 GT ISZERO PUSH2 0x281E JUMPI PUSH2 0x281D PUSH2 0x2AA4 JUMP JUMPDEST JUMPDEST DUP3 DUP3 ADD SWAP1 POP SWAP3 SWAP2 POP POP JUMP JUMPDEST PUSH1 0x0 PUSH2 0x2834 DUP3 PUSH2 0x2971 JUMP JUMPDEST SWAP2 POP PUSH2 0x283F DUP4 PUSH2 0x2971 JUMP JUMPDEST SWAP3 POP DUP3 PUSH1 0xFF SUB DUP3 GT ISZERO PUSH2 0x2855 JUMPI PUSH2 0x2854 PUSH2 0x2AA4 JUMP JUMPDEST JUMPDEST DUP3 DUP3 ADD SWAP1 POP SWAP3 SWAP2 POP POP JUMP JUMPDEST PUSH1 0x0 PUSH2 0x286B DUP3 PUSH2 0x2967 JUMP JUMPDEST SWAP2 POP PUSH2 0x2876 DUP4 PUSH2 0x2967 JUMP JUMPDEST SWAP3 POP DUP3 PUSH2 0x2886 JUMPI PUSH2 0x2885 PUSH2 0x2AD3 JUMP JUMPDEST JUMPDEST DUP3 DUP3 DIV SWAP1 POP SWAP3 SWAP2 POP POP JUMP JUMPDEST PUSH1 0x0 PUSH2 0x289C DUP3 PUSH2 0x2967 JUMP JUMPDEST SWAP2 POP PUSH2 0x28A7 DUP4 PUSH2 0x2967 JUMP JUMPDEST SWAP3 POP DUP2 PUSH32 0xFFFFFFFFFFFFFFFFFFFFFFFFFFFFFFFFFFFFFFFFFFFFFFFFFFFFFFFFFFFFFFFF DIV DUP4 GT DUP3 ISZERO ISZERO AND ISZERO PUSH2 0x28E0 JUMPI PUSH2 0x28DF PUSH2 0x2AA4 JUMP JUMPDEST JUMPDEST DUP3 DUP3 MUL SWAP1 POP SWAP3 SWAP2 POP POP JUMP JUMPDEST PUSH1 0x0 PUSH2 0x28F6 DUP3 PUSH2 0x2967 JUMP JUMPDEST SWAP2 POP PUSH2 0x2901 DUP4 PUSH2 0x2967 JUMP JUMPDEST SWAP3 POP DUP3 DUP3 LT ISZERO PUSH2 0x2914 JUMPI PUSH2 0x2913 PUSH2 0x2AA4 JUMP JUMPDEST JUMPDEST DUP3 DUP3 SUB SWAP1 POP SWAP3 SWAP2 POP POP JUMP JUMPDEST PUSH1 0x0 PUSH2 0x292A DUP3 PUSH2 0x2947 JUMP JUMPDEST SWAP1 POP SWAP2 SWAP1 POP JUMP JUMPDEST PUSH1 0x0 DUP2 ISZERO ISZERO SWAP1 POP SWAP2 SWAP1 POP JUMP JUMPDEST PUSH1 0x0 DUP2 SWAP1 POP SWAP2 SWAP1 POP JUMP JUMPDEST PUSH1 0x0 PUSH20 0xFFFFFFFFFFFFFFFFFFFFFFFFFFFFFFFFFFFFFFFF DUP3 AND SWAP1 POP SWAP2 SWAP1 POP JUMP JUMPDEST PUSH1 0x0 DUP2 SWAP1 POP SWAP2 SWAP1 POP JUMP JUMPDEST PUSH1 0x0 PUSH1 0xFF DUP3 AND SWAP1 POP SWAP2 SWAP1 POP JUMP JUMPDEST DUP3 DUP2 DUP4 CALLDATACOPY PUSH1 0x0 DUP4 DUP4 ADD MSTORE POP POP POP JUMP JUMPDEST PUSH1 0x0 JUMPDEST DUP4 DUP2 LT ISZERO PUSH2 0x29AB JUMPI DUP1 DUP3 ADD MLOAD DUP2 DUP5 ADD MSTORE PUSH1 0x20 DUP2 ADD SWAP1 POP PUSH2 0x2990 JUMP JUMPDEST DUP4 DUP2 GT ISZERO PUSH2 0x29BA JUMPI PUSH1 0x0 DUP5 DUP5 ADD MSTORE JUMPDEST POP POP POP POP JUMP JUMPDEST PUSH1 0x0 PUSH1 0x2 DUP3 DIV SWAP1 POP PUSH1 0x1 DUP3 AND DUP1 PUSH2 0x29D8 JUMPI PUSH1 0x7F DUP3 AND SWAP2 POP JUMPDEST PUSH1 0x20 DUP3 LT DUP2 EQ ISZERO PUSH2 0x29EC JUMPI PUSH2 0x29EB PUSH2 0x2B02 JUMP JUMPDEST JUMPDEST POP SWAP2 SWAP1 POP JUMP JUMPDEST PUSH1 0x0 PUSH2 0x29FD DUP3 PUSH2 0x2967 JUMP JUMPDEST SWAP2 POP PUSH32 0xFFFFFFFFFFFFFFFFFFFFFFFFFFFFFFFFFFFFFFFFFFFFFFFFFFFFFFFFFFFFFFFF DUP3 EQ ISZERO PUSH2 0x2A30 JUMPI PUSH2 0x2A2F PUSH2 0x2AA4 JUMP JUMPDEST JUMPDEST PUSH1 0x1 DUP3 ADD SWAP1 POP SWAP2 SWAP1 POP JUMP JUMPDEST PUSH1 0x0 PUSH2 0x2A46 DUP3 PUSH2 0x2A57 JUMP JUMPDEST SWAP1 POP SWAP2 SWAP1 POP JUMP JUMPDEST PUSH1 0x0 DUP2 SWAP1 POP SWAP2 SWAP1 POP JUMP JUMPDEST PUSH1 0x0 PUSH2 0x2A62 DUP3 PUSH2 0x2B71 JUMP JUMPDEST SWAP1 POP SWAP2 SWAP1 POP JUMP JUMPDEST PUSH1 0x0 DUP2 SWAP1 POP SWAP2 SWAP1 POP JUMP JUMPDEST PUSH1 0x0 PUSH2 0x2A7E DUP3 PUSH2 0x2967 JUMP JUMPDEST SWAP2 POP PUSH2 0x2A89 DUP4 PUSH2 0x2967 JUMP JUMPDEST SWAP3 POP DUP3 PUSH2 0x2A99 JUMPI PUSH2 0x2A98 PUSH2 0x2AD3 JUMP JUMPDEST JUMPDEST DUP3 DUP3 MOD SWAP1 POP SWAP3 SWAP2 POP POP JUMP JUMPDEST PUSH32 0x4E487B7100000000000000000000000000000000000000000000000000000000 PUSH1 0x0 MSTORE PUSH1 0x11 PUSH1 0x4 MSTORE PUSH1 0x24 PUSH1 0x0 REVERT JUMPDEST PUSH32 0x4E487B7100000000000000000000000000000000000000000000000000000000 PUSH1 0x0 MSTORE PUSH1 0x12 PUSH1 0x4 MSTORE PUSH1 0x24 PUSH1 0x0 REVERT JUMPDEST PUSH32 0x4E487B7100000000000000000000000000000000000000000000000000000000 PUSH1 0x0 MSTORE PUSH1 0x22 PUSH1 0x4 MSTORE PUSH1 0x24 PUSH1 0x0 REVERT JUMPDEST PUSH32 0x4E487B7100000000000000000000000000000000000000000000000000000000 PUSH1 0x0 MSTORE PUSH1 0x41 PUSH1 0x4 MSTORE PUSH1 0x24 PUSH1 0x0 REVERT JUMPDEST PUSH1 0x0 PUSH1 0x1F NOT PUSH1 0x1F DUP4 ADD AND SWAP1 POP SWAP2 SWAP1 POP JUMP JUMPDEST PUSH1 0x0 DUP2 PUSH1 0x60 SHL SWAP1 POP SWAP2 SWAP1 POP JUMP JUMPDEST PUSH2 0x2B87 DUP2 PUSH2 0x2931 JUMP JUMPDEST DUP2 EQ PUSH2 0x2B92 JUMPI PUSH1 0x0 DUP1 REVERT JUMPDEST POP JUMP JUMPDEST PUSH2 0x2B9E DUP2 PUSH2 0x293D JUMP JUMPDEST DUP2 EQ PUSH2 0x2BA9 JUMPI PUSH1 0x0 DUP1 REVERT JUMPDEST POP JUMP JUMPDEST PUSH2 0x2BB5 DUP2 PUSH2 0x2967 JUMP JUMPDEST DUP2 EQ PUSH2 0x2BC0 JUMPI PUSH1 0x0 DUP1 REVERT JUMPDEST POP JUMP INVALID LOG2 PUSH5 0x6970667358 0x22 SLT KECCAK256 0xB8 LOG3 PUSH16 0x56B2A70C7AC90C988B170D78C7109D07 0xEB SWAP12 0xE8 0xDB MOD 0xF SWAP3 STOP EXTCODEHASH BYTE DUP6 DUP13 MSIZE PUSH5 0x736F6C6343 STOP ADDMOD STOP STOP CALLER "
        },
        "methodIdentifiers": {
          "checkPass(uint256)": "0eea10b2",
          "createAInstance(uint256,uint256,uint256,uint256)": "7e8b7e3e",
          "createBInstance(uint256,uint256,uint256,uint256)": "8ed0fbe7",
          "getAllInstances(uint256)": "4dde53ab",
          "getDateNumber(uint256)": "070a6e95",
          "getHash(uint256)": "6b2fafa9",
          "getInstance(uint256)": "ebd348de",
          "getRandomNumber(uint256)": "b37217a4",
          "getRemainingLINK()": "8f006527",
          "randomResult()": "42619f66",
          "rawFulfillRandomness(bytes32,uint256)": "94985ddd",
          "setResearcher(uint256,string,string,uint256)": "db7bbdb3",
          "solveInstance(uint256,uint256,string,string,string)": "9878ca2c"
        }
      }
    }
  }
}