{
  "contracts/Generator.sol": {
    "Generator": {
      "abi": [
        {
          "inputs": [],
          "stateMutability": "nonpayable",
          "type": "constructor"
        },
        {
          "inputs": [
            {
              "internalType": "uint256",
              "name": "_secret",
              "type": "uint256"
            }
          ],
          "name": "checkPass",
          "outputs": [
            {
              "internalType": "bool",
              "name": "",
              "type": "bool"
            }
          ],
          "stateMutability": "view",
          "type": "function"
        },
        {
          "inputs": [
            {
              "internalType": "uint256",
              "name": "_p",
              "type": "uint256"
            },
            {
              "internalType": "uint256",
              "name": "_q",
              "type": "uint256"
            },
            {
              "internalType": "uint256",
              "name": "_secret",
              "type": "uint256"
            },
            {
              "internalType": "uint256",
              "name": "_numInstances",
              "type": "uint256"
            }
          ],
          "name": "createAInstance",
          "outputs": [],
          "stateMutability": "nonpayable",
          "type": "function"
        },
        {
          "inputs": [
            {
              "internalType": "uint256",
              "name": "_p",
              "type": "uint256"
            },
            {
              "internalType": "uint256",
              "name": "_q",
              "type": "uint256"
            },
            {
              "internalType": "uint256",
              "name": "_secret",
              "type": "uint256"
            },
            {
              "internalType": "uint256",
              "name": "_numInstances",
              "type": "uint256"
            }
          ],
          "name": "createBInstance",
          "outputs": [],
          "stateMutability": "nonpayable",
          "type": "function"
        },
        {
          "inputs": [
            {
              "internalType": "uint256",
              "name": "_orcid",
              "type": "uint256"
            }
          ],
          "name": "getAllInstances",
          "outputs": [
            {
              "components": [
                {
                  "internalType": "uint256",
                  "name": "id",
                  "type": "uint256"
                },
                {
                  "internalType": "string",
                  "name": "chain",
                  "type": "string"
                },
                {
                  "internalType": "uint256",
                  "name": "size",
                  "type": "uint256"
                },
                {
                  "internalType": "uint256",
                  "name": "dateCreated",
                  "type": "uint256"
                },
                {
                  "internalType": "string",
                  "name": "solution",
                  "type": "string"
                },
                {
                  "internalType": "bool",
                  "name": "solved",
                  "type": "bool"
                },
                {
                  "internalType": "uint256",
                  "name": "dateSolution",
                  "type": "uint256"
                }
              ],
              "internalType": "struct Generator.Instance[]",
              "name": "",
              "type": "tuple[]"
            }
          ],
          "stateMutability": "view",
          "type": "function"
        },
        {
          "inputs": [
            {
              "internalType": "uint256",
              "name": "_secret",
              "type": "uint256"
            }
          ],
          "name": "getDateNumber",
          "outputs": [
            {
              "internalType": "uint256[]",
              "name": "",
              "type": "uint256[]"
            }
          ],
          "stateMutability": "view",
          "type": "function"
        },
        {
          "inputs": [
            {
              "internalType": "uint256",
              "name": "_id",
              "type": "uint256"
            }
          ],
          "name": "getHash",
          "outputs": [
            {
              "internalType": "string",
              "name": "",
              "type": "string"
            },
            {
              "internalType": "string",
              "name": "",
              "type": "string"
            },
            {
              "internalType": "string",
              "name": "",
              "type": "string"
            }
          ],
          "stateMutability": "view",
          "type": "function"
        },
        {
          "inputs": [
            {
              "internalType": "uint256",
              "name": "_id",
              "type": "uint256"
            }
          ],
          "name": "getInstance",
          "outputs": [
            {
              "internalType": "uint256",
              "name": "",
              "type": "uint256"
            },
            {
              "internalType": "string",
              "name": "",
              "type": "string"
            },
            {
              "internalType": "uint256",
              "name": "",
              "type": "uint256"
            },
            {
              "internalType": "uint256",
              "name": "",
              "type": "uint256"
            },
            {
              "internalType": "string",
              "name": "",
              "type": "string"
            },
            {
              "internalType": "bool",
              "name": "",
              "type": "bool"
            },
            {
              "internalType": "uint256",
              "name": "",
              "type": "uint256"
            }
          ],
          "stateMutability": "view",
          "type": "function"
        },
        {
          "inputs": [
            {
              "internalType": "uint256",
              "name": "_secret",
              "type": "uint256"
            }
          ],
          "name": "getRandomNumber",
          "outputs": [
            {
              "internalType": "bytes32",
              "name": "requestId",
              "type": "bytes32"
            }
          ],
          "stateMutability": "nonpayable",
          "type": "function"
        },
        {
          "inputs": [],
          "name": "getRemainingLINK",
          "outputs": [
            {
              "internalType": "uint256",
              "name": "",
              "type": "uint256"
            }
          ],
          "stateMutability": "view",
          "type": "function"
        },
        {
          "inputs": [],
          "name": "randomResult",
          "outputs": [
            {
              "internalType": "uint256",
              "name": "",
              "type": "uint256"
            }
          ],
          "stateMutability": "view",
          "type": "function"
        },
        {
          "inputs": [
            {
              "internalType": "bytes32",
              "name": "requestId",
              "type": "bytes32"
            },
            {
              "internalType": "uint256",
              "name": "randomness",
              "type": "uint256"
            }
          ],
          "name": "rawFulfillRandomness",
          "outputs": [],
          "stateMutability": "nonpayable",
          "type": "function"
        },
        {
          "inputs": [
            {
              "internalType": "uint256",
              "name": "_secret",
              "type": "uint256"
            },
            {
              "internalType": "string",
              "name": "_name",
              "type": "string"
            },
            {
              "internalType": "string",
              "name": "_email",
              "type": "string"
            },
            {
              "internalType": "uint256",
              "name": "_orcid",
              "type": "uint256"
            }
          ],
          "name": "setResearcher",
          "outputs": [],
          "stateMutability": "nonpayable",
          "type": "function"
        },
        {
          "inputs": [
            {
              "internalType": "uint256",
              "name": "_secret",
              "type": "uint256"
            },
            {
              "internalType": "uint256",
              "name": "_id",
              "type": "uint256"
            },
            {
              "internalType": "string",
              "name": "_solution",
              "type": "string"
            },
            {
              "internalType": "string",
              "name": "_algorithm_hash",
              "type": "string"
            },
            {
              "internalType": "string",
              "name": "_hash_method",
              "type": "string"
            }
          ],
          "name": "solveInstance",
          "outputs": [
            {
              "internalType": "bool",
              "name": "",
              "type": "bool"
            }
          ],
          "stateMutability": "nonpayable",
          "type": "function"
        }
      ],
      "evm": {
        "bytecode": {
          "linkReferences": {},
          "object": "60c060405234801561001057600080fd5b5073dd3782915140c8f3b190b5d67eac6dc5760c46e973a36085f69e2889c224210f603d836748e7dc00888173ffffffffffffffffffffffffffffffffffffffff1660a08173ffffffffffffffffffffffffffffffffffffffff1660601b815250508073ffffffffffffffffffffffffffffffffffffffff1660808173ffffffffffffffffffffffffffffffffffffffff1660601b8152505050507f6c3699283bda56ad74f6b855546325b68d482e983852a7a82979cc4807b641f460001b60058190555067016345785d8a0000600681905550600060088190555060006009819055506003600a81905550610834600b8190555060805160601c60a05160601c612d6c610145600039600081816110180152611ad6015260008181610f6a0152818161127e0152611a9a0152612d6c6000f3fe608060405234801561001057600080fd5b50600436106100cf5760003560e01c80638ed0fbe71161008c5780639878ca2c116100665780639878ca2c14610226578063b37217a414610256578063db7bbdb314610286578063ebd348de146102a2576100cf565b80638ed0fbe7146101d05780638f006527146101ec57806394985ddd1461020a576100cf565b8063070a6e95146100d45780630eea10b21461010457806342619f66146101345780634dde53ab146101525780636b2fafa9146101825780637e8b7e3e146101b4575b600080fd5b6100ee60048036038101906100e99190611eb4565b6102d8565b6040516100fb91906125ec565b60405180910390f35b61011e60048036038101906101199190611eb4565b610346565b60405161012b919061260e565b60405180910390f35b61013c610373565b604051610149919061275e565b60405180910390f35b61016c60048036038101906101679190611eb4565b610379565b60405161017991906125ca565b60405180910390f35b61019c60048036038101906101979190611eb4565b610690565b6040516101ab939291906126b2565b60405180910390f35b6101ce60048036038101906101c99190612058565b610888565b005b6101ea60048036038101906101e59190612058565b610c55565b005b6101f4610f66565b604051610201919061275e565b60405180910390f35b610224600480360381019061021f9190611e78565b611016565b005b610240600480360381019061023b9190611f99565b6110b2565b60405161024d919061260e565b60405180910390f35b610270600480360381019061026b9190611eb4565b611277565b60405161027d9190612629565b60405180910390f35b6102a0600480360381019061029b9190611f06565b6113b8565b005b6102bc60048036038101906102b79190611eb4565b611528565b6040516102cf9796959493929190612779565b60405180910390f35b60606001600083815260200190815260200160002060040180548060200260200160405190810160405280929190818152602001828054801561033a57602002820191906000526020600020905b815481526020019060010190808311610326575b50505050509050919050565b60006001600083815260200190815260200160002060020160009054906101000a900460ff169050919050565b60075481565b60606000600260008481526020019081526020016000206000015490506000600160008381526020019081526020016000206003018054905067ffffffffffffffff8111156103f1577f4e487b7100000000000000000000000000000000000000000000000000000000600052604160045260246000fd5b60405190808252806020026020018201604052801561042a57816020015b610417611c64565b81526020019060019003908161040f5790505b50905060005b600160008481526020019081526020016000206003018054905081101561068557600360006001600086815260200190815260200160002060030183815481106104a3577f4e487b7100000000000000000000000000000000000000000000000000000000600052603260045260246000fd5b906000526020600020015481526020019081526020016000206040518060e0016040529081600082015481526020016001820180546104e190612b33565b80601f016020809104026020016040519081016040528092919081815260200182805461050d90612b33565b801561055a5780601f1061052f5761010080835404028352916020019161055a565b820191906000526020600020905b81548152906001019060200180831161053d57829003601f168201915b50505050508152602001600282015481526020016003820154815260200160048201805461058790612b33565b80601f01602080910402602001604051908101604052809291908181526020018280546105b390612b33565b80156106005780601f106105d557610100808354040283529160200191610600565b820191906000526020600020905b8154815290600101906020018083116105e357829003601f168201915b505050505081526020016005820160009054906101000a900460ff16151515158152602001600682015481525050828281518110610667577f4e487b7100000000000000000000000000000000000000000000000000000000600052603260045260246000fd5b6020026020010181905250808061067d90612b65565b915050610430565b508092505050919050565b60608060606004600085815260200190815260200160002060000160046000868152602001908152602001600020600101600460008781526020019081526020016000206002018280546106e390612b33565b80601f016020809104026020016040519081016040528092919081815260200182805461070f90612b33565b801561075c5780601f106107315761010080835404028352916020019161075c565b820191906000526020600020905b81548152906001019060200180831161073f57829003601f168201915b5050505050925081805461076f90612b33565b80601f016020809104026020016040519081016040528092919081815260200182805461079b90612b33565b80156107e85780601f106107bd576101008083540402835291602001916107e8565b820191906000526020600020905b8154815290600101906020018083116107cb57829003601f168201915b505050505091508080546107fb90612b33565b80601f016020809104026020016040519081016040528092919081815260200182805461082790612b33565b80156108745780601f1061084957610100808354040283529160200191610874565b820191906000526020600020905b81548152906001019060200180831161085757829003601f168201915b505050505090509250925092509193909250565b6000610892611711565b90506000806064905060005b84811015610c4b5760006040518060200160405280600081525090506000600190506000805b6001600a546108d39190612a5e565b811015610952578b888881518110610914577f4e487b7100000000000000000000000000000000000000000000000000000000600052603260045260246000fd5b6020026020010151101561093157828061092d90612b65565b9350505b868061093c90612b65565b975050808061094a90612b65565b9150506108c4565b5060005b600a5481101561098f5761097a8461097561097086611829565b61188a565b611a5f565b9350808061098790612b65565b915050610956565b50808061099b90612b65565b9150505b898787815181106109d9577f4e487b7100000000000000000000000000000000000000000000000000000000600052603260045260246000fd5b60200260200101511080156109ed57508481105b15610ad65785806109fd90612b65565b96505060005b600a54811015610a85578b888881518110610a47577f4e487b7100000000000000000000000000000000000000000000000000000000600052603260045260246000fd5b60200260200101511015610a64578280610a6090612b65565b9350505b8680610a6f90612b65565b9750508080610a7d90612b65565b915050610a03565b5060005b600a54811015610ac257610aad84610aa8610aa386611829565b61188a565b611a5f565b93508080610aba90612b65565b915050610a89565b508080610ace90612b65565b91505061099f565b6040518060e0016040528060095481526020018481526020018281526020014281526020016040518060400160405280600a81526020017f556e7265736f6c7665640000000000000000000000000000000000000000000081525081526020016000151581526020016000815250600360006009548152602001908152602001600020600082015181600001556020820151816001019080519060200190610b7f929190611ca3565b5060408201518160020155606082015181600301556080820151816004019080519060200190610bb0929190611ca3565b5060a08201518160050160006101000a81548160ff02191690831515021790555060c08201518160060155905050600160008a8152602001908152602001600020600301600954908060018154018082558091505060019003906000526020600020016000909190919091505560096000815480929190610c3090612b65565b91905055505050508080610c4390612b65565b91505061089e565b5050505050505050565b6000610c5f611711565b90506000806064905060005b84811015610f5c57600060405180602001604052806000815250905060006001905060005b89878781518110610cca577f4e487b7100000000000000000000000000000000000000000000000000000000600052603260045260246000fd5b6020026020010151108015610cde57508481105b15610d04578080610cee90612b65565b9150508580610cfc90612b65565b965050610c90565b60005b6001826003610d169190612a04565b610d209190612a5e565b811015610d9f578b888881518110610d61577f4e487b7100000000000000000000000000000000000000000000000000000000600052603260045260246000fd5b60200260200101511015610d7e578280610d7a90612b65565b9350505b8680610d8990612b65565b9750508080610d9790612b65565b915050610d07565b5060005b816003610db09190612a04565b811015610de657610dd184610dcc610dc786611829565b61188a565b611a5f565b93508080610dde90612b65565b915050610da3565b506040518060e0016040528060095481526020018481526020018281526020014281526020016040518060400160405280600a81526020017f556e7265736f6c7665640000000000000000000000000000000000000000000081525081526020016000151581526020016000815250600360006009548152602001908152602001600020600082015181600001556020820151816001019080519060200190610e90929190611ca3565b5060408201518160020155606082015181600301556080820151816004019080519060200190610ec1929190611ca3565b5060a08201518160050160006101000a81548160ff02191690831515021790555060c08201518160060155905050600160008a8152602001908152602001600020600301600954908060018154018082558091505060019003906000526020600020016000909190919091505560096000815480929190610f4190612b65565b91905055505050508080610f5490612b65565b915050610c6b565b5050505050505050565b60007f000000000000000000000000000000000000000000000000000000000000000073ffffffffffffffffffffffffffffffffffffffff166370a08231306040518263ffffffff1660e01b8152600401610fc19190612571565b60206040518083038186803b158015610fd957600080fd5b505afa158015610fed573d6000803e3d6000fd5b505050506040513d601f19601f820116820180604052508101906110119190611edd565b905090565b7f000000000000000000000000000000000000000000000000000000000000000073ffffffffffffffffffffffffffffffffffffffff163373ffffffffffffffffffffffffffffffffffffffff16146110a4576040517f08c379a000000000000000000000000000000000000000000000000000000000815260040161109b9061271e565b60405180910390fd5b6110ae8282611a8b565b5050565b6000806000905060005b600015158215151480156110e85750600160008981526020019081526020016000206003018054905081105b156111655786600160008a8152602001908152602001600020600301828154811061113c577f4e487b7100000000000000000000000000000000000000000000000000000000600052603260045260246000fd5b9060005260206000200154141561115257600191505b808061115d90612b65565b9150506110bc565b600115158215151415611269578560036000898152602001908152602001600020600401908051906020019061119c929190611ca3565b5060016003600089815260200190815260200160002060050160006101000a81548160ff02191690831515021790555042600360008981526020019081526020016000206006018190555085600460008981526020019081526020016000206000019080519060200190611211929190611ca3565b508460046000898152602001908152602001600020600101908051906020019061123c929190611ca3565b5083600460008981526020019081526020016000206002019080519060200190611267929190611ca3565b505b819250505095945050505050565b60006006547f000000000000000000000000000000000000000000000000000000000000000073ffffffffffffffffffffffffffffffffffffffff166370a08231306040518263ffffffff1660e01b81526004016112d59190612571565b60206040518083038186803b1580156112ed57600080fd5b505afa158015611301573d6000803e3d6000fd5b505050506040513d601f19601f820116820180604052508101906113259190611edd565b1015611366576040517f08c379a000000000000000000000000000000000000000000000000000000000815260040161135d906126fe565b60405180910390fd5b600160008381526020019081526020016000206004014290806001815401808255809150506001900390600052602060002001600090919091909150556113b1600554600654611a96565b9050919050565b6001600085815260200190815260200160002060020160009054906101000a900460ff161561141c576040517f08c379a00000000000000000000000000000000000000000000000000000000081526004016114139061273e565b60405180910390fd5b60606040518060a0016040528085815260200184815260200160011515815260200182815260200182815250600160008781526020019081526020016000206000820151816000019080519060200190611477929190611ca3565b506020820151816001019080519060200190611494929190611ca3565b5060408201518160020160006101000a81548160ff02191690831515021790555060608201518160030190805190602001906114d1929190611d29565b5060808201518160040190805190602001906114ee929190611d29565b5090505060405180602001604052808681525060026000848152602001908152602001600020600082015181600001559050505050505050565b6000606060008060606000806003600089815260200190815260200160002060000154600360008a8152602001908152602001600020600101600360008b815260200190815260200160002060020154600360008c815260200190815260200160002060030154600360008d8152602001908152602001600020600401600360008e815260200190815260200160002060050160009054906101000a900460ff16600360008f8152602001908152602001600020600601548580546115ec90612b33565b80601f016020809104026020016040519081016040528092919081815260200182805461161890612b33565b80156116655780601f1061163a57610100808354040283529160200191611665565b820191906000526020600020905b81548152906001019060200180831161164857829003601f168201915b5050505050955082805461167890612b33565b80601f01602080910402602001604051908101604052809291908181526020018280546116a490612b33565b80156116f15780601f106116c6576101008083540402835291602001916116f1565b820191906000526020600020905b8154815290600101906020018083116116d457829003601f168201915b505050505092509650965096509650965096509650919395979092949650565b6060600b5467ffffffffffffffff811115611755577f4e487b7100000000000000000000000000000000000000000000000000000000600052604160045260246000fd5b6040519080825280602002602001820160405280156117835781602001602082028036833780820191505090505b50905060005b600b54811015611825576064600754826040516020016117aa9291906127f6565b6040516020818303038152906040528051906020012060001c6117cd9190612be6565b828281518110611806577f4e487b7100000000000000000000000000000000000000000000000000000000600052603260045260246000fd5b602002602001018181525050808061181d90612b65565b915050611789565b5090565b60008082423360085460405160200161184493929190612534565b6040516020818303038152906040528051906020012060001c6118679190612be6565b90506008600081548092919061187c90612b65565b919050555080915050919050565b606060008214156118d2576040518060400160405280600181526020017f30000000000000000000000000000000000000000000000000000000000000008152509050611a5a565b600082905060005b600082146119045780806118ed90612b65565b915050600a826118fd91906129d3565b91506118da565b60008167ffffffffffffffff811115611946577f4e487b7100000000000000000000000000000000000000000000000000000000600052604160045260246000fd5b6040519080825280601f01601f1916602001820160405280156119785781602001600182028036833780820191505090505b50905060008290505b60008614611a52576001816119969190612a5e565b90506000600a80886119a891906129d3565b6119b29190612a04565b876119bd9190612a5e565b60306119c9919061299c565b905060008160f81b905080848481518110611a0d577f4e487b7100000000000000000000000000000000000000000000000000000000600052603260045260246000fd5b60200101907effffffffffffffffffffffffffffffffffffffffffffffffffffffffffffff1916908160001a905350600a88611a4991906129d3565b97505050611981565b819450505050505b919050565b60608282604051602001611a74929190612510565b604051602081830303815290604052905092915050565b806007819055505050565b60007f000000000000000000000000000000000000000000000000000000000000000073ffffffffffffffffffffffffffffffffffffffff16634000aea07f000000000000000000000000000000000000000000000000000000000000000084866000604051602001611b0a929190612644565b6040516020818303038152906040526040518463ffffffff1660e01b8152600401611b379392919061258c565b602060405180830381600087803b158015611b5157600080fd5b505af1158015611b65573d6000803e3d6000fd5b505050506040513d601f19601f82011682018060405250810190611b899190611e4f565b506000611bab8460003060008089815260200190815260200160002054611bf5565b9050600160008086815260200190815260200160002054611bcc9190612946565b60008086815260200190815260200160002081905550611bec8482611c31565b91505092915050565b600084848484604051602001611c0e949392919061266d565b6040516020818303038152906040528051906020012060001c9050949350505050565b60008282604051602001611c469291906124e4565b60405160208183030381529060405280519060200120905092915050565b6040518060e001604052806000815260200160608152602001600081526020016000815260200160608152602001600015158152602001600081525090565b828054611caf90612b33565b90600052602060002090601f016020900481019282611cd15760008555611d18565b82601f10611cea57805160ff1916838001178555611d18565b82800160010185558215611d18579182015b82811115611d17578251825591602001919060010190611cfc565b5b509050611d259190611d76565b5090565b828054828255906000526020600020908101928215611d65579160200282015b82811115611d64578251825591602001919060010190611d49565b5b509050611d729190611d76565b5090565b5b80821115611d8f576000816000905550600101611d77565b5090565b6000611da6611da184612850565b61281f565b905082815260208101848484011115611dbe57600080fd5b611dc9848285612af1565b509392505050565b600081519050611de081612cf1565b92915050565b600081359050611df581612d08565b92915050565b600082601f830112611e0c57600080fd5b8135611e1c848260208601611d93565b91505092915050565b600081359050611e3481612d1f565b92915050565b600081519050611e4981612d1f565b92915050565b600060208284031215611e6157600080fd5b6000611e6f84828501611dd1565b91505092915050565b60008060408385031215611e8b57600080fd5b6000611e9985828601611de6565b9250506020611eaa85828601611e25565b9150509250929050565b600060208284031215611ec657600080fd5b6000611ed484828501611e25565b91505092915050565b600060208284031215611eef57600080fd5b6000611efd84828501611e3a565b91505092915050565b60008060008060808587031215611f1c57600080fd5b6000611f2a87828801611e25565b945050602085013567ffffffffffffffff811115611f4757600080fd5b611f5387828801611dfb565b935050604085013567ffffffffffffffff811115611f7057600080fd5b611f7c87828801611dfb565b9250506060611f8d87828801611e25565b91505092959194509250565b600080600080600060a08688031215611fb157600080fd5b6000611fbf88828901611e25565b9550506020611fd088828901611e25565b945050604086013567ffffffffffffffff811115611fed57600080fd5b611ff988828901611dfb565b935050606086013567ffffffffffffffff81111561201657600080fd5b61202288828901611dfb565b925050608086013567ffffffffffffffff81111561203f57600080fd5b61204b88828901611dfb565b9150509295509295909350565b6000806000806080858703121561206e57600080fd5b600061207c87828801611e25565b945050602061208d87828801611e25565b935050604061209e87828801611e25565b92505060606120af87828801611e25565b91505092959194509250565b60006120c7838361240c565b905092915050565b60006120db83836124af565b60208301905092915050565b6120f081612a92565b82525050565b61210761210282612a92565b612bae565b82525050565b6000612118826128a0565b61212281856128e6565b93508360208202850161213485612880565b8060005b85811015612170578484038952815161215185826120bb565b945061215c836128cc565b925060208a01995050600181019050612138565b50829750879550505050505092915050565b600061218d826128ab565b61219781856128f7565b93506121a283612890565b8060005b838110156121d35781516121ba88826120cf565b97506121c5836128d9565b9250506001810190506121a6565b5085935050505092915050565b6121e981612aa4565b82525050565b6121f881612aa4565b82525050565b61220781612ab0565b82525050565b61221e61221982612ab0565b612bc0565b82525050565b600061222f826128b6565b6122398185612908565b9350612249818560208601612b00565b61225281612cd3565b840191505092915050565b6000612268826128c1565b6122728185612919565b9350612282818560208601612b00565b61228b81612cd3565b840191505092915050565b60006122a1826128c1565b6122ab818561292a565b93506122bb818560208601612b00565b6122c481612cd3565b840191505092915050565b60006122da826128c1565b6122e4818561293b565b93506122f4818560208601612b00565b80840191505092915050565b600061230d602b8361292a565b91507f4e6f7420656e6f756768204c494e4b202d2066696c6c20636f6e74726163742060008301527f77697468206661756365740000000000000000000000000000000000000000006020830152604082019050919050565b6000612373601f8361292a565b91507f4f6e6c7920565246436f6f7264696e61746f722063616e2066756c66696c6c006000830152602082019050919050565b60006123b360218361292a565b91507f54686973204f5243494420697320616c7265616479207265676973746572656460008301527f2e000000000000000000000000000000000000000000000000000000000000006020830152604082019050919050565b600060e08301600083015161242460008601826124af565b506020830151848203602086015261243c828261225d565b915050604083015161245160408601826124af565b50606083015161246460608601826124af565b506080830151848203608086015261247c828261225d565b91505060a083015161249160a08601826121e0565b5060c08301516124a460c08601826124af565b508091505092915050565b6124b881612ada565b82525050565b6124c781612ada565b82525050565b6124de6124d982612ada565b612bdc565b82525050565b60006124f0828561220d565b60208201915061250082846124cd565b6020820191508190509392505050565b600061251c82856122cf565b915061252882846122cf565b91508190509392505050565b600061254082866124cd565b60208201915061255082856120f6565b60148201915061256082846124cd565b602082019150819050949350505050565b600060208201905061258660008301846120e7565b92915050565b60006060820190506125a160008301866120e7565b6125ae60208301856124be565b81810360408301526125c08184612224565b9050949350505050565b600060208201905081810360008301526125e4818461210d565b905092915050565b600060208201905081810360008301526126068184612182565b905092915050565b600060208201905061262360008301846121ef565b92915050565b600060208201905061263e60008301846121fe565b92915050565b600060408201905061265960008301856121fe565b61266660208301846124be565b9392505050565b600060808201905061268260008301876121fe565b61268f60208301866124be565b61269c60408301856120e7565b6126a960608301846124be565b95945050505050565b600060608201905081810360008301526126cc8186612296565b905081810360208301526126e08185612296565b905081810360408301526126f48184612296565b9050949350505050565b6000602082019050818103600083015261271781612300565b9050919050565b6000602082019050818103600083015261273781612366565b9050919050565b60006020820190508181036000830152612757816123a6565b9050919050565b600060208201905061277360008301846124be565b92915050565b600060e08201905061278e600083018a6124be565b81810360208301526127a08189612296565b90506127af60408301886124be565b6127bc60608301876124be565b81810360808301526127ce8186612296565b90506127dd60a08301856121ef565b6127ea60c08301846124be565b98975050505050505050565b600060408201905061280b60008301856124be565b61281860208301846124be565b9392505050565b6000604051905081810181811067ffffffffffffffff8211171561284657612845612ca4565b5b8060405250919050565b600067ffffffffffffffff82111561286b5761286a612ca4565b5b601f19601f8301169050602081019050919050565b6000819050602082019050919050565b6000819050602082019050919050565b600081519050919050565b600081519050919050565b600081519050919050565b600081519050919050565b6000602082019050919050565b6000602082019050919050565b600082825260208201905092915050565b600082825260208201905092915050565b600082825260208201905092915050565b600082825260208201905092915050565b600082825260208201905092915050565b600081905092915050565b600061295182612ada565b915061295c83612ada565b9250827fffffffffffffffffffffffffffffffffffffffffffffffffffffffffffffffff0382111561299157612990612c17565b5b828201905092915050565b60006129a782612ae4565b91506129b283612ae4565b92508260ff038211156129c8576129c7612c17565b5b828201905092915050565b60006129de82612ada565b91506129e983612ada565b9250826129f9576129f8612c46565b5b828204905092915050565b6000612a0f82612ada565b9150612a1a83612ada565b9250817fffffffffffffffffffffffffffffffffffffffffffffffffffffffffffffffff0483118215151615612a5357612a52612c17565b5b828202905092915050565b6000612a6982612ada565b9150612a7483612ada565b925082821015612a8757612a86612c17565b5b828203905092915050565b6000612a9d82612aba565b9050919050565b60008115159050919050565b6000819050919050565b600073ffffffffffffffffffffffffffffffffffffffff82169050919050565b6000819050919050565b600060ff82169050919050565b82818337600083830152505050565b60005b83811015612b1e578082015181840152602081019050612b03565b83811115612b2d576000848401525b50505050565b60006002820490506001821680612b4b57607f821691505b60208210811415612b5f57612b5e612c75565b5b50919050565b6000612b7082612ada565b91507fffffffffffffffffffffffffffffffffffffffffffffffffffffffffffffffff821415612ba357612ba2612c17565b5b600182019050919050565b6000612bb982612bca565b9050919050565b6000819050919050565b6000612bd582612ce4565b9050919050565b6000819050919050565b6000612bf182612ada565b9150612bfc83612ada565b925082612c0c57612c0b612c46565b5b828206905092915050565b7f4e487b7100000000000000000000000000000000000000000000000000000000600052601160045260246000fd5b7f4e487b7100000000000000000000000000000000000000000000000000000000600052601260045260246000fd5b7f4e487b7100000000000000000000000000000000000000000000000000000000600052602260045260246000fd5b7f4e487b7100000000000000000000000000000000000000000000000000000000600052604160045260246000fd5b6000601f19601f8301169050919050565b60008160601b9050919050565b612cfa81612aa4565b8114612d0557600080fd5b50565b612d1181612ab0565b8114612d1c57600080fd5b50565b612d2881612ada565b8114612d3357600080fd5b5056fea26469706673582212200b432dd0c24aaa5ed87f682e6c710c22fbcb24b4257185da538f38eff60ae45064736f6c63430008000033",
          "opcodes": "PUSH1 0xC0 PUSH1 0x40 MSTORE CALLVALUE DUP1 ISZERO PUSH2 0x10 JUMPI PUSH1 0x0 DUP1 REVERT JUMPDEST POP PUSH20 0xDD3782915140C8F3B190B5D67EAC6DC5760C46E9 PUSH20 0xA36085F69E2889C224210F603D836748E7DC0088 DUP2 PUSH20 0xFFFFFFFFFFFFFFFFFFFFFFFFFFFFFFFFFFFFFFFF AND PUSH1 0xA0 DUP2 PUSH20 0xFFFFFFFFFFFFFFFFFFFFFFFFFFFFFFFFFFFFFFFF AND PUSH1 0x60 SHL DUP2 MSTORE POP POP DUP1 PUSH20 0xFFFFFFFFFFFFFFFFFFFFFFFFFFFFFFFFFFFFFFFF AND PUSH1 0x80 DUP2 PUSH20 0xFFFFFFFFFFFFFFFFFFFFFFFFFFFFFFFFFFFFFFFF AND PUSH1 0x60 SHL DUP2 MSTORE POP POP POP POP PUSH32 0x6C3699283BDA56AD74F6B855546325B68D482E983852A7A82979CC4807B641F4 PUSH1 0x0 SHL PUSH1 0x5 DUP2 SWAP1 SSTORE POP PUSH8 0x16345785D8A0000 PUSH1 0x6 DUP2 SWAP1 SSTORE POP PUSH1 0x0 PUSH1 0x8 DUP2 SWAP1 SSTORE POP PUSH1 0x0 PUSH1 0x9 DUP2 SWAP1 SSTORE POP PUSH1 0x3 PUSH1 0xA DUP2 SWAP1 SSTORE POP PUSH2 0x834 PUSH1 0xB DUP2 SWAP1 SSTORE POP PUSH1 0x80 MLOAD PUSH1 0x60 SHR PUSH1 0xA0 MLOAD PUSH1 0x60 SHR PUSH2 0x2D6C PUSH2 0x145 PUSH1 0x0 CODECOPY PUSH1 0x0 DUP2 DUP2 PUSH2 0x1018 ADD MSTORE PUSH2 0x1AD6 ADD MSTORE PUSH1 0x0 DUP2 DUP2 PUSH2 0xF6A ADD MSTORE DUP2 DUP2 PUSH2 0x127E ADD MSTORE PUSH2 0x1A9A ADD MSTORE PUSH2 0x2D6C PUSH1 0x0 RETURN INVALID PUSH1 0x80 PUSH1 0x40 MSTORE CALLVALUE DUP1 ISZERO PUSH2 0x10 JUMPI PUSH1 0x0 DUP1 REVERT JUMPDEST POP PUSH1 0x4 CALLDATASIZE LT PUSH2 0xCF JUMPI PUSH1 0x0 CALLDATALOAD PUSH1 0xE0 SHR DUP1 PUSH4 0x8ED0FBE7 GT PUSH2 0x8C JUMPI DUP1 PUSH4 0x9878CA2C GT PUSH2 0x66 JUMPI DUP1 PUSH4 0x9878CA2C EQ PUSH2 0x226 JUMPI DUP1 PUSH4 0xB37217A4 EQ PUSH2 0x256 JUMPI DUP1 PUSH4 0xDB7BBDB3 EQ PUSH2 0x286 JUMPI DUP1 PUSH4 0xEBD348DE EQ PUSH2 0x2A2 JUMPI PUSH2 0xCF JUMP JUMPDEST DUP1 PUSH4 0x8ED0FBE7 EQ PUSH2 0x1D0 JUMPI DUP1 PUSH4 0x8F006527 EQ PUSH2 0x1EC JUMPI DUP1 PUSH4 0x94985DDD EQ PUSH2 0x20A JUMPI PUSH2 0xCF JUMP JUMPDEST DUP1 PUSH4 0x70A6E95 EQ PUSH2 0xD4 JUMPI DUP1 PUSH4 0xEEA10B2 EQ PUSH2 0x104 JUMPI DUP1 PUSH4 0x42619F66 EQ PUSH2 0x134 JUMPI DUP1 PUSH4 0x4DDE53AB EQ PUSH2 0x152 JUMPI DUP1 PUSH4 0x6B2FAFA9 EQ PUSH2 0x182 JUMPI DUP1 PUSH4 0x7E8B7E3E EQ PUSH2 0x1B4 JUMPI JUMPDEST PUSH1 0x0 DUP1 REVERT JUMPDEST PUSH2 0xEE PUSH1 0x4 DUP1 CALLDATASIZE SUB DUP2 ADD SWAP1 PUSH2 0xE9 SWAP2 SWAP1 PUSH2 0x1EB4 JUMP JUMPDEST PUSH2 0x2D8 JUMP JUMPDEST PUSH1 0x40 MLOAD PUSH2 0xFB SWAP2 SWAP1 PUSH2 0x25EC JUMP JUMPDEST PUSH1 0x40 MLOAD DUP1 SWAP2 SUB SWAP1 RETURN JUMPDEST PUSH2 0x11E PUSH1 0x4 DUP1 CALLDATASIZE SUB DUP2 ADD SWAP1 PUSH2 0x119 SWAP2 SWAP1 PUSH2 0x1EB4 JUMP JUMPDEST PUSH2 0x346 JUMP JUMPDEST PUSH1 0x40 MLOAD PUSH2 0x12B SWAP2 SWAP1 PUSH2 0x260E JUMP JUMPDEST PUSH1 0x40 MLOAD DUP1 SWAP2 SUB SWAP1 RETURN JUMPDEST PUSH2 0x13C PUSH2 0x373 JUMP JUMPDEST PUSH1 0x40 MLOAD PUSH2 0x149 SWAP2 SWAP1 PUSH2 0x275E JUMP JUMPDEST PUSH1 0x40 MLOAD DUP1 SWAP2 SUB SWAP1 RETURN JUMPDEST PUSH2 0x16C PUSH1 0x4 DUP1 CALLDATASIZE SUB DUP2 ADD SWAP1 PUSH2 0x167 SWAP2 SWAP1 PUSH2 0x1EB4 JUMP JUMPDEST PUSH2 0x379 JUMP JUMPDEST PUSH1 0x40 MLOAD PUSH2 0x179 SWAP2 SWAP1 PUSH2 0x25CA JUMP JUMPDEST PUSH1 0x40 MLOAD DUP1 SWAP2 SUB SWAP1 RETURN JUMPDEST PUSH2 0x19C PUSH1 0x4 DUP1 CALLDATASIZE SUB DUP2 ADD SWAP1 PUSH2 0x197 SWAP2 SWAP1 PUSH2 0x1EB4 JUMP JUMPDEST PUSH2 0x690 JUMP JUMPDEST PUSH1 0x40 MLOAD PUSH2 0x1AB SWAP4 SWAP3 SWAP2 SWAP1 PUSH2 0x26B2 JUMP JUMPDEST PUSH1 0x40 MLOAD DUP1 SWAP2 SUB SWAP1 RETURN JUMPDEST PUSH2 0x1CE PUSH1 0x4 DUP1 CALLDATASIZE SUB DUP2 ADD SWAP1 PUSH2 0x1C9 SWAP2 SWAP1 PUSH2 0x2058 JUMP JUMPDEST PUSH2 0x888 JUMP JUMPDEST STOP JUMPDEST PUSH2 0x1EA PUSH1 0x4 DUP1 CALLDATASIZE SUB DUP2 ADD SWAP1 PUSH2 0x1E5 SWAP2 SWAP1 PUSH2 0x2058 JUMP JUMPDEST PUSH2 0xC55 JUMP JUMPDEST STOP JUMPDEST PUSH2 0x1F4 PUSH2 0xF66 JUMP JUMPDEST PUSH1 0x40 MLOAD PUSH2 0x201 SWAP2 SWAP1 PUSH2 0x275E JUMP JUMPDEST PUSH1 0x40 MLOAD DUP1 SWAP2 SUB SWAP1 RETURN JUMPDEST PUSH2 0x224 PUSH1 0x4 DUP1 CALLDATASIZE SUB DUP2 ADD SWAP1 PUSH2 0x21F SWAP2 SWAP1 PUSH2 0x1E78 JUMP JUMPDEST PUSH2 0x1016 JUMP JUMPDEST STOP JUMPDEST PUSH2 0x240 PUSH1 0x4 DUP1 CALLDATASIZE SUB DUP2 ADD SWAP1 PUSH2 0x23B SWAP2 SWAP1 PUSH2 0x1F99 JUMP JUMPDEST PUSH2 0x10B2 JUMP JUMPDEST PUSH1 0x40 MLOAD PUSH2 0x24D SWAP2 SWAP1 PUSH2 0x260E JUMP JUMPDEST PUSH1 0x40 MLOAD DUP1 SWAP2 SUB SWAP1 RETURN JUMPDEST PUSH2 0x270 PUSH1 0x4 DUP1 CALLDATASIZE SUB DUP2 ADD SWAP1 PUSH2 0x26B SWAP2 SWAP1 PUSH2 0x1EB4 JUMP JUMPDEST PUSH2 0x1277 JUMP JUMPDEST PUSH1 0x40 MLOAD PUSH2 0x27D SWAP2 SWAP1 PUSH2 0x2629 JUMP JUMPDEST PUSH1 0x40 MLOAD DUP1 SWAP2 SUB SWAP1 RETURN JUMPDEST PUSH2 0x2A0 PUSH1 0x4 DUP1 CALLDATASIZE SUB DUP2 ADD SWAP1 PUSH2 0x29B SWAP2 SWAP1 PUSH2 0x1F06 JUMP JUMPDEST PUSH2 0x13B8 JUMP JUMPDEST STOP JUMPDEST PUSH2 0x2BC PUSH1 0x4 DUP1 CALLDATASIZE SUB DUP2 ADD SWAP1 PUSH2 0x2B7 SWAP2 SWAP1 PUSH2 0x1EB4 JUMP JUMPDEST PUSH2 0x1528 JUMP JUMPDEST PUSH1 0x40 MLOAD PUSH2 0x2CF SWAP8 SWAP7 SWAP6 SWAP5 SWAP4 SWAP3 SWAP2 SWAP1 PUSH2 0x2779 JUMP JUMPDEST PUSH1 0x40 MLOAD DUP1 SWAP2 SUB SWAP1 RETURN JUMPDEST PUSH1 0x60 PUSH1 0x1 PUSH1 0x0 DUP4 DUP2 MSTORE PUSH1 0x20 ADD SWAP1 DUP2 MSTORE PUSH1 0x20 ADD PUSH1 0x0 KECCAK256 PUSH1 0x4 ADD DUP1 SLOAD DUP1 PUSH1 0x20 MUL PUSH1 0x20 ADD PUSH1 0x40 MLOAD SWAP1 DUP2 ADD PUSH1 0x40 MSTORE DUP1 SWAP3 SWAP2 SWAP1 DUP2 DUP2 MSTORE PUSH1 0x20 ADD DUP3 DUP1 SLOAD DUP1 ISZERO PUSH2 0x33A JUMPI PUSH1 0x20 MUL DUP3 ADD SWAP2 SWAP1 PUSH1 0x0 MSTORE PUSH1 0x20 PUSH1 0x0 KECCAK256 SWAP1 JUMPDEST DUP2 SLOAD DUP2 MSTORE PUSH1 0x20 ADD SWAP1 PUSH1 0x1 ADD SWAP1 DUP1 DUP4 GT PUSH2 0x326 JUMPI JUMPDEST POP POP POP POP POP SWAP1 POP SWAP2 SWAP1 POP JUMP JUMPDEST PUSH1 0x0 PUSH1 0x1 PUSH1 0x0 DUP4 DUP2 MSTORE PUSH1 0x20 ADD SWAP1 DUP2 MSTORE PUSH1 0x20 ADD PUSH1 0x0 KECCAK256 PUSH1 0x2 ADD PUSH1 0x0 SWAP1 SLOAD SWAP1 PUSH2 0x100 EXP SWAP1 DIV PUSH1 0xFF AND SWAP1 POP SWAP2 SWAP1 POP JUMP JUMPDEST PUSH1 0x7 SLOAD DUP2 JUMP JUMPDEST PUSH1 0x60 PUSH1 0x0 PUSH1 0x2 PUSH1 0x0 DUP5 DUP2 MSTORE PUSH1 0x20 ADD SWAP1 DUP2 MSTORE PUSH1 0x20 ADD PUSH1 0x0 KECCAK256 PUSH1 0x0 ADD SLOAD SWAP1 POP PUSH1 0x0 PUSH1 0x1 PUSH1 0x0 DUP4 DUP2 MSTORE PUSH1 0x20 ADD SWAP1 DUP2 MSTORE PUSH1 0x20 ADD PUSH1 0x0 KECCAK256 PUSH1 0x3 ADD DUP1 SLOAD SWAP1 POP PUSH8 0xFFFFFFFFFFFFFFFF DUP2 GT ISZERO PUSH2 0x3F1 JUMPI PUSH32 0x4E487B7100000000000000000000000000000000000000000000000000000000 PUSH1 0x0 MSTORE PUSH1 0x41 PUSH1 0x4 MSTORE PUSH1 0x24 PUSH1 0x0 REVERT JUMPDEST PUSH1 0x40 MLOAD SWAP1 DUP1 DUP3 MSTORE DUP1 PUSH1 0x20 MUL PUSH1 0x20 ADD DUP3 ADD PUSH1 0x40 MSTORE DUP1 ISZERO PUSH2 0x42A JUMPI DUP2 PUSH1 0x20 ADD JUMPDEST PUSH2 0x417 PUSH2 0x1C64 JUMP JUMPDEST DUP2 MSTORE PUSH1 0x20 ADD SWAP1 PUSH1 0x1 SWAP1 SUB SWAP1 DUP2 PUSH2 0x40F JUMPI SWAP1 POP JUMPDEST POP SWAP1 POP PUSH1 0x0 JUMPDEST PUSH1 0x1 PUSH1 0x0 DUP5 DUP2 MSTORE PUSH1 0x20 ADD SWAP1 DUP2 MSTORE PUSH1 0x20 ADD PUSH1 0x0 KECCAK256 PUSH1 0x3 ADD DUP1 SLOAD SWAP1 POP DUP2 LT ISZERO PUSH2 0x685 JUMPI PUSH1 0x3 PUSH1 0x0 PUSH1 0x1 PUSH1 0x0 DUP7 DUP2 MSTORE PUSH1 0x20 ADD SWAP1 DUP2 MSTORE PUSH1 0x20 ADD PUSH1 0x0 KECCAK256 PUSH1 0x3 ADD DUP4 DUP2 SLOAD DUP2 LT PUSH2 0x4A3 JUMPI PUSH32 0x4E487B7100000000000000000000000000000000000000000000000000000000 PUSH1 0x0 MSTORE PUSH1 0x32 PUSH1 0x4 MSTORE PUSH1 0x24 PUSH1 0x0 REVERT JUMPDEST SWAP1 PUSH1 0x0 MSTORE PUSH1 0x20 PUSH1 0x0 KECCAK256 ADD SLOAD DUP2 MSTORE PUSH1 0x20 ADD SWAP1 DUP2 MSTORE PUSH1 0x20 ADD PUSH1 0x0 KECCAK256 PUSH1 0x40 MLOAD DUP1 PUSH1 0xE0 ADD PUSH1 0x40 MSTORE SWAP1 DUP2 PUSH1 0x0 DUP3 ADD SLOAD DUP2 MSTORE PUSH1 0x20 ADD PUSH1 0x1 DUP3 ADD DUP1 SLOAD PUSH2 0x4E1 SWAP1 PUSH2 0x2B33 JUMP JUMPDEST DUP1 PUSH1 0x1F ADD PUSH1 0x20 DUP1 SWAP2 DIV MUL PUSH1 0x20 ADD PUSH1 0x40 MLOAD SWAP1 DUP2 ADD PUSH1 0x40 MSTORE DUP1 SWAP3 SWAP2 SWAP1 DUP2 DUP2 MSTORE PUSH1 0x20 ADD DUP3 DUP1 SLOAD PUSH2 0x50D SWAP1 PUSH2 0x2B33 JUMP JUMPDEST DUP1 ISZERO PUSH2 0x55A JUMPI DUP1 PUSH1 0x1F LT PUSH2 0x52F JUMPI PUSH2 0x100 DUP1 DUP4 SLOAD DIV MUL DUP4 MSTORE SWAP2 PUSH1 0x20 ADD SWAP2 PUSH2 0x55A JUMP JUMPDEST DUP3 ADD SWAP2 SWAP1 PUSH1 0x0 MSTORE PUSH1 0x20 PUSH1 0x0 KECCAK256 SWAP1 JUMPDEST DUP2 SLOAD DUP2 MSTORE SWAP1 PUSH1 0x1 ADD SWAP1 PUSH1 0x20 ADD DUP1 DUP4 GT PUSH2 0x53D JUMPI DUP3 SWAP1 SUB PUSH1 0x1F AND DUP3 ADD SWAP2 JUMPDEST POP POP POP POP POP DUP2 MSTORE PUSH1 0x20 ADD PUSH1 0x2 DUP3 ADD SLOAD DUP2 MSTORE PUSH1 0x20 ADD PUSH1 0x3 DUP3 ADD SLOAD DUP2 MSTORE PUSH1 0x20 ADD PUSH1 0x4 DUP3 ADD DUP1 SLOAD PUSH2 0x587 SWAP1 PUSH2 0x2B33 JUMP JUMPDEST DUP1 PUSH1 0x1F ADD PUSH1 0x20 DUP1 SWAP2 DIV MUL PUSH1 0x20 ADD PUSH1 0x40 MLOAD SWAP1 DUP2 ADD PUSH1 0x40 MSTORE DUP1 SWAP3 SWAP2 SWAP1 DUP2 DUP2 MSTORE PUSH1 0x20 ADD DUP3 DUP1 SLOAD PUSH2 0x5B3 SWAP1 PUSH2 0x2B33 JUMP JUMPDEST DUP1 ISZERO PUSH2 0x600 JUMPI DUP1 PUSH1 0x1F LT PUSH2 0x5D5 JUMPI PUSH2 0x100 DUP1 DUP4 SLOAD DIV MUL DUP4 MSTORE SWAP2 PUSH1 0x20 ADD SWAP2 PUSH2 0x600 JUMP JUMPDEST DUP3 ADD SWAP2 SWAP1 PUSH1 0x0 MSTORE PUSH1 0x20 PUSH1 0x0 KECCAK256 SWAP1 JUMPDEST DUP2 SLOAD DUP2 MSTORE SWAP1 PUSH1 0x1 ADD SWAP1 PUSH1 0x20 ADD DUP1 DUP4 GT PUSH2 0x5E3 JUMPI DUP3 SWAP1 SUB PUSH1 0x1F AND DUP3 ADD SWAP2 JUMPDEST POP POP POP POP POP DUP2 MSTORE PUSH1 0x20 ADD PUSH1 0x5 DUP3 ADD PUSH1 0x0 SWAP1 SLOAD SWAP1 PUSH2 0x100 EXP SWAP1 DIV PUSH1 0xFF AND ISZERO ISZERO ISZERO ISZERO DUP2 MSTORE PUSH1 0x20 ADD PUSH1 0x6 DUP3 ADD SLOAD DUP2 MSTORE POP POP DUP3 DUP3 DUP2 MLOAD DUP2 LT PUSH2 0x667 JUMPI PUSH32 0x4E487B7100000000000000000000000000000000000000000000000000000000 PUSH1 0x0 MSTORE PUSH1 0x32 PUSH1 0x4 MSTORE PUSH1 0x24 PUSH1 0x0 REVERT JUMPDEST PUSH1 0x20 MUL PUSH1 0x20 ADD ADD DUP2 SWAP1 MSTORE POP DUP1 DUP1 PUSH2 0x67D SWAP1 PUSH2 0x2B65 JUMP JUMPDEST SWAP2 POP POP PUSH2 0x430 JUMP JUMPDEST POP DUP1 SWAP3 POP POP POP SWAP2 SWAP1 POP JUMP JUMPDEST PUSH1 0x60 DUP1 PUSH1 0x60 PUSH1 0x4 PUSH1 0x0 DUP6 DUP2 MSTORE PUSH1 0x20 ADD SWAP1 DUP2 MSTORE PUSH1 0x20 ADD PUSH1 0x0 KECCAK256 PUSH1 0x0 ADD PUSH1 0x4 PUSH1 0x0 DUP7 DUP2 MSTORE PUSH1 0x20 ADD SWAP1 DUP2 MSTORE PUSH1 0x20 ADD PUSH1 0x0 KECCAK256 PUSH1 0x1 ADD PUSH1 0x4 PUSH1 0x0 DUP8 DUP2 MSTORE PUSH1 0x20 ADD SWAP1 DUP2 MSTORE PUSH1 0x20 ADD PUSH1 0x0 KECCAK256 PUSH1 0x2 ADD DUP3 DUP1 SLOAD PUSH2 0x6E3 SWAP1 PUSH2 0x2B33 JUMP JUMPDEST DUP1 PUSH1 0x1F ADD PUSH1 0x20 DUP1 SWAP2 DIV MUL PUSH1 0x20 ADD PUSH1 0x40 MLOAD SWAP1 DUP2 ADD PUSH1 0x40 MSTORE DUP1 SWAP3 SWAP2 SWAP1 DUP2 DUP2 MSTORE PUSH1 0x20 ADD DUP3 DUP1 SLOAD PUSH2 0x70F SWAP1 PUSH2 0x2B33 JUMP JUMPDEST DUP1 ISZERO PUSH2 0x75C JUMPI DUP1 PUSH1 0x1F LT PUSH2 0x731 JUMPI PUSH2 0x100 DUP1 DUP4 SLOAD DIV MUL DUP4 MSTORE SWAP2 PUSH1 0x20 ADD SWAP2 PUSH2 0x75C JUMP JUMPDEST DUP3 ADD SWAP2 SWAP1 PUSH1 0x0 MSTORE PUSH1 0x20 PUSH1 0x0 KECCAK256 SWAP1 JUMPDEST DUP2 SLOAD DUP2 MSTORE SWAP1 PUSH1 0x1 ADD SWAP1 PUSH1 0x20 ADD DUP1 DUP4 GT PUSH2 0x73F JUMPI DUP3 SWAP1 SUB PUSH1 0x1F AND DUP3 ADD SWAP2 JUMPDEST POP POP POP POP POP SWAP3 POP DUP2 DUP1 SLOAD PUSH2 0x76F SWAP1 PUSH2 0x2B33 JUMP JUMPDEST DUP1 PUSH1 0x1F ADD PUSH1 0x20 DUP1 SWAP2 DIV MUL PUSH1 0x20 ADD PUSH1 0x40 MLOAD SWAP1 DUP2 ADD PUSH1 0x40 MSTORE DUP1 SWAP3 SWAP2 SWAP1 DUP2 DUP2 MSTORE PUSH1 0x20 ADD DUP3 DUP1 SLOAD PUSH2 0x79B SWAP1 PUSH2 0x2B33 JUMP JUMPDEST DUP1 ISZERO PUSH2 0x7E8 JUMPI DUP1 PUSH1 0x1F LT PUSH2 0x7BD JUMPI PUSH2 0x100 DUP1 DUP4 SLOAD DIV MUL DUP4 MSTORE SWAP2 PUSH1 0x20 ADD SWAP2 PUSH2 0x7E8 JUMP JUMPDEST DUP3 ADD SWAP2 SWAP1 PUSH1 0x0 MSTORE PUSH1 0x20 PUSH1 0x0 KECCAK256 SWAP1 JUMPDEST DUP2 SLOAD DUP2 MSTORE SWAP1 PUSH1 0x1 ADD SWAP1 PUSH1 0x20 ADD DUP1 DUP4 GT PUSH2 0x7CB JUMPI DUP3 SWAP1 SUB PUSH1 0x1F AND DUP3 ADD SWAP2 JUMPDEST POP POP POP POP POP SWAP2 POP DUP1 DUP1 SLOAD PUSH2 0x7FB SWAP1 PUSH2 0x2B33 JUMP JUMPDEST DUP1 PUSH1 0x1F ADD PUSH1 0x20 DUP1 SWAP2 DIV MUL PUSH1 0x20 ADD PUSH1 0x40 MLOAD SWAP1 DUP2 ADD PUSH1 0x40 MSTORE DUP1 SWAP3 SWAP2 SWAP1 DUP2 DUP2 MSTORE PUSH1 0x20 ADD DUP3 DUP1 SLOAD PUSH2 0x827 SWAP1 PUSH2 0x2B33 JUMP JUMPDEST DUP1 ISZERO PUSH2 0x874 JUMPI DUP1 PUSH1 0x1F LT PUSH2 0x849 JUMPI PUSH2 0x100 DUP1 DUP4 SLOAD DIV MUL DUP4 MSTORE SWAP2 PUSH1 0x20 ADD SWAP2 PUSH2 0x874 JUMP JUMPDEST DUP3 ADD SWAP2 SWAP1 PUSH1 0x0 MSTORE PUSH1 0x20 PUSH1 0x0 KECCAK256 SWAP1 JUMPDEST DUP2 SLOAD DUP2 MSTORE SWAP1 PUSH1 0x1 ADD SWAP1 PUSH1 0x20 ADD DUP1 DUP4 GT PUSH2 0x857 JUMPI DUP3 SWAP1 SUB PUSH1 0x1F AND DUP3 ADD SWAP2 JUMPDEST POP POP POP POP POP SWAP1 POP SWAP3 POP SWAP3 POP SWAP3 POP SWAP2 SWAP4 SWAP1 SWAP3 POP JUMP JUMPDEST PUSH1 0x0 PUSH2 0x892 PUSH2 0x1711 JUMP JUMPDEST SWAP1 POP PUSH1 0x0 DUP1 PUSH1 0x64 SWAP1 POP PUSH1 0x0 JUMPDEST DUP5 DUP2 LT ISZERO PUSH2 0xC4B JUMPI PUSH1 0x0 PUSH1 0x40 MLOAD DUP1 PUSH1 0x20 ADD PUSH1 0x40 MSTORE DUP1 PUSH1 0x0 DUP2 MSTORE POP SWAP1 POP PUSH1 0x0 PUSH1 0x1 SWAP1 POP PUSH1 0x0 DUP1 JUMPDEST PUSH1 0x1 PUSH1 0xA SLOAD PUSH2 0x8D3 SWAP2 SWAP1 PUSH2 0x2A5E JUMP JUMPDEST DUP2 LT ISZERO PUSH2 0x952 JUMPI DUP12 DUP9 DUP9 DUP2 MLOAD DUP2 LT PUSH2 0x914 JUMPI PUSH32 0x4E487B7100000000000000000000000000000000000000000000000000000000 PUSH1 0x0 MSTORE PUSH1 0x32 PUSH1 0x4 MSTORE PUSH1 0x24 PUSH1 0x0 REVERT JUMPDEST PUSH1 0x20 MUL PUSH1 0x20 ADD ADD MLOAD LT ISZERO PUSH2 0x931 JUMPI DUP3 DUP1 PUSH2 0x92D SWAP1 PUSH2 0x2B65 JUMP JUMPDEST SWAP4 POP POP JUMPDEST DUP7 DUP1 PUSH2 0x93C SWAP1 PUSH2 0x2B65 JUMP JUMPDEST SWAP8 POP POP DUP1 DUP1 PUSH2 0x94A SWAP1 PUSH2 0x2B65 JUMP JUMPDEST SWAP2 POP POP PUSH2 0x8C4 JUMP JUMPDEST POP PUSH1 0x0 JUMPDEST PUSH1 0xA SLOAD DUP2 LT ISZERO PUSH2 0x98F JUMPI PUSH2 0x97A DUP5 PUSH2 0x975 PUSH2 0x970 DUP7 PUSH2 0x1829 JUMP JUMPDEST PUSH2 0x188A JUMP JUMPDEST PUSH2 0x1A5F JUMP JUMPDEST SWAP4 POP DUP1 DUP1 PUSH2 0x987 SWAP1 PUSH2 0x2B65 JUMP JUMPDEST SWAP2 POP POP PUSH2 0x956 JUMP JUMPDEST POP DUP1 DUP1 PUSH2 0x99B SWAP1 PUSH2 0x2B65 JUMP JUMPDEST SWAP2 POP POP JUMPDEST DUP10 DUP8 DUP8 DUP2 MLOAD DUP2 LT PUSH2 0x9D9 JUMPI PUSH32 0x4E487B7100000000000000000000000000000000000000000000000000000000 PUSH1 0x0 MSTORE PUSH1 0x32 PUSH1 0x4 MSTORE PUSH1 0x24 PUSH1 0x0 REVERT JUMPDEST PUSH1 0x20 MUL PUSH1 0x20 ADD ADD MLOAD LT DUP1 ISZERO PUSH2 0x9ED JUMPI POP DUP5 DUP2 LT JUMPDEST ISZERO PUSH2 0xAD6 JUMPI DUP6 DUP1 PUSH2 0x9FD SWAP1 PUSH2 0x2B65 JUMP JUMPDEST SWAP7 POP POP PUSH1 0x0 JUMPDEST PUSH1 0xA SLOAD DUP2 LT ISZERO PUSH2 0xA85 JUMPI DUP12 DUP9 DUP9 DUP2 MLOAD DUP2 LT PUSH2 0xA47 JUMPI PUSH32 0x4E487B7100000000000000000000000000000000000000000000000000000000 PUSH1 0x0 MSTORE PUSH1 0x32 PUSH1 0x4 MSTORE PUSH1 0x24 PUSH1 0x0 REVERT JUMPDEST PUSH1 0x20 MUL PUSH1 0x20 ADD ADD MLOAD LT ISZERO PUSH2 0xA64 JUMPI DUP3 DUP1 PUSH2 0xA60 SWAP1 PUSH2 0x2B65 JUMP JUMPDEST SWAP4 POP POP JUMPDEST DUP7 DUP1 PUSH2 0xA6F SWAP1 PUSH2 0x2B65 JUMP JUMPDEST SWAP8 POP POP DUP1 DUP1 PUSH2 0xA7D SWAP1 PUSH2 0x2B65 JUMP JUMPDEST SWAP2 POP POP PUSH2 0xA03 JUMP JUMPDEST POP PUSH1 0x0 JUMPDEST PUSH1 0xA SLOAD DUP2 LT ISZERO PUSH2 0xAC2 JUMPI PUSH2 0xAAD DUP5 PUSH2 0xAA8 PUSH2 0xAA3 DUP7 PUSH2 0x1829 JUMP JUMPDEST PUSH2 0x188A JUMP JUMPDEST PUSH2 0x1A5F JUMP JUMPDEST SWAP4 POP DUP1 DUP1 PUSH2 0xABA SWAP1 PUSH2 0x2B65 JUMP JUMPDEST SWAP2 POP POP PUSH2 0xA89 JUMP JUMPDEST POP DUP1 DUP1 PUSH2 0xACE SWAP1 PUSH2 0x2B65 JUMP JUMPDEST SWAP2 POP POP PUSH2 0x99F JUMP JUMPDEST PUSH1 0x40 MLOAD DUP1 PUSH1 0xE0 ADD PUSH1 0x40 MSTORE DUP1 PUSH1 0x9 SLOAD DUP2 MSTORE PUSH1 0x20 ADD DUP5 DUP2 MSTORE PUSH1 0x20 ADD DUP3 DUP2 MSTORE PUSH1 0x20 ADD TIMESTAMP DUP2 MSTORE PUSH1 0x20 ADD PUSH1 0x40 MLOAD DUP1 PUSH1 0x40 ADD PUSH1 0x40 MSTORE DUP1 PUSH1 0xA DUP2 MSTORE PUSH1 0x20 ADD PUSH32 0x556E7265736F6C76656400000000000000000000000000000000000000000000 DUP2 MSTORE POP DUP2 MSTORE PUSH1 0x20 ADD PUSH1 0x0 ISZERO ISZERO DUP2 MSTORE PUSH1 0x20 ADD PUSH1 0x0 DUP2 MSTORE POP PUSH1 0x3 PUSH1 0x0 PUSH1 0x9 SLOAD DUP2 MSTORE PUSH1 0x20 ADD SWAP1 DUP2 MSTORE PUSH1 0x20 ADD PUSH1 0x0 KECCAK256 PUSH1 0x0 DUP3 ADD MLOAD DUP2 PUSH1 0x0 ADD SSTORE PUSH1 0x20 DUP3 ADD MLOAD DUP2 PUSH1 0x1 ADD SWAP1 DUP1 MLOAD SWAP1 PUSH1 0x20 ADD SWAP1 PUSH2 0xB7F SWAP3 SWAP2 SWAP1 PUSH2 0x1CA3 JUMP JUMPDEST POP PUSH1 0x40 DUP3 ADD MLOAD DUP2 PUSH1 0x2 ADD SSTORE PUSH1 0x60 DUP3 ADD MLOAD DUP2 PUSH1 0x3 ADD SSTORE PUSH1 0x80 DUP3 ADD MLOAD DUP2 PUSH1 0x4 ADD SWAP1 DUP1 MLOAD SWAP1 PUSH1 0x20 ADD SWAP1 PUSH2 0xBB0 SWAP3 SWAP2 SWAP1 PUSH2 0x1CA3 JUMP JUMPDEST POP PUSH1 0xA0 DUP3 ADD MLOAD DUP2 PUSH1 0x5 ADD PUSH1 0x0 PUSH2 0x100 EXP DUP2 SLOAD DUP2 PUSH1 0xFF MUL NOT AND SWAP1 DUP4 ISZERO ISZERO MUL OR SWAP1 SSTORE POP PUSH1 0xC0 DUP3 ADD MLOAD DUP2 PUSH1 0x6 ADD SSTORE SWAP1 POP POP PUSH1 0x1 PUSH1 0x0 DUP11 DUP2 MSTORE PUSH1 0x20 ADD SWAP1 DUP2 MSTORE PUSH1 0x20 ADD PUSH1 0x0 KECCAK256 PUSH1 0x3 ADD PUSH1 0x9 SLOAD SWAP1 DUP1 PUSH1 0x1 DUP2 SLOAD ADD DUP1 DUP3 SSTORE DUP1 SWAP2 POP POP PUSH1 0x1 SWAP1 SUB SWAP1 PUSH1 0x0 MSTORE PUSH1 0x20 PUSH1 0x0 KECCAK256 ADD PUSH1 0x0 SWAP1 SWAP2 SWAP1 SWAP2 SWAP1 SWAP2 POP SSTORE PUSH1 0x9 PUSH1 0x0 DUP2 SLOAD DUP1 SWAP3 SWAP2 SWAP1 PUSH2 0xC30 SWAP1 PUSH2 0x2B65 JUMP JUMPDEST SWAP2 SWAP1 POP SSTORE POP POP POP POP DUP1 DUP1 PUSH2 0xC43 SWAP1 PUSH2 0x2B65 JUMP JUMPDEST SWAP2 POP POP PUSH2 0x89E JUMP JUMPDEST POP POP POP POP POP POP POP POP JUMP JUMPDEST PUSH1 0x0 PUSH2 0xC5F PUSH2 0x1711 JUMP JUMPDEST SWAP1 POP PUSH1 0x0 DUP1 PUSH1 0x64 SWAP1 POP PUSH1 0x0 JUMPDEST DUP5 DUP2 LT ISZERO PUSH2 0xF5C JUMPI PUSH1 0x0 PUSH1 0x40 MLOAD DUP1 PUSH1 0x20 ADD PUSH1 0x40 MSTORE DUP1 PUSH1 0x0 DUP2 MSTORE POP SWAP1 POP PUSH1 0x0 PUSH1 0x1 SWAP1 POP PUSH1 0x0 JUMPDEST DUP10 DUP8 DUP8 DUP2 MLOAD DUP2 LT PUSH2 0xCCA JUMPI PUSH32 0x4E487B7100000000000000000000000000000000000000000000000000000000 PUSH1 0x0 MSTORE PUSH1 0x32 PUSH1 0x4 MSTORE PUSH1 0x24 PUSH1 0x0 REVERT JUMPDEST PUSH1 0x20 MUL PUSH1 0x20 ADD ADD MLOAD LT DUP1 ISZERO PUSH2 0xCDE JUMPI POP DUP5 DUP2 LT JUMPDEST ISZERO PUSH2 0xD04 JUMPI DUP1 DUP1 PUSH2 0xCEE SWAP1 PUSH2 0x2B65 JUMP JUMPDEST SWAP2 POP POP DUP6 DUP1 PUSH2 0xCFC SWAP1 PUSH2 0x2B65 JUMP JUMPDEST SWAP7 POP POP PUSH2 0xC90 JUMP JUMPDEST PUSH1 0x0 JUMPDEST PUSH1 0x1 DUP3 PUSH1 0x3 PUSH2 0xD16 SWAP2 SWAP1 PUSH2 0x2A04 JUMP JUMPDEST PUSH2 0xD20 SWAP2 SWAP1 PUSH2 0x2A5E JUMP JUMPDEST DUP2 LT ISZERO PUSH2 0xD9F JUMPI DUP12 DUP9 DUP9 DUP2 MLOAD DUP2 LT PUSH2 0xD61 JUMPI PUSH32 0x4E487B7100000000000000000000000000000000000000000000000000000000 PUSH1 0x0 MSTORE PUSH1 0x32 PUSH1 0x4 MSTORE PUSH1 0x24 PUSH1 0x0 REVERT JUMPDEST PUSH1 0x20 MUL PUSH1 0x20 ADD ADD MLOAD LT ISZERO PUSH2 0xD7E JUMPI DUP3 DUP1 PUSH2 0xD7A SWAP1 PUSH2 0x2B65 JUMP JUMPDEST SWAP4 POP POP JUMPDEST DUP7 DUP1 PUSH2 0xD89 SWAP1 PUSH2 0x2B65 JUMP JUMPDEST SWAP8 POP POP DUP1 DUP1 PUSH2 0xD97 SWAP1 PUSH2 0x2B65 JUMP JUMPDEST SWAP2 POP POP PUSH2 0xD07 JUMP JUMPDEST POP PUSH1 0x0 JUMPDEST DUP2 PUSH1 0x3 PUSH2 0xDB0 SWAP2 SWAP1 PUSH2 0x2A04 JUMP JUMPDEST DUP2 LT ISZERO PUSH2 0xDE6 JUMPI PUSH2 0xDD1 DUP5 PUSH2 0xDCC PUSH2 0xDC7 DUP7 PUSH2 0x1829 JUMP JUMPDEST PUSH2 0x188A JUMP JUMPDEST PUSH2 0x1A5F JUMP JUMPDEST SWAP4 POP DUP1 DUP1 PUSH2 0xDDE SWAP1 PUSH2 0x2B65 JUMP JUMPDEST SWAP2 POP POP PUSH2 0xDA3 JUMP JUMPDEST POP PUSH1 0x40 MLOAD DUP1 PUSH1 0xE0 ADD PUSH1 0x40 MSTORE DUP1 PUSH1 0x9 SLOAD DUP2 MSTORE PUSH1 0x20 ADD DUP5 DUP2 MSTORE PUSH1 0x20 ADD DUP3 DUP2 MSTORE PUSH1 0x20 ADD TIMESTAMP DUP2 MSTORE PUSH1 0x20 ADD PUSH1 0x40 MLOAD DUP1 PUSH1 0x40 ADD PUSH1 0x40 MSTORE DUP1 PUSH1 0xA DUP2 MSTORE PUSH1 0x20 ADD PUSH32 0x556E7265736F6C76656400000000000000000000000000000000000000000000 DUP2 MSTORE POP DUP2 MSTORE PUSH1 0x20 ADD PUSH1 0x0 ISZERO ISZERO DUP2 MSTORE PUSH1 0x20 ADD PUSH1 0x0 DUP2 MSTORE POP PUSH1 0x3 PUSH1 0x0 PUSH1 0x9 SLOAD DUP2 MSTORE PUSH1 0x20 ADD SWAP1 DUP2 MSTORE PUSH1 0x20 ADD PUSH1 0x0 KECCAK256 PUSH1 0x0 DUP3 ADD MLOAD DUP2 PUSH1 0x0 ADD SSTORE PUSH1 0x20 DUP3 ADD MLOAD DUP2 PUSH1 0x1 ADD SWAP1 DUP1 MLOAD SWAP1 PUSH1 0x20 ADD SWAP1 PUSH2 0xE90 SWAP3 SWAP2 SWAP1 PUSH2 0x1CA3 JUMP JUMPDEST POP PUSH1 0x40 DUP3 ADD MLOAD DUP2 PUSH1 0x2 ADD SSTORE PUSH1 0x60 DUP3 ADD MLOAD DUP2 PUSH1 0x3 ADD SSTORE PUSH1 0x80 DUP3 ADD MLOAD DUP2 PUSH1 0x4 ADD SWAP1 DUP1 MLOAD SWAP1 PUSH1 0x20 ADD SWAP1 PUSH2 0xEC1 SWAP3 SWAP2 SWAP1 PUSH2 0x1CA3 JUMP JUMPDEST POP PUSH1 0xA0 DUP3 ADD MLOAD DUP2 PUSH1 0x5 ADD PUSH1 0x0 PUSH2 0x100 EXP DUP2 SLOAD DUP2 PUSH1 0xFF MUL NOT AND SWAP1 DUP4 ISZERO ISZERO MUL OR SWAP1 SSTORE POP PUSH1 0xC0 DUP3 ADD MLOAD DUP2 PUSH1 0x6 ADD SSTORE SWAP1 POP POP PUSH1 0x1 PUSH1 0x0 DUP11 DUP2 MSTORE PUSH1 0x20 ADD SWAP1 DUP2 MSTORE PUSH1 0x20 ADD PUSH1 0x0 KECCAK256 PUSH1 0x3 ADD PUSH1 0x9 SLOAD SWAP1 DUP1 PUSH1 0x1 DUP2 SLOAD ADD DUP1 DUP3 SSTORE DUP1 SWAP2 POP POP PUSH1 0x1 SWAP1 SUB SWAP1 PUSH1 0x0 MSTORE PUSH1 0x20 PUSH1 0x0 KECCAK256 ADD PUSH1 0x0 SWAP1 SWAP2 SWAP1 SWAP2 SWAP1 SWAP2 POP SSTORE PUSH1 0x9 PUSH1 0x0 DUP2 SLOAD DUP1 SWAP3 SWAP2 SWAP1 PUSH2 0xF41 SWAP1 PUSH2 0x2B65 JUMP JUMPDEST SWAP2 SWAP1 POP SSTORE POP POP POP POP DUP1 DUP1 PUSH2 0xF54 SWAP1 PUSH2 0x2B65 JUMP JUMPDEST SWAP2 POP POP PUSH2 0xC6B JUMP JUMPDEST POP POP POP POP POP POP POP POP JUMP JUMPDEST PUSH1 0x0 PUSH32 0x0 PUSH20 0xFFFFFFFFFFFFFFFFFFFFFFFFFFFFFFFFFFFFFFFF AND PUSH4 0x70A08231 ADDRESS PUSH1 0x40 MLOAD DUP3 PUSH4 0xFFFFFFFF AND PUSH1 0xE0 SHL DUP2 MSTORE PUSH1 0x4 ADD PUSH2 0xFC1 SWAP2 SWAP1 PUSH2 0x2571 JUMP JUMPDEST PUSH1 0x20 PUSH1 0x40 MLOAD DUP1 DUP4 SUB DUP2 DUP7 DUP1 EXTCODESIZE ISZERO DUP1 ISZERO PUSH2 0xFD9 JUMPI PUSH1 0x0 DUP1 REVERT JUMPDEST POP GAS STATICCALL ISZERO DUP1 ISZERO PUSH2 0xFED JUMPI RETURNDATASIZE PUSH1 0x0 DUP1 RETURNDATACOPY RETURNDATASIZE PUSH1 0x0 REVERT JUMPDEST POP POP POP POP PUSH1 0x40 MLOAD RETURNDATASIZE PUSH1 0x1F NOT PUSH1 0x1F DUP3 ADD AND DUP3 ADD DUP1 PUSH1 0x40 MSTORE POP DUP2 ADD SWAP1 PUSH2 0x1011 SWAP2 SWAP1 PUSH2 0x1EDD JUMP JUMPDEST SWAP1 POP SWAP1 JUMP JUMPDEST PUSH32 0x0 PUSH20 0xFFFFFFFFFFFFFFFFFFFFFFFFFFFFFFFFFFFFFFFF AND CALLER PUSH20 0xFFFFFFFFFFFFFFFFFFFFFFFFFFFFFFFFFFFFFFFF AND EQ PUSH2 0x10A4 JUMPI PUSH1 0x40 MLOAD PUSH32 0x8C379A000000000000000000000000000000000000000000000000000000000 DUP2 MSTORE PUSH1 0x4 ADD PUSH2 0x109B SWAP1 PUSH2 0x271E JUMP JUMPDEST PUSH1 0x40 MLOAD DUP1 SWAP2 SUB SWAP1 REVERT JUMPDEST PUSH2 0x10AE DUP3 DUP3 PUSH2 0x1A8B JUMP JUMPDEST POP POP JUMP JUMPDEST PUSH1 0x0 DUP1 PUSH1 0x0 SWAP1 POP PUSH1 0x0 JUMPDEST PUSH1 0x0 ISZERO ISZERO DUP3 ISZERO ISZERO EQ DUP1 ISZERO PUSH2 0x10E8 JUMPI POP PUSH1 0x1 PUSH1 0x0 DUP10 DUP2 MSTORE PUSH1 0x20 ADD SWAP1 DUP2 MSTORE PUSH1 0x20 ADD PUSH1 0x0 KECCAK256 PUSH1 0x3 ADD DUP1 SLOAD SWAP1 POP DUP2 LT JUMPDEST ISZERO PUSH2 0x1165 JUMPI DUP7 PUSH1 0x1 PUSH1 0x0 DUP11 DUP2 MSTORE PUSH1 0x20 ADD SWAP1 DUP2 MSTORE PUSH1 0x20 ADD PUSH1 0x0 KECCAK256 PUSH1 0x3 ADD DUP3 DUP2 SLOAD DUP2 LT PUSH2 0x113C JUMPI PUSH32 0x4E487B7100000000000000000000000000000000000000000000000000000000 PUSH1 0x0 MSTORE PUSH1 0x32 PUSH1 0x4 MSTORE PUSH1 0x24 PUSH1 0x0 REVERT JUMPDEST SWAP1 PUSH1 0x0 MSTORE PUSH1 0x20 PUSH1 0x0 KECCAK256 ADD SLOAD EQ ISZERO PUSH2 0x1152 JUMPI PUSH1 0x1 SWAP2 POP JUMPDEST DUP1 DUP1 PUSH2 0x115D SWAP1 PUSH2 0x2B65 JUMP JUMPDEST SWAP2 POP POP PUSH2 0x10BC JUMP JUMPDEST PUSH1 0x1 ISZERO ISZERO DUP3 ISZERO ISZERO EQ ISZERO PUSH2 0x1269 JUMPI DUP6 PUSH1 0x3 PUSH1 0x0 DUP10 DUP2 MSTORE PUSH1 0x20 ADD SWAP1 DUP2 MSTORE PUSH1 0x20 ADD PUSH1 0x0 KECCAK256 PUSH1 0x4 ADD SWAP1 DUP1 MLOAD SWAP1 PUSH1 0x20 ADD SWAP1 PUSH2 0x119C SWAP3 SWAP2 SWAP1 PUSH2 0x1CA3 JUMP JUMPDEST POP PUSH1 0x1 PUSH1 0x3 PUSH1 0x0 DUP10 DUP2 MSTORE PUSH1 0x20 ADD SWAP1 DUP2 MSTORE PUSH1 0x20 ADD PUSH1 0x0 KECCAK256 PUSH1 0x5 ADD PUSH1 0x0 PUSH2 0x100 EXP DUP2 SLOAD DUP2 PUSH1 0xFF MUL NOT AND SWAP1 DUP4 ISZERO ISZERO MUL OR SWAP1 SSTORE POP TIMESTAMP PUSH1 0x3 PUSH1 0x0 DUP10 DUP2 MSTORE PUSH1 0x20 ADD SWAP1 DUP2 MSTORE PUSH1 0x20 ADD PUSH1 0x0 KECCAK256 PUSH1 0x6 ADD DUP2 SWAP1 SSTORE POP DUP6 PUSH1 0x4 PUSH1 0x0 DUP10 DUP2 MSTORE PUSH1 0x20 ADD SWAP1 DUP2 MSTORE PUSH1 0x20 ADD PUSH1 0x0 KECCAK256 PUSH1 0x0 ADD SWAP1 DUP1 MLOAD SWAP1 PUSH1 0x20 ADD SWAP1 PUSH2 0x1211 SWAP3 SWAP2 SWAP1 PUSH2 0x1CA3 JUMP JUMPDEST POP DUP5 PUSH1 0x4 PUSH1 0x0 DUP10 DUP2 MSTORE PUSH1 0x20 ADD SWAP1 DUP2 MSTORE PUSH1 0x20 ADD PUSH1 0x0 KECCAK256 PUSH1 0x1 ADD SWAP1 DUP1 MLOAD SWAP1 PUSH1 0x20 ADD SWAP1 PUSH2 0x123C SWAP3 SWAP2 SWAP1 PUSH2 0x1CA3 JUMP JUMPDEST POP DUP4 PUSH1 0x4 PUSH1 0x0 DUP10 DUP2 MSTORE PUSH1 0x20 ADD SWAP1 DUP2 MSTORE PUSH1 0x20 ADD PUSH1 0x0 KECCAK256 PUSH1 0x2 ADD SWAP1 DUP1 MLOAD SWAP1 PUSH1 0x20 ADD SWAP1 PUSH2 0x1267 SWAP3 SWAP2 SWAP1 PUSH2 0x1CA3 JUMP JUMPDEST POP JUMPDEST DUP2 SWAP3 POP POP POP SWAP6 SWAP5 POP POP POP POP POP JUMP JUMPDEST PUSH1 0x0 PUSH1 0x6 SLOAD PUSH32 0x0 PUSH20 0xFFFFFFFFFFFFFFFFFFFFFFFFFFFFFFFFFFFFFFFF AND PUSH4 0x70A08231 ADDRESS PUSH1 0x40 MLOAD DUP3 PUSH4 0xFFFFFFFF AND PUSH1 0xE0 SHL DUP2 MSTORE PUSH1 0x4 ADD PUSH2 0x12D5 SWAP2 SWAP1 PUSH2 0x2571 JUMP JUMPDEST PUSH1 0x20 PUSH1 0x40 MLOAD DUP1 DUP4 SUB DUP2 DUP7 DUP1 EXTCODESIZE ISZERO DUP1 ISZERO PUSH2 0x12ED JUMPI PUSH1 0x0 DUP1 REVERT JUMPDEST POP GAS STATICCALL ISZERO DUP1 ISZERO PUSH2 0x1301 JUMPI RETURNDATASIZE PUSH1 0x0 DUP1 RETURNDATACOPY RETURNDATASIZE PUSH1 0x0 REVERT JUMPDEST POP POP POP POP PUSH1 0x40 MLOAD RETURNDATASIZE PUSH1 0x1F NOT PUSH1 0x1F DUP3 ADD AND DUP3 ADD DUP1 PUSH1 0x40 MSTORE POP DUP2 ADD SWAP1 PUSH2 0x1325 SWAP2 SWAP1 PUSH2 0x1EDD JUMP JUMPDEST LT ISZERO PUSH2 0x1366 JUMPI PUSH1 0x40 MLOAD PUSH32 0x8C379A000000000000000000000000000000000000000000000000000000000 DUP2 MSTORE PUSH1 0x4 ADD PUSH2 0x135D SWAP1 PUSH2 0x26FE JUMP JUMPDEST PUSH1 0x40 MLOAD DUP1 SWAP2 SUB SWAP1 REVERT JUMPDEST PUSH1 0x1 PUSH1 0x0 DUP4 DUP2 MSTORE PUSH1 0x20 ADD SWAP1 DUP2 MSTORE PUSH1 0x20 ADD PUSH1 0x0 KECCAK256 PUSH1 0x4 ADD TIMESTAMP SWAP1 DUP1 PUSH1 0x1 DUP2 SLOAD ADD DUP1 DUP3 SSTORE DUP1 SWAP2 POP POP PUSH1 0x1 SWAP1 SUB SWAP1 PUSH1 0x0 MSTORE PUSH1 0x20 PUSH1 0x0 KECCAK256 ADD PUSH1 0x0 SWAP1 SWAP2 SWAP1 SWAP2 SWAP1 SWAP2 POP SSTORE PUSH2 0x13B1 PUSH1 0x5 SLOAD PUSH1 0x6 SLOAD PUSH2 0x1A96 JUMP JUMPDEST SWAP1 POP SWAP2 SWAP1 POP JUMP JUMPDEST PUSH1 0x1 PUSH1 0x0 DUP6 DUP2 MSTORE PUSH1 0x20 ADD SWAP1 DUP2 MSTORE PUSH1 0x20 ADD PUSH1 0x0 KECCAK256 PUSH1 0x2 ADD PUSH1 0x0 SWAP1 SLOAD SWAP1 PUSH2 0x100 EXP SWAP1 DIV PUSH1 0xFF AND ISZERO PUSH2 0x141C JUMPI PUSH1 0x40 MLOAD PUSH32 0x8C379A000000000000000000000000000000000000000000000000000000000 DUP2 MSTORE PUSH1 0x4 ADD PUSH2 0x1413 SWAP1 PUSH2 0x273E JUMP JUMPDEST PUSH1 0x40 MLOAD DUP1 SWAP2 SUB SWAP1 REVERT JUMPDEST PUSH1 0x60 PUSH1 0x40 MLOAD DUP1 PUSH1 0xA0 ADD PUSH1 0x40 MSTORE DUP1 DUP6 DUP2 MSTORE PUSH1 0x20 ADD DUP5 DUP2 MSTORE PUSH1 0x20 ADD PUSH1 0x1 ISZERO ISZERO DUP2 MSTORE PUSH1 0x20 ADD DUP3 DUP2 MSTORE PUSH1 0x20 ADD DUP3 DUP2 MSTORE POP PUSH1 0x1 PUSH1 0x0 DUP8 DUP2 MSTORE PUSH1 0x20 ADD SWAP1 DUP2 MSTORE PUSH1 0x20 ADD PUSH1 0x0 KECCAK256 PUSH1 0x0 DUP3 ADD MLOAD DUP2 PUSH1 0x0 ADD SWAP1 DUP1 MLOAD SWAP1 PUSH1 0x20 ADD SWAP1 PUSH2 0x1477 SWAP3 SWAP2 SWAP1 PUSH2 0x1CA3 JUMP JUMPDEST POP PUSH1 0x20 DUP3 ADD MLOAD DUP2 PUSH1 0x1 ADD SWAP1 DUP1 MLOAD SWAP1 PUSH1 0x20 ADD SWAP1 PUSH2 0x1494 SWAP3 SWAP2 SWAP1 PUSH2 0x1CA3 JUMP JUMPDEST POP PUSH1 0x40 DUP3 ADD MLOAD DUP2 PUSH1 0x2 ADD PUSH1 0x0 PUSH2 0x100 EXP DUP2 SLOAD DUP2 PUSH1 0xFF MUL NOT AND SWAP1 DUP4 ISZERO ISZERO MUL OR SWAP1 SSTORE POP PUSH1 0x60 DUP3 ADD MLOAD DUP2 PUSH1 0x3 ADD SWAP1 DUP1 MLOAD SWAP1 PUSH1 0x20 ADD SWAP1 PUSH2 0x14D1 SWAP3 SWAP2 SWAP1 PUSH2 0x1D29 JUMP JUMPDEST POP PUSH1 0x80 DUP3 ADD MLOAD DUP2 PUSH1 0x4 ADD SWAP1 DUP1 MLOAD SWAP1 PUSH1 0x20 ADD SWAP1 PUSH2 0x14EE SWAP3 SWAP2 SWAP1 PUSH2 0x1D29 JUMP JUMPDEST POP SWAP1 POP POP PUSH1 0x40 MLOAD DUP1 PUSH1 0x20 ADD PUSH1 0x40 MSTORE DUP1 DUP7 DUP2 MSTORE POP PUSH1 0x2 PUSH1 0x0 DUP5 DUP2 MSTORE PUSH1 0x20 ADD SWAP1 DUP2 MSTORE PUSH1 0x20 ADD PUSH1 0x0 KECCAK256 PUSH1 0x0 DUP3 ADD MLOAD DUP2 PUSH1 0x0 ADD SSTORE SWAP1 POP POP POP POP POP POP POP JUMP JUMPDEST PUSH1 0x0 PUSH1 0x60 PUSH1 0x0 DUP1 PUSH1 0x60 PUSH1 0x0 DUP1 PUSH1 0x3 PUSH1 0x0 DUP10 DUP2 MSTORE PUSH1 0x20 ADD SWAP1 DUP2 MSTORE PUSH1 0x20 ADD PUSH1 0x0 KECCAK256 PUSH1 0x0 ADD SLOAD PUSH1 0x3 PUSH1 0x0 DUP11 DUP2 MSTORE PUSH1 0x20 ADD SWAP1 DUP2 MSTORE PUSH1 0x20 ADD PUSH1 0x0 KECCAK256 PUSH1 0x1 ADD PUSH1 0x3 PUSH1 0x0 DUP12 DUP2 MSTORE PUSH1 0x20 ADD SWAP1 DUP2 MSTORE PUSH1 0x20 ADD PUSH1 0x0 KECCAK256 PUSH1 0x2 ADD SLOAD PUSH1 0x3 PUSH1 0x0 DUP13 DUP2 MSTORE PUSH1 0x20 ADD SWAP1 DUP2 MSTORE PUSH1 0x20 ADD PUSH1 0x0 KECCAK256 PUSH1 0x3 ADD SLOAD PUSH1 0x3 PUSH1 0x0 DUP14 DUP2 MSTORE PUSH1 0x20 ADD SWAP1 DUP2 MSTORE PUSH1 0x20 ADD PUSH1 0x0 KECCAK256 PUSH1 0x4 ADD PUSH1 0x3 PUSH1 0x0 DUP15 DUP2 MSTORE PUSH1 0x20 ADD SWAP1 DUP2 MSTORE PUSH1 0x20 ADD PUSH1 0x0 KECCAK256 PUSH1 0x5 ADD PUSH1 0x0 SWAP1 SLOAD SWAP1 PUSH2 0x100 EXP SWAP1 DIV PUSH1 0xFF AND PUSH1 0x3 PUSH1 0x0 DUP16 DUP2 MSTORE PUSH1 0x20 ADD SWAP1 DUP2 MSTORE PUSH1 0x20 ADD PUSH1 0x0 KECCAK256 PUSH1 0x6 ADD SLOAD DUP6 DUP1 SLOAD PUSH2 0x15EC SWAP1 PUSH2 0x2B33 JUMP JUMPDEST DUP1 PUSH1 0x1F ADD PUSH1 0x20 DUP1 SWAP2 DIV MUL PUSH1 0x20 ADD PUSH1 0x40 MLOAD SWAP1 DUP2 ADD PUSH1 0x40 MSTORE DUP1 SWAP3 SWAP2 SWAP1 DUP2 DUP2 MSTORE PUSH1 0x20 ADD DUP3 DUP1 SLOAD PUSH2 0x1618 SWAP1 PUSH2 0x2B33 JUMP JUMPDEST DUP1 ISZERO PUSH2 0x1665 JUMPI DUP1 PUSH1 0x1F LT PUSH2 0x163A JUMPI PUSH2 0x100 DUP1 DUP4 SLOAD DIV MUL DUP4 MSTORE SWAP2 PUSH1 0x20 ADD SWAP2 PUSH2 0x1665 JUMP JUMPDEST DUP3 ADD SWAP2 SWAP1 PUSH1 0x0 MSTORE PUSH1 0x20 PUSH1 0x0 KECCAK256 SWAP1 JUMPDEST DUP2 SLOAD DUP2 MSTORE SWAP1 PUSH1 0x1 ADD SWAP1 PUSH1 0x20 ADD DUP1 DUP4 GT PUSH2 0x1648 JUMPI DUP3 SWAP1 SUB PUSH1 0x1F AND DUP3 ADD SWAP2 JUMPDEST POP POP POP POP POP SWAP6 POP DUP3 DUP1 SLOAD PUSH2 0x1678 SWAP1 PUSH2 0x2B33 JUMP JUMPDEST DUP1 PUSH1 0x1F ADD PUSH1 0x20 DUP1 SWAP2 DIV MUL PUSH1 0x20 ADD PUSH1 0x40 MLOAD SWAP1 DUP2 ADD PUSH1 0x40 MSTORE DUP1 SWAP3 SWAP2 SWAP1 DUP2 DUP2 MSTORE PUSH1 0x20 ADD DUP3 DUP1 SLOAD PUSH2 0x16A4 SWAP1 PUSH2 0x2B33 JUMP JUMPDEST DUP1 ISZERO PUSH2 0x16F1 JUMPI DUP1 PUSH1 0x1F LT PUSH2 0x16C6 JUMPI PUSH2 0x100 DUP1 DUP4 SLOAD DIV MUL DUP4 MSTORE SWAP2 PUSH1 0x20 ADD SWAP2 PUSH2 0x16F1 JUMP JUMPDEST DUP3 ADD SWAP2 SWAP1 PUSH1 0x0 MSTORE PUSH1 0x20 PUSH1 0x0 KECCAK256 SWAP1 JUMPDEST DUP2 SLOAD DUP2 MSTORE SWAP1 PUSH1 0x1 ADD SWAP1 PUSH1 0x20 ADD DUP1 DUP4 GT PUSH2 0x16D4 JUMPI DUP3 SWAP1 SUB PUSH1 0x1F AND DUP3 ADD SWAP2 JUMPDEST POP POP POP POP POP SWAP3 POP SWAP7 POP SWAP7 POP SWAP7 POP SWAP7 POP SWAP7 POP SWAP7 POP SWAP7 POP SWAP2 SWAP4 SWAP6 SWAP8 SWAP1 SWAP3 SWAP5 SWAP7 POP JUMP JUMPDEST PUSH1 0x60 PUSH1 0xB SLOAD PUSH8 0xFFFFFFFFFFFFFFFF DUP2 GT ISZERO PUSH2 0x1755 JUMPI PUSH32 0x4E487B7100000000000000000000000000000000000000000000000000000000 PUSH1 0x0 MSTORE PUSH1 0x41 PUSH1 0x4 MSTORE PUSH1 0x24 PUSH1 0x0 REVERT JUMPDEST PUSH1 0x40 MLOAD SWAP1 DUP1 DUP3 MSTORE DUP1 PUSH1 0x20 MUL PUSH1 0x20 ADD DUP3 ADD PUSH1 0x40 MSTORE DUP1 ISZERO PUSH2 0x1783 JUMPI DUP2 PUSH1 0x20 ADD PUSH1 0x20 DUP3 MUL DUP1 CALLDATASIZE DUP4 CALLDATACOPY DUP1 DUP3 ADD SWAP2 POP POP SWAP1 POP JUMPDEST POP SWAP1 POP PUSH1 0x0 JUMPDEST PUSH1 0xB SLOAD DUP2 LT ISZERO PUSH2 0x1825 JUMPI PUSH1 0x64 PUSH1 0x7 SLOAD DUP3 PUSH1 0x40 MLOAD PUSH1 0x20 ADD PUSH2 0x17AA SWAP3 SWAP2 SWAP1 PUSH2 0x27F6 JUMP JUMPDEST PUSH1 0x40 MLOAD PUSH1 0x20 DUP2 DUP4 SUB SUB DUP2 MSTORE SWAP1 PUSH1 0x40 MSTORE DUP1 MLOAD SWAP1 PUSH1 0x20 ADD KECCAK256 PUSH1 0x0 SHR PUSH2 0x17CD SWAP2 SWAP1 PUSH2 0x2BE6 JUMP JUMPDEST DUP3 DUP3 DUP2 MLOAD DUP2 LT PUSH2 0x1806 JUMPI PUSH32 0x4E487B7100000000000000000000000000000000000000000000000000000000 PUSH1 0x0 MSTORE PUSH1 0x32 PUSH1 0x4 MSTORE PUSH1 0x24 PUSH1 0x0 REVERT JUMPDEST PUSH1 0x20 MUL PUSH1 0x20 ADD ADD DUP2 DUP2 MSTORE POP POP DUP1 DUP1 PUSH2 0x181D SWAP1 PUSH2 0x2B65 JUMP JUMPDEST SWAP2 POP POP PUSH2 0x1789 JUMP JUMPDEST POP SWAP1 JUMP JUMPDEST PUSH1 0x0 DUP1 DUP3 TIMESTAMP CALLER PUSH1 0x8 SLOAD PUSH1 0x40 MLOAD PUSH1 0x20 ADD PUSH2 0x1844 SWAP4 SWAP3 SWAP2 SWAP1 PUSH2 0x2534 JUMP JUMPDEST PUSH1 0x40 MLOAD PUSH1 0x20 DUP2 DUP4 SUB SUB DUP2 MSTORE SWAP1 PUSH1 0x40 MSTORE DUP1 MLOAD SWAP1 PUSH1 0x20 ADD KECCAK256 PUSH1 0x0 SHR PUSH2 0x1867 SWAP2 SWAP1 PUSH2 0x2BE6 JUMP JUMPDEST SWAP1 POP PUSH1 0x8 PUSH1 0x0 DUP2 SLOAD DUP1 SWAP3 SWAP2 SWAP1 PUSH2 0x187C SWAP1 PUSH2 0x2B65 JUMP JUMPDEST SWAP2 SWAP1 POP SSTORE POP DUP1 SWAP2 POP POP SWAP2 SWAP1 POP JUMP JUMPDEST PUSH1 0x60 PUSH1 0x0 DUP3 EQ ISZERO PUSH2 0x18D2 JUMPI PUSH1 0x40 MLOAD DUP1 PUSH1 0x40 ADD PUSH1 0x40 MSTORE DUP1 PUSH1 0x1 DUP2 MSTORE PUSH1 0x20 ADD PUSH32 0x3000000000000000000000000000000000000000000000000000000000000000 DUP2 MSTORE POP SWAP1 POP PUSH2 0x1A5A JUMP JUMPDEST PUSH1 0x0 DUP3 SWAP1 POP PUSH1 0x0 JUMPDEST PUSH1 0x0 DUP3 EQ PUSH2 0x1904 JUMPI DUP1 DUP1 PUSH2 0x18ED SWAP1 PUSH2 0x2B65 JUMP JUMPDEST SWAP2 POP POP PUSH1 0xA DUP3 PUSH2 0x18FD SWAP2 SWAP1 PUSH2 0x29D3 JUMP JUMPDEST SWAP2 POP PUSH2 0x18DA JUMP JUMPDEST PUSH1 0x0 DUP2 PUSH8 0xFFFFFFFFFFFFFFFF DUP2 GT ISZERO PUSH2 0x1946 JUMPI PUSH32 0x4E487B7100000000000000000000000000000000000000000000000000000000 PUSH1 0x0 MSTORE PUSH1 0x41 PUSH1 0x4 MSTORE PUSH1 0x24 PUSH1 0x0 REVERT JUMPDEST PUSH1 0x40 MLOAD SWAP1 DUP1 DUP3 MSTORE DUP1 PUSH1 0x1F ADD PUSH1 0x1F NOT AND PUSH1 0x20 ADD DUP3 ADD PUSH1 0x40 MSTORE DUP1 ISZERO PUSH2 0x1978 JUMPI DUP2 PUSH1 0x20 ADD PUSH1 0x1 DUP3 MUL DUP1 CALLDATASIZE DUP4 CALLDATACOPY DUP1 DUP3 ADD SWAP2 POP POP SWAP1 POP JUMPDEST POP SWAP1 POP PUSH1 0x0 DUP3 SWAP1 POP JUMPDEST PUSH1 0x0 DUP7 EQ PUSH2 0x1A52 JUMPI PUSH1 0x1 DUP2 PUSH2 0x1996 SWAP2 SWAP1 PUSH2 0x2A5E JUMP JUMPDEST SWAP1 POP PUSH1 0x0 PUSH1 0xA DUP1 DUP9 PUSH2 0x19A8 SWAP2 SWAP1 PUSH2 0x29D3 JUMP JUMPDEST PUSH2 0x19B2 SWAP2 SWAP1 PUSH2 0x2A04 JUMP JUMPDEST DUP8 PUSH2 0x19BD SWAP2 SWAP1 PUSH2 0x2A5E JUMP JUMPDEST PUSH1 0x30 PUSH2 0x19C9 SWAP2 SWAP1 PUSH2 0x299C JUMP JUMPDEST SWAP1 POP PUSH1 0x0 DUP2 PUSH1 0xF8 SHL SWAP1 POP DUP1 DUP5 DUP5 DUP2 MLOAD DUP2 LT PUSH2 0x1A0D JUMPI PUSH32 0x4E487B7100000000000000000000000000000000000000000000000000000000 PUSH1 0x0 MSTORE PUSH1 0x32 PUSH1 0x4 MSTORE PUSH1 0x24 PUSH1 0x0 REVERT JUMPDEST PUSH1 0x20 ADD ADD SWAP1 PUSH31 0xFFFFFFFFFFFFFFFFFFFFFFFFFFFFFFFFFFFFFFFFFFFFFFFFFFFFFFFFFFFFFF NOT AND SWAP1 DUP2 PUSH1 0x0 BYTE SWAP1 MSTORE8 POP PUSH1 0xA DUP9 PUSH2 0x1A49 SWAP2 SWAP1 PUSH2 0x29D3 JUMP JUMPDEST SWAP8 POP POP POP PUSH2 0x1981 JUMP JUMPDEST DUP2 SWAP5 POP POP POP POP POP JUMPDEST SWAP2 SWAP1 POP JUMP JUMPDEST PUSH1 0x60 DUP3 DUP3 PUSH1 0x40 MLOAD PUSH1 0x20 ADD PUSH2 0x1A74 SWAP3 SWAP2 SWAP1 PUSH2 0x2510 JUMP JUMPDEST PUSH1 0x40 MLOAD PUSH1 0x20 DUP2 DUP4 SUB SUB DUP2 MSTORE SWAP1 PUSH1 0x40 MSTORE SWAP1 POP SWAP3 SWAP2 POP POP JUMP JUMPDEST DUP1 PUSH1 0x7 DUP2 SWAP1 SSTORE POP POP POP JUMP JUMPDEST PUSH1 0x0 PUSH32 0x0 PUSH20 0xFFFFFFFFFFFFFFFFFFFFFFFFFFFFFFFFFFFFFFFF AND PUSH4 0x4000AEA0 PUSH32 0x0 DUP5 DUP7 PUSH1 0x0 PUSH1 0x40 MLOAD PUSH1 0x20 ADD PUSH2 0x1B0A SWAP3 SWAP2 SWAP1 PUSH2 0x2644 JUMP JUMPDEST PUSH1 0x40 MLOAD PUSH1 0x20 DUP2 DUP4 SUB SUB DUP2 MSTORE SWAP1 PUSH1 0x40 MSTORE PUSH1 0x40 MLOAD DUP5 PUSH4 0xFFFFFFFF AND PUSH1 0xE0 SHL DUP2 MSTORE PUSH1 0x4 ADD PUSH2 0x1B37 SWAP4 SWAP3 SWAP2 SWAP1 PUSH2 0x258C JUMP JUMPDEST PUSH1 0x20 PUSH1 0x40 MLOAD DUP1 DUP4 SUB DUP2 PUSH1 0x0 DUP8 DUP1 EXTCODESIZE ISZERO DUP1 ISZERO PUSH2 0x1B51 JUMPI PUSH1 0x0 DUP1 REVERT JUMPDEST POP GAS CALL ISZERO DUP1 ISZERO PUSH2 0x1B65 JUMPI RETURNDATASIZE PUSH1 0x0 DUP1 RETURNDATACOPY RETURNDATASIZE PUSH1 0x0 REVERT JUMPDEST POP POP POP POP PUSH1 0x40 MLOAD RETURNDATASIZE PUSH1 0x1F NOT PUSH1 0x1F DUP3 ADD AND DUP3 ADD DUP1 PUSH1 0x40 MSTORE POP DUP2 ADD SWAP1 PUSH2 0x1B89 SWAP2 SWAP1 PUSH2 0x1E4F JUMP JUMPDEST POP PUSH1 0x0 PUSH2 0x1BAB DUP5 PUSH1 0x0 ADDRESS PUSH1 0x0 DUP1 DUP10 DUP2 MSTORE PUSH1 0x20 ADD SWAP1 DUP2 MSTORE PUSH1 0x20 ADD PUSH1 0x0 KECCAK256 SLOAD PUSH2 0x1BF5 JUMP JUMPDEST SWAP1 POP PUSH1 0x1 PUSH1 0x0 DUP1 DUP7 DUP2 MSTORE PUSH1 0x20 ADD SWAP1 DUP2 MSTORE PUSH1 0x20 ADD PUSH1 0x0 KECCAK256 SLOAD PUSH2 0x1BCC SWAP2 SWAP1 PUSH2 0x2946 JUMP JUMPDEST PUSH1 0x0 DUP1 DUP7 DUP2 MSTORE PUSH1 0x20 ADD SWAP1 DUP2 MSTORE PUSH1 0x20 ADD PUSH1 0x0 KECCAK256 DUP2 SWAP1 SSTORE POP PUSH2 0x1BEC DUP5 DUP3 PUSH2 0x1C31 JUMP JUMPDEST SWAP2 POP POP SWAP3 SWAP2 POP POP JUMP JUMPDEST PUSH1 0x0 DUP5 DUP5 DUP5 DUP5 PUSH1 0x40 MLOAD PUSH1 0x20 ADD PUSH2 0x1C0E SWAP5 SWAP4 SWAP3 SWAP2 SWAP1 PUSH2 0x266D JUMP JUMPDEST PUSH1 0x40 MLOAD PUSH1 0x20 DUP2 DUP4 SUB SUB DUP2 MSTORE SWAP1 PUSH1 0x40 MSTORE DUP1 MLOAD SWAP1 PUSH1 0x20 ADD KECCAK256 PUSH1 0x0 SHR SWAP1 POP SWAP5 SWAP4 POP POP POP POP JUMP JUMPDEST PUSH1 0x0 DUP3 DUP3 PUSH1 0x40 MLOAD PUSH1 0x20 ADD PUSH2 0x1C46 SWAP3 SWAP2 SWAP1 PUSH2 0x24E4 JUMP JUMPDEST PUSH1 0x40 MLOAD PUSH1 0x20 DUP2 DUP4 SUB SUB DUP2 MSTORE SWAP1 PUSH1 0x40 MSTORE DUP1 MLOAD SWAP1 PUSH1 0x20 ADD KECCAK256 SWAP1 POP SWAP3 SWAP2 POP POP JUMP JUMPDEST PUSH1 0x40 MLOAD DUP1 PUSH1 0xE0 ADD PUSH1 0x40 MSTORE DUP1 PUSH1 0x0 DUP2 MSTORE PUSH1 0x20 ADD PUSH1 0x60 DUP2 MSTORE PUSH1 0x20 ADD PUSH1 0x0 DUP2 MSTORE PUSH1 0x20 ADD PUSH1 0x0 DUP2 MSTORE PUSH1 0x20 ADD PUSH1 0x60 DUP2 MSTORE PUSH1 0x20 ADD PUSH1 0x0 ISZERO ISZERO DUP2 MSTORE PUSH1 0x20 ADD PUSH1 0x0 DUP2 MSTORE POP SWAP1 JUMP JUMPDEST DUP3 DUP1 SLOAD PUSH2 0x1CAF SWAP1 PUSH2 0x2B33 JUMP JUMPDEST SWAP1 PUSH1 0x0 MSTORE PUSH1 0x20 PUSH1 0x0 KECCAK256 SWAP1 PUSH1 0x1F ADD PUSH1 0x20 SWAP1 DIV DUP2 ADD SWAP3 DUP3 PUSH2 0x1CD1 JUMPI PUSH1 0x0 DUP6 SSTORE PUSH2 0x1D18 JUMP JUMPDEST DUP3 PUSH1 0x1F LT PUSH2 0x1CEA JUMPI DUP1 MLOAD PUSH1 0xFF NOT AND DUP4 DUP1 ADD OR DUP6 SSTORE PUSH2 0x1D18 JUMP JUMPDEST DUP3 DUP1 ADD PUSH1 0x1 ADD DUP6 SSTORE DUP3 ISZERO PUSH2 0x1D18 JUMPI SWAP2 DUP3 ADD JUMPDEST DUP3 DUP2 GT ISZERO PUSH2 0x1D17 JUMPI DUP3 MLOAD DUP3 SSTORE SWAP2 PUSH1 0x20 ADD SWAP2 SWAP1 PUSH1 0x1 ADD SWAP1 PUSH2 0x1CFC JUMP JUMPDEST JUMPDEST POP SWAP1 POP PUSH2 0x1D25 SWAP2 SWAP1 PUSH2 0x1D76 JUMP JUMPDEST POP SWAP1 JUMP JUMPDEST DUP3 DUP1 SLOAD DUP3 DUP3 SSTORE SWAP1 PUSH1 0x0 MSTORE PUSH1 0x20 PUSH1 0x0 KECCAK256 SWAP1 DUP2 ADD SWAP3 DUP3 ISZERO PUSH2 0x1D65 JUMPI SWAP2 PUSH1 0x20 MUL DUP3 ADD JUMPDEST DUP3 DUP2 GT ISZERO PUSH2 0x1D64 JUMPI DUP3 MLOAD DUP3 SSTORE SWAP2 PUSH1 0x20 ADD SWAP2 SWAP1 PUSH1 0x1 ADD SWAP1 PUSH2 0x1D49 JUMP JUMPDEST JUMPDEST POP SWAP1 POP PUSH2 0x1D72 SWAP2 SWAP1 PUSH2 0x1D76 JUMP JUMPDEST POP SWAP1 JUMP JUMPDEST JUMPDEST DUP1 DUP3 GT ISZERO PUSH2 0x1D8F JUMPI PUSH1 0x0 DUP2 PUSH1 0x0 SWAP1 SSTORE POP PUSH1 0x1 ADD PUSH2 0x1D77 JUMP JUMPDEST POP SWAP1 JUMP JUMPDEST PUSH1 0x0 PUSH2 0x1DA6 PUSH2 0x1DA1 DUP5 PUSH2 0x2850 JUMP JUMPDEST PUSH2 0x281F JUMP JUMPDEST SWAP1 POP DUP3 DUP2 MSTORE PUSH1 0x20 DUP2 ADD DUP5 DUP5 DUP5 ADD GT ISZERO PUSH2 0x1DBE JUMPI PUSH1 0x0 DUP1 REVERT JUMPDEST PUSH2 0x1DC9 DUP5 DUP3 DUP6 PUSH2 0x2AF1 JUMP JUMPDEST POP SWAP4 SWAP3 POP POP POP JUMP JUMPDEST PUSH1 0x0 DUP2 MLOAD SWAP1 POP PUSH2 0x1DE0 DUP2 PUSH2 0x2CF1 JUMP JUMPDEST SWAP3 SWAP2 POP POP JUMP JUMPDEST PUSH1 0x0 DUP2 CALLDATALOAD SWAP1 POP PUSH2 0x1DF5 DUP2 PUSH2 0x2D08 JUMP JUMPDEST SWAP3 SWAP2 POP POP JUMP JUMPDEST PUSH1 0x0 DUP3 PUSH1 0x1F DUP4 ADD SLT PUSH2 0x1E0C JUMPI PUSH1 0x0 DUP1 REVERT JUMPDEST DUP2 CALLDATALOAD PUSH2 0x1E1C DUP5 DUP3 PUSH1 0x20 DUP7 ADD PUSH2 0x1D93 JUMP JUMPDEST SWAP2 POP POP SWAP3 SWAP2 POP POP JUMP JUMPDEST PUSH1 0x0 DUP2 CALLDATALOAD SWAP1 POP PUSH2 0x1E34 DUP2 PUSH2 0x2D1F JUMP JUMPDEST SWAP3 SWAP2 POP POP JUMP JUMPDEST PUSH1 0x0 DUP2 MLOAD SWAP1 POP PUSH2 0x1E49 DUP2 PUSH2 0x2D1F JUMP JUMPDEST SWAP3 SWAP2 POP POP JUMP JUMPDEST PUSH1 0x0 PUSH1 0x20 DUP3 DUP5 SUB SLT ISZERO PUSH2 0x1E61 JUMPI PUSH1 0x0 DUP1 REVERT JUMPDEST PUSH1 0x0 PUSH2 0x1E6F DUP5 DUP3 DUP6 ADD PUSH2 0x1DD1 JUMP JUMPDEST SWAP2 POP POP SWAP3 SWAP2 POP POP JUMP JUMPDEST PUSH1 0x0 DUP1 PUSH1 0x40 DUP4 DUP6 SUB SLT ISZERO PUSH2 0x1E8B JUMPI PUSH1 0x0 DUP1 REVERT JUMPDEST PUSH1 0x0 PUSH2 0x1E99 DUP6 DUP3 DUP7 ADD PUSH2 0x1DE6 JUMP JUMPDEST SWAP3 POP POP PUSH1 0x20 PUSH2 0x1EAA DUP6 DUP3 DUP7 ADD PUSH2 0x1E25 JUMP JUMPDEST SWAP2 POP POP SWAP3 POP SWAP3 SWAP1 POP JUMP JUMPDEST PUSH1 0x0 PUSH1 0x20 DUP3 DUP5 SUB SLT ISZERO PUSH2 0x1EC6 JUMPI PUSH1 0x0 DUP1 REVERT JUMPDEST PUSH1 0x0 PUSH2 0x1ED4 DUP5 DUP3 DUP6 ADD PUSH2 0x1E25 JUMP JUMPDEST SWAP2 POP POP SWAP3 SWAP2 POP POP JUMP JUMPDEST PUSH1 0x0 PUSH1 0x20 DUP3 DUP5 SUB SLT ISZERO PUSH2 0x1EEF JUMPI PUSH1 0x0 DUP1 REVERT JUMPDEST PUSH1 0x0 PUSH2 0x1EFD DUP5 DUP3 DUP6 ADD PUSH2 0x1E3A JUMP JUMPDEST SWAP2 POP POP SWAP3 SWAP2 POP POP JUMP JUMPDEST PUSH1 0x0 DUP1 PUSH1 0x0 DUP1 PUSH1 0x80 DUP6 DUP8 SUB SLT ISZERO PUSH2 0x1F1C JUMPI PUSH1 0x0 DUP1 REVERT JUMPDEST PUSH1 0x0 PUSH2 0x1F2A DUP8 DUP3 DUP9 ADD PUSH2 0x1E25 JUMP JUMPDEST SWAP5 POP POP PUSH1 0x20 DUP6 ADD CALLDATALOAD PUSH8 0xFFFFFFFFFFFFFFFF DUP2 GT ISZERO PUSH2 0x1F47 JUMPI PUSH1 0x0 DUP1 REVERT JUMPDEST PUSH2 0x1F53 DUP8 DUP3 DUP9 ADD PUSH2 0x1DFB JUMP JUMPDEST SWAP4 POP POP PUSH1 0x40 DUP6 ADD CALLDATALOAD PUSH8 0xFFFFFFFFFFFFFFFF DUP2 GT ISZERO PUSH2 0x1F70 JUMPI PUSH1 0x0 DUP1 REVERT JUMPDEST PUSH2 0x1F7C DUP8 DUP3 DUP9 ADD PUSH2 0x1DFB JUMP JUMPDEST SWAP3 POP POP PUSH1 0x60 PUSH2 0x1F8D DUP8 DUP3 DUP9 ADD PUSH2 0x1E25 JUMP JUMPDEST SWAP2 POP POP SWAP3 SWAP6 SWAP2 SWAP5 POP SWAP3 POP JUMP JUMPDEST PUSH1 0x0 DUP1 PUSH1 0x0 DUP1 PUSH1 0x0 PUSH1 0xA0 DUP7 DUP9 SUB SLT ISZERO PUSH2 0x1FB1 JUMPI PUSH1 0x0 DUP1 REVERT JUMPDEST PUSH1 0x0 PUSH2 0x1FBF DUP9 DUP3 DUP10 ADD PUSH2 0x1E25 JUMP JUMPDEST SWAP6 POP POP PUSH1 0x20 PUSH2 0x1FD0 DUP9 DUP3 DUP10 ADD PUSH2 0x1E25 JUMP JUMPDEST SWAP5 POP POP PUSH1 0x40 DUP7 ADD CALLDATALOAD PUSH8 0xFFFFFFFFFFFFFFFF DUP2 GT ISZERO PUSH2 0x1FED JUMPI PUSH1 0x0 DUP1 REVERT JUMPDEST PUSH2 0x1FF9 DUP9 DUP3 DUP10 ADD PUSH2 0x1DFB JUMP JUMPDEST SWAP4 POP POP PUSH1 0x60 DUP7 ADD CALLDATALOAD PUSH8 0xFFFFFFFFFFFFFFFF DUP2 GT ISZERO PUSH2 0x2016 JUMPI PUSH1 0x0 DUP1 REVERT JUMPDEST PUSH2 0x2022 DUP9 DUP3 DUP10 ADD PUSH2 0x1DFB JUMP JUMPDEST SWAP3 POP POP PUSH1 0x80 DUP7 ADD CALLDATALOAD PUSH8 0xFFFFFFFFFFFFFFFF DUP2 GT ISZERO PUSH2 0x203F JUMPI PUSH1 0x0 DUP1 REVERT JUMPDEST PUSH2 0x204B DUP9 DUP3 DUP10 ADD PUSH2 0x1DFB JUMP JUMPDEST SWAP2 POP POP SWAP3 SWAP6 POP SWAP3 SWAP6 SWAP1 SWAP4 POP JUMP JUMPDEST PUSH1 0x0 DUP1 PUSH1 0x0 DUP1 PUSH1 0x80 DUP6 DUP8 SUB SLT ISZERO PUSH2 0x206E JUMPI PUSH1 0x0 DUP1 REVERT JUMPDEST PUSH1 0x0 PUSH2 0x207C DUP8 DUP3 DUP9 ADD PUSH2 0x1E25 JUMP JUMPDEST SWAP5 POP POP PUSH1 0x20 PUSH2 0x208D DUP8 DUP3 DUP9 ADD PUSH2 0x1E25 JUMP JUMPDEST SWAP4 POP POP PUSH1 0x40 PUSH2 0x209E DUP8 DUP3 DUP9 ADD PUSH2 0x1E25 JUMP JUMPDEST SWAP3 POP POP PUSH1 0x60 PUSH2 0x20AF DUP8 DUP3 DUP9 ADD PUSH2 0x1E25 JUMP JUMPDEST SWAP2 POP POP SWAP3 SWAP6 SWAP2 SWAP5 POP SWAP3 POP JUMP JUMPDEST PUSH1 0x0 PUSH2 0x20C7 DUP4 DUP4 PUSH2 0x240C JUMP JUMPDEST SWAP1 POP SWAP3 SWAP2 POP POP JUMP JUMPDEST PUSH1 0x0 PUSH2 0x20DB DUP4 DUP4 PUSH2 0x24AF JUMP JUMPDEST PUSH1 0x20 DUP4 ADD SWAP1 POP SWAP3 SWAP2 POP POP JUMP JUMPDEST PUSH2 0x20F0 DUP2 PUSH2 0x2A92 JUMP JUMPDEST DUP3 MSTORE POP POP JUMP JUMPDEST PUSH2 0x2107 PUSH2 0x2102 DUP3 PUSH2 0x2A92 JUMP JUMPDEST PUSH2 0x2BAE JUMP JUMPDEST DUP3 MSTORE POP POP JUMP JUMPDEST PUSH1 0x0 PUSH2 0x2118 DUP3 PUSH2 0x28A0 JUMP JUMPDEST PUSH2 0x2122 DUP2 DUP6 PUSH2 0x28E6 JUMP JUMPDEST SWAP4 POP DUP4 PUSH1 0x20 DUP3 MUL DUP6 ADD PUSH2 0x2134 DUP6 PUSH2 0x2880 JUMP JUMPDEST DUP1 PUSH1 0x0 JUMPDEST DUP6 DUP2 LT ISZERO PUSH2 0x2170 JUMPI DUP5 DUP5 SUB DUP10 MSTORE DUP2 MLOAD PUSH2 0x2151 DUP6 DUP3 PUSH2 0x20BB JUMP JUMPDEST SWAP5 POP PUSH2 0x215C DUP4 PUSH2 0x28CC JUMP JUMPDEST SWAP3 POP PUSH1 0x20 DUP11 ADD SWAP10 POP POP PUSH1 0x1 DUP2 ADD SWAP1 POP PUSH2 0x2138 JUMP JUMPDEST POP DUP3 SWAP8 POP DUP8 SWAP6 POP POP POP POP POP POP SWAP3 SWAP2 POP POP JUMP JUMPDEST PUSH1 0x0 PUSH2 0x218D DUP3 PUSH2 0x28AB JUMP JUMPDEST PUSH2 0x2197 DUP2 DUP6 PUSH2 0x28F7 JUMP JUMPDEST SWAP4 POP PUSH2 0x21A2 DUP4 PUSH2 0x2890 JUMP JUMPDEST DUP1 PUSH1 0x0 JUMPDEST DUP4 DUP2 LT ISZERO PUSH2 0x21D3 JUMPI DUP2 MLOAD PUSH2 0x21BA DUP9 DUP3 PUSH2 0x20CF JUMP JUMPDEST SWAP8 POP PUSH2 0x21C5 DUP4 PUSH2 0x28D9 JUMP JUMPDEST SWAP3 POP POP PUSH1 0x1 DUP2 ADD SWAP1 POP PUSH2 0x21A6 JUMP JUMPDEST POP DUP6 SWAP4 POP POP POP POP SWAP3 SWAP2 POP POP JUMP JUMPDEST PUSH2 0x21E9 DUP2 PUSH2 0x2AA4 JUMP JUMPDEST DUP3 MSTORE POP POP JUMP JUMPDEST PUSH2 0x21F8 DUP2 PUSH2 0x2AA4 JUMP JUMPDEST DUP3 MSTORE POP POP JUMP JUMPDEST PUSH2 0x2207 DUP2 PUSH2 0x2AB0 JUMP JUMPDEST DUP3 MSTORE POP POP JUMP JUMPDEST PUSH2 0x221E PUSH2 0x2219 DUP3 PUSH2 0x2AB0 JUMP JUMPDEST PUSH2 0x2BC0 JUMP JUMPDEST DUP3 MSTORE POP POP JUMP JUMPDEST PUSH1 0x0 PUSH2 0x222F DUP3 PUSH2 0x28B6 JUMP JUMPDEST PUSH2 0x2239 DUP2 DUP6 PUSH2 0x2908 JUMP JUMPDEST SWAP4 POP PUSH2 0x2249 DUP2 DUP6 PUSH1 0x20 DUP7 ADD PUSH2 0x2B00 JUMP JUMPDEST PUSH2 0x2252 DUP2 PUSH2 0x2CD3 JUMP JUMPDEST DUP5 ADD SWAP2 POP POP SWAP3 SWAP2 POP POP JUMP JUMPDEST PUSH1 0x0 PUSH2 0x2268 DUP3 PUSH2 0x28C1 JUMP JUMPDEST PUSH2 0x2272 DUP2 DUP6 PUSH2 0x2919 JUMP JUMPDEST SWAP4 POP PUSH2 0x2282 DUP2 DUP6 PUSH1 0x20 DUP7 ADD PUSH2 0x2B00 JUMP JUMPDEST PUSH2 0x228B DUP2 PUSH2 0x2CD3 JUMP JUMPDEST DUP5 ADD SWAP2 POP POP SWAP3 SWAP2 POP POP JUMP JUMPDEST PUSH1 0x0 PUSH2 0x22A1 DUP3 PUSH2 0x28C1 JUMP JUMPDEST PUSH2 0x22AB DUP2 DUP6 PUSH2 0x292A JUMP JUMPDEST SWAP4 POP PUSH2 0x22BB DUP2 DUP6 PUSH1 0x20 DUP7 ADD PUSH2 0x2B00 JUMP JUMPDEST PUSH2 0x22C4 DUP2 PUSH2 0x2CD3 JUMP JUMPDEST DUP5 ADD SWAP2 POP POP SWAP3 SWAP2 POP POP JUMP JUMPDEST PUSH1 0x0 PUSH2 0x22DA DUP3 PUSH2 0x28C1 JUMP JUMPDEST PUSH2 0x22E4 DUP2 DUP6 PUSH2 0x293B JUMP JUMPDEST SWAP4 POP PUSH2 0x22F4 DUP2 DUP6 PUSH1 0x20 DUP7 ADD PUSH2 0x2B00 JUMP JUMPDEST DUP1 DUP5 ADD SWAP2 POP POP SWAP3 SWAP2 POP POP JUMP JUMPDEST PUSH1 0x0 PUSH2 0x230D PUSH1 0x2B DUP4 PUSH2 0x292A JUMP JUMPDEST SWAP2 POP PUSH32 0x4E6F7420656E6F756768204C494E4B202D2066696C6C20636F6E747261637420 PUSH1 0x0 DUP4 ADD MSTORE PUSH32 0x7769746820666175636574000000000000000000000000000000000000000000 PUSH1 0x20 DUP4 ADD MSTORE PUSH1 0x40 DUP3 ADD SWAP1 POP SWAP2 SWAP1 POP JUMP JUMPDEST PUSH1 0x0 PUSH2 0x2373 PUSH1 0x1F DUP4 PUSH2 0x292A JUMP JUMPDEST SWAP2 POP PUSH32 0x4F6E6C7920565246436F6F7264696E61746F722063616E2066756C66696C6C00 PUSH1 0x0 DUP4 ADD MSTORE PUSH1 0x20 DUP3 ADD SWAP1 POP SWAP2 SWAP1 POP JUMP JUMPDEST PUSH1 0x0 PUSH2 0x23B3 PUSH1 0x21 DUP4 PUSH2 0x292A JUMP JUMPDEST SWAP2 POP PUSH32 0x54686973204F5243494420697320616C72656164792072656769737465726564 PUSH1 0x0 DUP4 ADD MSTORE PUSH32 0x2E00000000000000000000000000000000000000000000000000000000000000 PUSH1 0x20 DUP4 ADD MSTORE PUSH1 0x40 DUP3 ADD SWAP1 POP SWAP2 SWAP1 POP JUMP JUMPDEST PUSH1 0x0 PUSH1 0xE0 DUP4 ADD PUSH1 0x0 DUP4 ADD MLOAD PUSH2 0x2424 PUSH1 0x0 DUP7 ADD DUP3 PUSH2 0x24AF JUMP JUMPDEST POP PUSH1 0x20 DUP4 ADD MLOAD DUP5 DUP3 SUB PUSH1 0x20 DUP7 ADD MSTORE PUSH2 0x243C DUP3 DUP3 PUSH2 0x225D JUMP JUMPDEST SWAP2 POP POP PUSH1 0x40 DUP4 ADD MLOAD PUSH2 0x2451 PUSH1 0x40 DUP7 ADD DUP3 PUSH2 0x24AF JUMP JUMPDEST POP PUSH1 0x60 DUP4 ADD MLOAD PUSH2 0x2464 PUSH1 0x60 DUP7 ADD DUP3 PUSH2 0x24AF JUMP JUMPDEST POP PUSH1 0x80 DUP4 ADD MLOAD DUP5 DUP3 SUB PUSH1 0x80 DUP7 ADD MSTORE PUSH2 0x247C DUP3 DUP3 PUSH2 0x225D JUMP JUMPDEST SWAP2 POP POP PUSH1 0xA0 DUP4 ADD MLOAD PUSH2 0x2491 PUSH1 0xA0 DUP7 ADD DUP3 PUSH2 0x21E0 JUMP JUMPDEST POP PUSH1 0xC0 DUP4 ADD MLOAD PUSH2 0x24A4 PUSH1 0xC0 DUP7 ADD DUP3 PUSH2 0x24AF JUMP JUMPDEST POP DUP1 SWAP2 POP POP SWAP3 SWAP2 POP POP JUMP JUMPDEST PUSH2 0x24B8 DUP2 PUSH2 0x2ADA JUMP JUMPDEST DUP3 MSTORE POP POP JUMP JUMPDEST PUSH2 0x24C7 DUP2 PUSH2 0x2ADA JUMP JUMPDEST DUP3 MSTORE POP POP JUMP JUMPDEST PUSH2 0x24DE PUSH2 0x24D9 DUP3 PUSH2 0x2ADA JUMP JUMPDEST PUSH2 0x2BDC JUMP JUMPDEST DUP3 MSTORE POP POP JUMP JUMPDEST PUSH1 0x0 PUSH2 0x24F0 DUP3 DUP6 PUSH2 0x220D JUMP JUMPDEST PUSH1 0x20 DUP3 ADD SWAP2 POP PUSH2 0x2500 DUP3 DUP5 PUSH2 0x24CD JUMP JUMPDEST PUSH1 0x20 DUP3 ADD SWAP2 POP DUP2 SWAP1 POP SWAP4 SWAP3 POP POP POP JUMP JUMPDEST PUSH1 0x0 PUSH2 0x251C DUP3 DUP6 PUSH2 0x22CF JUMP JUMPDEST SWAP2 POP PUSH2 0x2528 DUP3 DUP5 PUSH2 0x22CF JUMP JUMPDEST SWAP2 POP DUP2 SWAP1 POP SWAP4 SWAP3 POP POP POP JUMP JUMPDEST PUSH1 0x0 PUSH2 0x2540 DUP3 DUP7 PUSH2 0x24CD JUMP JUMPDEST PUSH1 0x20 DUP3 ADD SWAP2 POP PUSH2 0x2550 DUP3 DUP6 PUSH2 0x20F6 JUMP JUMPDEST PUSH1 0x14 DUP3 ADD SWAP2 POP PUSH2 0x2560 DUP3 DUP5 PUSH2 0x24CD JUMP JUMPDEST PUSH1 0x20 DUP3 ADD SWAP2 POP DUP2 SWAP1 POP SWAP5 SWAP4 POP POP POP POP JUMP JUMPDEST PUSH1 0x0 PUSH1 0x20 DUP3 ADD SWAP1 POP PUSH2 0x2586 PUSH1 0x0 DUP4 ADD DUP5 PUSH2 0x20E7 JUMP JUMPDEST SWAP3 SWAP2 POP POP JUMP JUMPDEST PUSH1 0x0 PUSH1 0x60 DUP3 ADD SWAP1 POP PUSH2 0x25A1 PUSH1 0x0 DUP4 ADD DUP7 PUSH2 0x20E7 JUMP JUMPDEST PUSH2 0x25AE PUSH1 0x20 DUP4 ADD DUP6 PUSH2 0x24BE JUMP JUMPDEST DUP2 DUP2 SUB PUSH1 0x40 DUP4 ADD MSTORE PUSH2 0x25C0 DUP2 DUP5 PUSH2 0x2224 JUMP JUMPDEST SWAP1 POP SWAP5 SWAP4 POP POP POP POP JUMP JUMPDEST PUSH1 0x0 PUSH1 0x20 DUP3 ADD SWAP1 POP DUP2 DUP2 SUB PUSH1 0x0 DUP4 ADD MSTORE PUSH2 0x25E4 DUP2 DUP5 PUSH2 0x210D JUMP JUMPDEST SWAP1 POP SWAP3 SWAP2 POP POP JUMP JUMPDEST PUSH1 0x0 PUSH1 0x20 DUP3 ADD SWAP1 POP DUP2 DUP2 SUB PUSH1 0x0 DUP4 ADD MSTORE PUSH2 0x2606 DUP2 DUP5 PUSH2 0x2182 JUMP JUMPDEST SWAP1 POP SWAP3 SWAP2 POP POP JUMP JUMPDEST PUSH1 0x0 PUSH1 0x20 DUP3 ADD SWAP1 POP PUSH2 0x2623 PUSH1 0x0 DUP4 ADD DUP5 PUSH2 0x21EF JUMP JUMPDEST SWAP3 SWAP2 POP POP JUMP JUMPDEST PUSH1 0x0 PUSH1 0x20 DUP3 ADD SWAP1 POP PUSH2 0x263E PUSH1 0x0 DUP4 ADD DUP5 PUSH2 0x21FE JUMP JUMPDEST SWAP3 SWAP2 POP POP JUMP JUMPDEST PUSH1 0x0 PUSH1 0x40 DUP3 ADD SWAP1 POP PUSH2 0x2659 PUSH1 0x0 DUP4 ADD DUP6 PUSH2 0x21FE JUMP JUMPDEST PUSH2 0x2666 PUSH1 0x20 DUP4 ADD DUP5 PUSH2 0x24BE JUMP JUMPDEST SWAP4 SWAP3 POP POP POP JUMP JUMPDEST PUSH1 0x0 PUSH1 0x80 DUP3 ADD SWAP1 POP PUSH2 0x2682 PUSH1 0x0 DUP4 ADD DUP8 PUSH2 0x21FE JUMP JUMPDEST PUSH2 0x268F PUSH1 0x20 DUP4 ADD DUP7 PUSH2 0x24BE JUMP JUMPDEST PUSH2 0x269C PUSH1 0x40 DUP4 ADD DUP6 PUSH2 0x20E7 JUMP JUMPDEST PUSH2 0x26A9 PUSH1 0x60 DUP4 ADD DUP5 PUSH2 0x24BE JUMP JUMPDEST SWAP6 SWAP5 POP POP POP POP POP JUMP JUMPDEST PUSH1 0x0 PUSH1 0x60 DUP3 ADD SWAP1 POP DUP2 DUP2 SUB PUSH1 0x0 DUP4 ADD MSTORE PUSH2 0x26CC DUP2 DUP7 PUSH2 0x2296 JUMP JUMPDEST SWAP1 POP DUP2 DUP2 SUB PUSH1 0x20 DUP4 ADD MSTORE PUSH2 0x26E0 DUP2 DUP6 PUSH2 0x2296 JUMP JUMPDEST SWAP1 POP DUP2 DUP2 SUB PUSH1 0x40 DUP4 ADD MSTORE PUSH2 0x26F4 DUP2 DUP5 PUSH2 0x2296 JUMP JUMPDEST SWAP1 POP SWAP5 SWAP4 POP POP POP POP JUMP JUMPDEST PUSH1 0x0 PUSH1 0x20 DUP3 ADD SWAP1 POP DUP2 DUP2 SUB PUSH1 0x0 DUP4 ADD MSTORE PUSH2 0x2717 DUP2 PUSH2 0x2300 JUMP JUMPDEST SWAP1 POP SWAP2 SWAP1 POP JUMP JUMPDEST PUSH1 0x0 PUSH1 0x20 DUP3 ADD SWAP1 POP DUP2 DUP2 SUB PUSH1 0x0 DUP4 ADD MSTORE PUSH2 0x2737 DUP2 PUSH2 0x2366 JUMP JUMPDEST SWAP1 POP SWAP2 SWAP1 POP JUMP JUMPDEST PUSH1 0x0 PUSH1 0x20 DUP3 ADD SWAP1 POP DUP2 DUP2 SUB PUSH1 0x0 DUP4 ADD MSTORE PUSH2 0x2757 DUP2 PUSH2 0x23A6 JUMP JUMPDEST SWAP1 POP SWAP2 SWAP1 POP JUMP JUMPDEST PUSH1 0x0 PUSH1 0x20 DUP3 ADD SWAP1 POP PUSH2 0x2773 PUSH1 0x0 DUP4 ADD DUP5 PUSH2 0x24BE JUMP JUMPDEST SWAP3 SWAP2 POP POP JUMP JUMPDEST PUSH1 0x0 PUSH1 0xE0 DUP3 ADD SWAP1 POP PUSH2 0x278E PUSH1 0x0 DUP4 ADD DUP11 PUSH2 0x24BE JUMP JUMPDEST DUP2 DUP2 SUB PUSH1 0x20 DUP4 ADD MSTORE PUSH2 0x27A0 DUP2 DUP10 PUSH2 0x2296 JUMP JUMPDEST SWAP1 POP PUSH2 0x27AF PUSH1 0x40 DUP4 ADD DUP9 PUSH2 0x24BE JUMP JUMPDEST PUSH2 0x27BC PUSH1 0x60 DUP4 ADD DUP8 PUSH2 0x24BE JUMP JUMPDEST DUP2 DUP2 SUB PUSH1 0x80 DUP4 ADD MSTORE PUSH2 0x27CE DUP2 DUP7 PUSH2 0x2296 JUMP JUMPDEST SWAP1 POP PUSH2 0x27DD PUSH1 0xA0 DUP4 ADD DUP6 PUSH2 0x21EF JUMP JUMPDEST PUSH2 0x27EA PUSH1 0xC0 DUP4 ADD DUP5 PUSH2 0x24BE JUMP JUMPDEST SWAP9 SWAP8 POP POP POP POP POP POP POP POP JUMP JUMPDEST PUSH1 0x0 PUSH1 0x40 DUP3 ADD SWAP1 POP PUSH2 0x280B PUSH1 0x0 DUP4 ADD DUP6 PUSH2 0x24BE JUMP JUMPDEST PUSH2 0x2818 PUSH1 0x20 DUP4 ADD DUP5 PUSH2 0x24BE JUMP JUMPDEST SWAP4 SWAP3 POP POP POP JUMP JUMPDEST PUSH1 0x0 PUSH1 0x40 MLOAD SWAP1 POP DUP2 DUP2 ADD DUP2 DUP2 LT PUSH8 0xFFFFFFFFFFFFFFFF DUP3 GT OR ISZERO PUSH2 0x2846 JUMPI PUSH2 0x2845 PUSH2 0x2CA4 JUMP JUMPDEST JUMPDEST DUP1 PUSH1 0x40 MSTORE POP SWAP2 SWAP1 POP JUMP JUMPDEST PUSH1 0x0 PUSH8 0xFFFFFFFFFFFFFFFF DUP3 GT ISZERO PUSH2 0x286B JUMPI PUSH2 0x286A PUSH2 0x2CA4 JUMP JUMPDEST JUMPDEST PUSH1 0x1F NOT PUSH1 0x1F DUP4 ADD AND SWAP1 POP PUSH1 0x20 DUP2 ADD SWAP1 POP SWAP2 SWAP1 POP JUMP JUMPDEST PUSH1 0x0 DUP2 SWAP1 POP PUSH1 0x20 DUP3 ADD SWAP1 POP SWAP2 SWAP1 POP JUMP JUMPDEST PUSH1 0x0 DUP2 SWAP1 POP PUSH1 0x20 DUP3 ADD SWAP1 POP SWAP2 SWAP1 POP JUMP JUMPDEST PUSH1 0x0 DUP2 MLOAD SWAP1 POP SWAP2 SWAP1 POP JUMP JUMPDEST PUSH1 0x0 DUP2 MLOAD SWAP1 POP SWAP2 SWAP1 POP JUMP JUMPDEST PUSH1 0x0 DUP2 MLOAD SWAP1 POP SWAP2 SWAP1 POP JUMP JUMPDEST PUSH1 0x0 DUP2 MLOAD SWAP1 POP SWAP2 SWAP1 POP JUMP JUMPDEST PUSH1 0x0 PUSH1 0x20 DUP3 ADD SWAP1 POP SWAP2 SWAP1 POP JUMP JUMPDEST PUSH1 0x0 PUSH1 0x20 DUP3 ADD SWAP1 POP SWAP2 SWAP1 POP JUMP JUMPDEST PUSH1 0x0 DUP3 DUP3 MSTORE PUSH1 0x20 DUP3 ADD SWAP1 POP SWAP3 SWAP2 POP POP JUMP JUMPDEST PUSH1 0x0 DUP3 DUP3 MSTORE PUSH1 0x20 DUP3 ADD SWAP1 POP SWAP3 SWAP2 POP POP JUMP JUMPDEST PUSH1 0x0 DUP3 DUP3 MSTORE PUSH1 0x20 DUP3 ADD SWAP1 POP SWAP3 SWAP2 POP POP JUMP JUMPDEST PUSH1 0x0 DUP3 DUP3 MSTORE PUSH1 0x20 DUP3 ADD SWAP1 POP SWAP3 SWAP2 POP POP JUMP JUMPDEST PUSH1 0x0 DUP3 DUP3 MSTORE PUSH1 0x20 DUP3 ADD SWAP1 POP SWAP3 SWAP2 POP POP JUMP JUMPDEST PUSH1 0x0 DUP2 SWAP1 POP SWAP3 SWAP2 POP POP JUMP JUMPDEST PUSH1 0x0 PUSH2 0x2951 DUP3 PUSH2 0x2ADA JUMP JUMPDEST SWAP2 POP PUSH2 0x295C DUP4 PUSH2 0x2ADA JUMP JUMPDEST SWAP3 POP DUP3 PUSH32 0xFFFFFFFFFFFFFFFFFFFFFFFFFFFFFFFFFFFFFFFFFFFFFFFFFFFFFFFFFFFFFFFF SUB DUP3 GT ISZERO PUSH2 0x2991 JUMPI PUSH2 0x2990 PUSH2 0x2C17 JUMP JUMPDEST JUMPDEST DUP3 DUP3 ADD SWAP1 POP SWAP3 SWAP2 POP POP JUMP JUMPDEST PUSH1 0x0 PUSH2 0x29A7 DUP3 PUSH2 0x2AE4 JUMP JUMPDEST SWAP2 POP PUSH2 0x29B2 DUP4 PUSH2 0x2AE4 JUMP JUMPDEST SWAP3 POP DUP3 PUSH1 0xFF SUB DUP3 GT ISZERO PUSH2 0x29C8 JUMPI PUSH2 0x29C7 PUSH2 0x2C17 JUMP JUMPDEST JUMPDEST DUP3 DUP3 ADD SWAP1 POP SWAP3 SWAP2 POP POP JUMP JUMPDEST PUSH1 0x0 PUSH2 0x29DE DUP3 PUSH2 0x2ADA JUMP JUMPDEST SWAP2 POP PUSH2 0x29E9 DUP4 PUSH2 0x2ADA JUMP JUMPDEST SWAP3 POP DUP3 PUSH2 0x29F9 JUMPI PUSH2 0x29F8 PUSH2 0x2C46 JUMP JUMPDEST JUMPDEST DUP3 DUP3 DIV SWAP1 POP SWAP3 SWAP2 POP POP JUMP JUMPDEST PUSH1 0x0 PUSH2 0x2A0F DUP3 PUSH2 0x2ADA JUMP JUMPDEST SWAP2 POP PUSH2 0x2A1A DUP4 PUSH2 0x2ADA JUMP JUMPDEST SWAP3 POP DUP2 PUSH32 0xFFFFFFFFFFFFFFFFFFFFFFFFFFFFFFFFFFFFFFFFFFFFFFFFFFFFFFFFFFFFFFFF DIV DUP4 GT DUP3 ISZERO ISZERO AND ISZERO PUSH2 0x2A53 JUMPI PUSH2 0x2A52 PUSH2 0x2C17 JUMP JUMPDEST JUMPDEST DUP3 DUP3 MUL SWAP1 POP SWAP3 SWAP2 POP POP JUMP JUMPDEST PUSH1 0x0 PUSH2 0x2A69 DUP3 PUSH2 0x2ADA JUMP JUMPDEST SWAP2 POP PUSH2 0x2A74 DUP4 PUSH2 0x2ADA JUMP JUMPDEST SWAP3 POP DUP3 DUP3 LT ISZERO PUSH2 0x2A87 JUMPI PUSH2 0x2A86 PUSH2 0x2C17 JUMP JUMPDEST JUMPDEST DUP3 DUP3 SUB SWAP1 POP SWAP3 SWAP2 POP POP JUMP JUMPDEST PUSH1 0x0 PUSH2 0x2A9D DUP3 PUSH2 0x2ABA JUMP JUMPDEST SWAP1 POP SWAP2 SWAP1 POP JUMP JUMPDEST PUSH1 0x0 DUP2 ISZERO ISZERO SWAP1 POP SWAP2 SWAP1 POP JUMP JUMPDEST PUSH1 0x0 DUP2 SWAP1 POP SWAP2 SWAP1 POP JUMP JUMPDEST PUSH1 0x0 PUSH20 0xFFFFFFFFFFFFFFFFFFFFFFFFFFFFFFFFFFFFFFFF DUP3 AND SWAP1 POP SWAP2 SWAP1 POP JUMP JUMPDEST PUSH1 0x0 DUP2 SWAP1 POP SWAP2 SWAP1 POP JUMP JUMPDEST PUSH1 0x0 PUSH1 0xFF DUP3 AND SWAP1 POP SWAP2 SWAP1 POP JUMP JUMPDEST DUP3 DUP2 DUP4 CALLDATACOPY PUSH1 0x0 DUP4 DUP4 ADD MSTORE POP POP POP JUMP JUMPDEST PUSH1 0x0 JUMPDEST DUP4 DUP2 LT ISZERO PUSH2 0x2B1E JUMPI DUP1 DUP3 ADD MLOAD DUP2 DUP5 ADD MSTORE PUSH1 0x20 DUP2 ADD SWAP1 POP PUSH2 0x2B03 JUMP JUMPDEST DUP4 DUP2 GT ISZERO PUSH2 0x2B2D JUMPI PUSH1 0x0 DUP5 DUP5 ADD MSTORE JUMPDEST POP POP POP POP JUMP JUMPDEST PUSH1 0x0 PUSH1 0x2 DUP3 DIV SWAP1 POP PUSH1 0x1 DUP3 AND DUP1 PUSH2 0x2B4B JUMPI PUSH1 0x7F DUP3 AND SWAP2 POP JUMPDEST PUSH1 0x20 DUP3 LT DUP2 EQ ISZERO PUSH2 0x2B5F JUMPI PUSH2 0x2B5E PUSH2 0x2C75 JUMP JUMPDEST JUMPDEST POP SWAP2 SWAP1 POP JUMP JUMPDEST PUSH1 0x0 PUSH2 0x2B70 DUP3 PUSH2 0x2ADA JUMP JUMPDEST SWAP2 POP PUSH32 0xFFFFFFFFFFFFFFFFFFFFFFFFFFFFFFFFFFFFFFFFFFFFFFFFFFFFFFFFFFFFFFFF DUP3 EQ ISZERO PUSH2 0x2BA3 JUMPI PUSH2 0x2BA2 PUSH2 0x2C17 JUMP JUMPDEST JUMPDEST PUSH1 0x1 DUP3 ADD SWAP1 POP SWAP2 SWAP1 POP JUMP JUMPDEST PUSH1 0x0 PUSH2 0x2BB9 DUP3 PUSH2 0x2BCA JUMP JUMPDEST SWAP1 POP SWAP2 SWAP1 POP JUMP JUMPDEST PUSH1 0x0 DUP2 SWAP1 POP SWAP2 SWAP1 POP JUMP JUMPDEST PUSH1 0x0 PUSH2 0x2BD5 DUP3 PUSH2 0x2CE4 JUMP JUMPDEST SWAP1 POP SWAP2 SWAP1 POP JUMP JUMPDEST PUSH1 0x0 DUP2 SWAP1 POP SWAP2 SWAP1 POP JUMP JUMPDEST PUSH1 0x0 PUSH2 0x2BF1 DUP3 PUSH2 0x2ADA JUMP JUMPDEST SWAP2 POP PUSH2 0x2BFC DUP4 PUSH2 0x2ADA JUMP JUMPDEST SWAP3 POP DUP3 PUSH2 0x2C0C JUMPI PUSH2 0x2C0B PUSH2 0x2C46 JUMP JUMPDEST JUMPDEST DUP3 DUP3 MOD SWAP1 POP SWAP3 SWAP2 POP POP JUMP JUMPDEST PUSH32 0x4E487B7100000000000000000000000000000000000000000000000000000000 PUSH1 0x0 MSTORE PUSH1 0x11 PUSH1 0x4 MSTORE PUSH1 0x24 PUSH1 0x0 REVERT JUMPDEST PUSH32 0x4E487B7100000000000000000000000000000000000000000000000000000000 PUSH1 0x0 MSTORE PUSH1 0x12 PUSH1 0x4 MSTORE PUSH1 0x24 PUSH1 0x0 REVERT JUMPDEST PUSH32 0x4E487B7100000000000000000000000000000000000000000000000000000000 PUSH1 0x0 MSTORE PUSH1 0x22 PUSH1 0x4 MSTORE PUSH1 0x24 PUSH1 0x0 REVERT JUMPDEST PUSH32 0x4E487B7100000000000000000000000000000000000000000000000000000000 PUSH1 0x0 MSTORE PUSH1 0x41 PUSH1 0x4 MSTORE PUSH1 0x24 PUSH1 0x0 REVERT JUMPDEST PUSH1 0x0 PUSH1 0x1F NOT PUSH1 0x1F DUP4 ADD AND SWAP1 POP SWAP2 SWAP1 POP JUMP JUMPDEST PUSH1 0x0 DUP2 PUSH1 0x60 SHL SWAP1 POP SWAP2 SWAP1 POP JUMP JUMPDEST PUSH2 0x2CFA DUP2 PUSH2 0x2AA4 JUMP JUMPDEST DUP2 EQ PUSH2 0x2D05 JUMPI PUSH1 0x0 DUP1 REVERT JUMPDEST POP JUMP JUMPDEST PUSH2 0x2D11 DUP2 PUSH2 0x2AB0 JUMP JUMPDEST DUP2 EQ PUSH2 0x2D1C JUMPI PUSH1 0x0 DUP1 REVERT JUMPDEST POP JUMP JUMPDEST PUSH2 0x2D28 DUP2 PUSH2 0x2ADA JUMP JUMPDEST DUP2 EQ PUSH2 0x2D33 JUMPI PUSH1 0x0 DUP1 REVERT JUMPDEST POP JUMP INVALID LOG2 PUSH5 0x6970667358 0x22 SLT KECCAK256 SIGNEXTEND NUMBER 0x2D 0xD0 0xC2 0x4A 0xAA 0x5E 0xD8 PUSH32 0x682E6C710C22FBCB24B4257185DA538F38EFF60AE45064736F6C634300080000 CALLER "
        },
        "methodIdentifiers": {
          "checkPass(uint256)": "0eea10b2",
          "createAInstance(uint256,uint256,uint256,uint256)": "7e8b7e3e",
          "createBInstance(uint256,uint256,uint256,uint256)": "8ed0fbe7",
          "getAllInstances(uint256)": "4dde53ab",
          "getDateNumber(uint256)": "070a6e95",
          "getHash(uint256)": "6b2fafa9",
          "getInstance(uint256)": "ebd348de",
          "getRandomNumber(uint256)": "b37217a4",
          "getRemainingLINK()": "8f006527",
          "randomResult()": "42619f66",
          "rawFulfillRandomness(bytes32,uint256)": "94985ddd",
          "setResearcher(uint256,string,string,uint256)": "db7bbdb3",
          "solveInstance(uint256,uint256,string,string,string)": "9878ca2c"
        }
      }
    }
  }
}