{
  "_format": "hh-sol-artifact-1",
  "contractName": "Generator",
  "sourceName": "contracts/Generator.sol",
  "abi": [
    {
      "inputs": [],
      "stateMutability": "nonpayable",
      "type": "constructor"
    },
    {
      "inputs": [
        {
          "internalType": "uint256",
          "name": "_secret",
          "type": "uint256"
        }
      ],
      "name": "checkPass",
      "outputs": [
        {
          "internalType": "bool",
          "name": "",
          "type": "bool"
        }
      ],
      "stateMutability": "view",
      "type": "function"
    },
    {
      "inputs": [
        {
          "internalType": "uint256",
          "name": "_p",
          "type": "uint256"
        },
        {
          "internalType": "uint256",
          "name": "_q",
          "type": "uint256"
        },
        {
          "internalType": "uint256",
          "name": "_secret",
          "type": "uint256"
        },
        {
          "internalType": "uint256",
          "name": "_numInstances",
          "type": "uint256"
        }
      ],
      "name": "createAInstance",
      "outputs": [],
      "stateMutability": "nonpayable",
      "type": "function"
    },
    {
      "inputs": [
        {
          "internalType": "uint256",
          "name": "_p",
          "type": "uint256"
        },
        {
          "internalType": "uint256",
          "name": "_q",
          "type": "uint256"
        },
        {
          "internalType": "uint256",
          "name": "_secret",
          "type": "uint256"
        },
        {
          "internalType": "uint256",
          "name": "_numInstances",
          "type": "uint256"
        }
      ],
      "name": "createBInstance",
      "outputs": [],
      "stateMutability": "nonpayable",
      "type": "function"
    },
    {
      "inputs": [
        {
          "internalType": "uint256",
          "name": "_orcid",
          "type": "uint256"
        }
      ],
      "name": "getAllInstances",
      "outputs": [
        {
          "components": [
            {
              "internalType": "uint256",
              "name": "id",
              "type": "uint256"
            },
            {
              "internalType": "string",
              "name": "chain",
              "type": "string"
            },
            {
              "internalType": "uint256",
              "name": "size",
              "type": "uint256"
            },
            {
              "internalType": "uint256",
              "name": "dateCreated",
              "type": "uint256"
            },
            {
              "internalType": "string",
              "name": "solution",
              "type": "string"
            },
            {
              "internalType": "bool",
              "name": "solved",
              "type": "bool"
            },
            {
              "internalType": "uint256",
              "name": "dateSolution",
              "type": "uint256"
            }
          ],
          "internalType": "struct Generator.Instance[]",
          "name": "",
          "type": "tuple[]"
        }
      ],
      "stateMutability": "view",
      "type": "function"
    },
    {
      "inputs": [
        {
          "internalType": "uint256",
          "name": "_secret",
          "type": "uint256"
        }
      ],
      "name": "getDateNumber",
      "outputs": [
        {
          "internalType": "uint256[]",
          "name": "",
          "type": "uint256[]"
        }
      ],
      "stateMutability": "view",
      "type": "function"
    },
    {
      "inputs": [
        {
          "internalType": "uint256",
          "name": "_id",
          "type": "uint256"
        }
      ],
      "name": "getHash",
      "outputs": [
        {
          "internalType": "string",
          "name": "",
          "type": "string"
        },
        {
          "internalType": "string",
          "name": "",
          "type": "string"
        },
        {
          "internalType": "string",
          "name": "",
          "type": "string"
        }
      ],
      "stateMutability": "view",
      "type": "function"
    },
    {
      "inputs": [
        {
          "internalType": "uint256",
          "name": "_id",
          "type": "uint256"
        }
      ],
      "name": "getInstance",
      "outputs": [
        {
          "internalType": "uint256",
          "name": "",
          "type": "uint256"
        },
        {
          "internalType": "string",
          "name": "",
          "type": "string"
        },
        {
          "internalType": "uint256",
          "name": "",
          "type": "uint256"
        },
        {
          "internalType": "uint256",
          "name": "",
          "type": "uint256"
        },
        {
          "internalType": "string",
          "name": "",
          "type": "string"
        },
        {
          "internalType": "bool",
          "name": "",
          "type": "bool"
        },
        {
          "internalType": "uint256",
          "name": "",
          "type": "uint256"
        }
      ],
      "stateMutability": "view",
      "type": "function"
    },
    {
      "inputs": [
        {
          "internalType": "uint256",
          "name": "_secret",
          "type": "uint256"
        }
      ],
      "name": "getRandomNumber",
      "outputs": [
        {
          "internalType": "bytes32",
          "name": "requestId",
          "type": "bytes32"
        }
      ],
      "stateMutability": "nonpayable",
      "type": "function"
    },
    {
      "inputs": [],
      "name": "getRemainingLINK",
      "outputs": [
        {
          "internalType": "uint256",
          "name": "",
          "type": "uint256"
        }
      ],
      "stateMutability": "view",
      "type": "function"
    },
    {
      "inputs": [],
      "name": "randomResult",
      "outputs": [
        {
          "internalType": "uint256",
          "name": "",
          "type": "uint256"
        }
      ],
      "stateMutability": "view",
      "type": "function"
    },
    {
      "inputs": [
        {
          "internalType": "bytes32",
          "name": "requestId",
          "type": "bytes32"
        },
        {
          "internalType": "uint256",
          "name": "randomness",
          "type": "uint256"
        }
      ],
      "name": "rawFulfillRandomness",
      "outputs": [],
      "stateMutability": "nonpayable",
      "type": "function"
    },
    {
      "inputs": [
        {
          "internalType": "uint256",
          "name": "_secret",
          "type": "uint256"
        },
        {
          "internalType": "string",
          "name": "_name",
          "type": "string"
        },
        {
          "internalType": "string",
          "name": "_email",
          "type": "string"
        },
        {
          "internalType": "uint256",
          "name": "_orcid",
          "type": "uint256"
        }
      ],
      "name": "setResearcher",
      "outputs": [],
      "stateMutability": "nonpayable",
      "type": "function"
    },
    {
      "inputs": [
        {
          "internalType": "uint256",
          "name": "_secret",
          "type": "uint256"
        },
        {
          "internalType": "uint256",
          "name": "_id",
          "type": "uint256"
        },
        {
          "internalType": "string",
          "name": "_solution",
          "type": "string"
        },
        {
          "internalType": "string",
          "name": "_algorithm_hash",
          "type": "string"
        },
        {
          "internalType": "string",
          "name": "_hash_method",
          "type": "string"
        }
      ],
      "name": "solveInstance",
      "outputs": [
        {
          "internalType": "bool",
          "name": "",
          "type": "bool"
        }
      ],
      "stateMutability": "nonpayable",
      "type": "function"
    }
  ],
  "bytecode": "0x60c060405234801561001057600080fd5b5073dd3782915140c8f3b190b5d67eac6dc5760c46e973a36085f69e2889c224210f603d836748e7dc00888173ffffffffffffffffffffffffffffffffffffffff1660a08173ffffffffffffffffffffffffffffffffffffffff1660601b815250508073ffffffffffffffffffffffffffffffffffffffff1660808173ffffffffffffffffffffffffffffffffffffffff1660601b8152505050507f6c3699283bda56ad74f6b855546325b68d482e983852a7a82979cc4807b641f460001b60058190555067016345785d8a0000600681905550600060088190555060006009819055506003600a81905550610834600b8190555060805160601c60a05160601c612d6c610145600039600081816110180152611ad6015260008181610f6a0152818161127e0152611a9a0152612d6c6000f3fe608060405234801561001057600080fd5b50600436106100cf5760003560e01c80638ed0fbe71161008c5780639878ca2c116100665780639878ca2c14610226578063b37217a414610256578063db7bbdb314610286578063ebd348de146102a2576100cf565b80638ed0fbe7146101d05780638f006527146101ec57806394985ddd1461020a576100cf565b8063070a6e95146100d45780630eea10b21461010457806342619f66146101345780634dde53ab146101525780636b2fafa9146101825780637e8b7e3e146101b4575b600080fd5b6100ee60048036038101906100e99190611eb4565b6102d8565b6040516100fb91906125ec565b60405180910390f35b61011e60048036038101906101199190611eb4565b610346565b60405161012b919061260e565b60405180910390f35b61013c610373565b604051610149919061275e565b60405180910390f35b61016c60048036038101906101679190611eb4565b610379565b60405161017991906125ca565b60405180910390f35b61019c60048036038101906101979190611eb4565b610690565b6040516101ab939291906126b2565b60405180910390f35b6101ce60048036038101906101c99190612058565b610888565b005b6101ea60048036038101906101e59190612058565b610c55565b005b6101f4610f66565b604051610201919061275e565b60405180910390f35b610224600480360381019061021f9190611e78565b611016565b005b610240600480360381019061023b9190611f99565b6110b2565b60405161024d919061260e565b60405180910390f35b610270600480360381019061026b9190611eb4565b611277565b60405161027d9190612629565b60405180910390f35b6102a0600480360381019061029b9190611f06565b6113b8565b005b6102bc60048036038101906102b79190611eb4565b611528565b6040516102cf9796959493929190612779565b60405180910390f35b60606001600083815260200190815260200160002060040180548060200260200160405190810160405280929190818152602001828054801561033a57602002820191906000526020600020905b815481526020019060010190808311610326575b50505050509050919050565b60006001600083815260200190815260200160002060020160009054906101000a900460ff169050919050565b60075481565b60606000600260008481526020019081526020016000206000015490506000600160008381526020019081526020016000206003018054905067ffffffffffffffff8111156103f1577f4e487b7100000000000000000000000000000000000000000000000000000000600052604160045260246000fd5b60405190808252806020026020018201604052801561042a57816020015b610417611c64565b81526020019060019003908161040f5790505b50905060005b600160008481526020019081526020016000206003018054905081101561068557600360006001600086815260200190815260200160002060030183815481106104a3577f4e487b7100000000000000000000000000000000000000000000000000000000600052603260045260246000fd5b906000526020600020015481526020019081526020016000206040518060e0016040529081600082015481526020016001820180546104e190612b33565b80601f016020809104026020016040519081016040528092919081815260200182805461050d90612b33565b801561055a5780601f1061052f5761010080835404028352916020019161055a565b820191906000526020600020905b81548152906001019060200180831161053d57829003601f168201915b50505050508152602001600282015481526020016003820154815260200160048201805461058790612b33565b80601f01602080910402602001604051908101604052809291908181526020018280546105b390612b33565b80156106005780601f106105d557610100808354040283529160200191610600565b820191906000526020600020905b8154815290600101906020018083116105e357829003601f168201915b505050505081526020016005820160009054906101000a900460ff16151515158152602001600682015481525050828281518110610667577f4e487b7100000000000000000000000000000000000000000000000000000000600052603260045260246000fd5b6020026020010181905250808061067d90612b65565b915050610430565b508092505050919050565b60608060606004600085815260200190815260200160002060000160046000868152602001908152602001600020600101600460008781526020019081526020016000206002018280546106e390612b33565b80601f016020809104026020016040519081016040528092919081815260200182805461070f90612b33565b801561075c5780601f106107315761010080835404028352916020019161075c565b820191906000526020600020905b81548152906001019060200180831161073f57829003601f168201915b5050505050925081805461076f90612b33565b80601f016020809104026020016040519081016040528092919081815260200182805461079b90612b33565b80156107e85780601f106107bd576101008083540402835291602001916107e8565b820191906000526020600020905b8154815290600101906020018083116107cb57829003601f168201915b505050505091508080546107fb90612b33565b80601f016020809104026020016040519081016040528092919081815260200182805461082790612b33565b80156108745780601f1061084957610100808354040283529160200191610874565b820191906000526020600020905b81548152906001019060200180831161085757829003601f168201915b505050505090509250925092509193909250565b6000610892611711565b90506000806064905060005b84811015610c4b5760006040518060200160405280600081525090506000600190506000805b6001600a546108d39190612a5e565b811015610952578b888881518110610914577f4e487b7100000000000000000000000000000000000000000000000000000000600052603260045260246000fd5b6020026020010151101561093157828061092d90612b65565b9350505b868061093c90612b65565b975050808061094a90612b65565b9150506108c4565b5060005b600a5481101561098f5761097a8461097561097086611829565b61188a565b611a5f565b9350808061098790612b65565b915050610956565b50808061099b90612b65565b9150505b898787815181106109d9577f4e487b7100000000000000000000000000000000000000000000000000000000600052603260045260246000fd5b60200260200101511080156109ed57508481105b15610ad65785806109fd90612b65565b96505060005b600a54811015610a85578b888881518110610a47577f4e487b7100000000000000000000000000000000000000000000000000000000600052603260045260246000fd5b60200260200101511015610a64578280610a6090612b65565b9350505b8680610a6f90612b65565b9750508080610a7d90612b65565b915050610a03565b5060005b600a54811015610ac257610aad84610aa8610aa386611829565b61188a565b611a5f565b93508080610aba90612b65565b915050610a89565b508080610ace90612b65565b91505061099f565b6040518060e0016040528060095481526020018481526020018281526020014281526020016040518060400160405280600a81526020017f556e7265736f6c7665640000000000000000000000000000000000000000000081525081526020016000151581526020016000815250600360006009548152602001908152602001600020600082015181600001556020820151816001019080519060200190610b7f929190611ca3565b5060408201518160020155606082015181600301556080820151816004019080519060200190610bb0929190611ca3565b5060a08201518160050160006101000a81548160ff02191690831515021790555060c08201518160060155905050600160008a8152602001908152602001600020600301600954908060018154018082558091505060019003906000526020600020016000909190919091505560096000815480929190610c3090612b65565b91905055505050508080610c4390612b65565b91505061089e565b5050505050505050565b6000610c5f611711565b90506000806064905060005b84811015610f5c57600060405180602001604052806000815250905060006001905060005b89878781518110610cca577f4e487b7100000000000000000000000000000000000000000000000000000000600052603260045260246000fd5b6020026020010151108015610cde57508481105b15610d04578080610cee90612b65565b9150508580610cfc90612b65565b965050610c90565b60005b6001826003610d169190612a04565b610d209190612a5e565b811015610d9f578b888881518110610d61577f4e487b7100000000000000000000000000000000000000000000000000000000600052603260045260246000fd5b60200260200101511015610d7e578280610d7a90612b65565b9350505b8680610d8990612b65565b9750508080610d9790612b65565b915050610d07565b5060005b816003610db09190612a04565b811015610de657610dd184610dcc610dc786611829565b61188a565b611a5f565b93508080610dde90612b65565b915050610da3565b506040518060e0016040528060095481526020018481526020018281526020014281526020016040518060400160405280600a81526020017f556e7265736f6c7665640000000000000000000000000000000000000000000081525081526020016000151581526020016000815250600360006009548152602001908152602001600020600082015181600001556020820151816001019080519060200190610e90929190611ca3565b5060408201518160020155606082015181600301556080820151816004019080519060200190610ec1929190611ca3565b5060a08201518160050160006101000a81548160ff02191690831515021790555060c08201518160060155905050600160008a8152602001908152602001600020600301600954908060018154018082558091505060019003906000526020600020016000909190919091505560096000815480929190610f4190612b65565b91905055505050508080610f5490612b65565b915050610c6b565b5050505050505050565b60007f000000000000000000000000000000000000000000000000000000000000000073ffffffffffffffffffffffffffffffffffffffff166370a08231306040518263ffffffff1660e01b8152600401610fc19190612571565b60206040518083038186803b158015610fd957600080fd5b505afa158015610fed573d6000803e3d6000fd5b505050506040513d601f19601f820116820180604052508101906110119190611edd565b905090565b7f000000000000000000000000000000000000000000000000000000000000000073ffffffffffffffffffffffffffffffffffffffff163373ffffffffffffffffffffffffffffffffffffffff16146110a4576040517f08c379a000000000000000000000000000000000000000000000000000000000815260040161109b9061271e565b60405180910390fd5b6110ae8282611a8b565b5050565b6000806000905060005b600015158215151480156110e85750600160008981526020019081526020016000206003018054905081105b156111655786600160008a8152602001908152602001600020600301828154811061113c577f4e487b7100000000000000000000000000000000000000000000000000000000600052603260045260246000fd5b9060005260206000200154141561115257600191505b808061115d90612b65565b9150506110bc565b600115158215151415611269578560036000898152602001908152602001600020600401908051906020019061119c929190611ca3565b5060016003600089815260200190815260200160002060050160006101000a81548160ff02191690831515021790555042600360008981526020019081526020016000206006018190555085600460008981526020019081526020016000206000019080519060200190611211929190611ca3565b508460046000898152602001908152602001600020600101908051906020019061123c929190611ca3565b5083600460008981526020019081526020016000206002019080519060200190611267929190611ca3565b505b819250505095945050505050565b60006006547f000000000000000000000000000000000000000000000000000000000000000073ffffffffffffffffffffffffffffffffffffffff166370a08231306040518263ffffffff1660e01b81526004016112d59190612571565b60206040518083038186803b1580156112ed57600080fd5b505afa158015611301573d6000803e3d6000fd5b505050506040513d601f19601f820116820180604052508101906113259190611edd565b1015611366576040517f08c379a000000000000000000000000000000000000000000000000000000000815260040161135d906126fe565b60405180910390fd5b600160008381526020019081526020016000206004014290806001815401808255809150506001900390600052602060002001600090919091909150556113b1600554600654611a96565b9050919050565b6001600085815260200190815260200160002060020160009054906101000a900460ff161561141c576040517f08c379a00000000000000000000000000000000000000000000000000000000081526004016114139061273e565b60405180910390fd5b60606040518060a0016040528085815260200184815260200160011515815260200182815260200182815250600160008781526020019081526020016000206000820151816000019080519060200190611477929190611ca3565b506020820151816001019080519060200190611494929190611ca3565b5060408201518160020160006101000a81548160ff02191690831515021790555060608201518160030190805190602001906114d1929190611d29565b5060808201518160040190805190602001906114ee929190611d29565b5090505060405180602001604052808681525060026000848152602001908152602001600020600082015181600001559050505050505050565b6000606060008060606000806003600089815260200190815260200160002060000154600360008a8152602001908152602001600020600101600360008b815260200190815260200160002060020154600360008c815260200190815260200160002060030154600360008d8152602001908152602001600020600401600360008e815260200190815260200160002060050160009054906101000a900460ff16600360008f8152602001908152602001600020600601548580546115ec90612b33565b80601f016020809104026020016040519081016040528092919081815260200182805461161890612b33565b80156116655780601f1061163a57610100808354040283529160200191611665565b820191906000526020600020905b81548152906001019060200180831161164857829003601f168201915b5050505050955082805461167890612b33565b80601f01602080910402602001604051908101604052809291908181526020018280546116a490612b33565b80156116f15780601f106116c6576101008083540402835291602001916116f1565b820191906000526020600020905b8154815290600101906020018083116116d457829003601f168201915b505050505092509650965096509650965096509650919395979092949650565b6060600b5467ffffffffffffffff811115611755577f4e487b7100000000000000000000000000000000000000000000000000000000600052604160045260246000fd5b6040519080825280602002602001820160405280156117835781602001602082028036833780820191505090505b50905060005b600b54811015611825576064600754826040516020016117aa9291906127f6565b6040516020818303038152906040528051906020012060001c6117cd9190612be6565b828281518110611806577f4e487b7100000000000000000000000000000000000000000000000000000000600052603260045260246000fd5b602002602001018181525050808061181d90612b65565b915050611789565b5090565b60008082423360085460405160200161184493929190612534565b6040516020818303038152906040528051906020012060001c6118679190612be6565b90506008600081548092919061187c90612b65565b919050555080915050919050565b606060008214156118d2576040518060400160405280600181526020017f30000000000000000000000000000000000000000000000000000000000000008152509050611a5a565b600082905060005b600082146119045780806118ed90612b65565b915050600a826118fd91906129d3565b91506118da565b60008167ffffffffffffffff811115611946577f4e487b7100000000000000000000000000000000000000000000000000000000600052604160045260246000fd5b6040519080825280601f01601f1916602001820160405280156119785781602001600182028036833780820191505090505b50905060008290505b60008614611a52576001816119969190612a5e565b90506000600a80886119a891906129d3565b6119b29190612a04565b876119bd9190612a5e565b60306119c9919061299c565b905060008160f81b905080848481518110611a0d577f4e487b7100000000000000000000000000000000000000000000000000000000600052603260045260246000fd5b60200101907effffffffffffffffffffffffffffffffffffffffffffffffffffffffffffff1916908160001a905350600a88611a4991906129d3565b97505050611981565b819450505050505b919050565b60608282604051602001611a74929190612510565b604051602081830303815290604052905092915050565b806007819055505050565b60007f000000000000000000000000000000000000000000000000000000000000000073ffffffffffffffffffffffffffffffffffffffff16634000aea07f000000000000000000000000000000000000000000000000000000000000000084866000604051602001611b0a929190612644565b6040516020818303038152906040526040518463ffffffff1660e01b8152600401611b379392919061258c565b602060405180830381600087803b158015611b5157600080fd5b505af1158015611b65573d6000803e3d6000fd5b505050506040513d601f19601f82011682018060405250810190611b899190611e4f565b506000611bab8460003060008089815260200190815260200160002054611bf5565b9050600160008086815260200190815260200160002054611bcc9190612946565b60008086815260200190815260200160002081905550611bec8482611c31565b91505092915050565b600084848484604051602001611c0e949392919061266d565b6040516020818303038152906040528051906020012060001c9050949350505050565b60008282604051602001611c469291906124e4565b60405160208183030381529060405280519060200120905092915050565b6040518060e001604052806000815260200160608152602001600081526020016000815260200160608152602001600015158152602001600081525090565b828054611caf90612b33565b90600052602060002090601f016020900481019282611cd15760008555611d18565b82601f10611cea57805160ff1916838001178555611d18565b82800160010185558215611d18579182015b82811115611d17578251825591602001919060010190611cfc565b5b509050611d259190611d76565b5090565b828054828255906000526020600020908101928215611d65579160200282015b82811115611d64578251825591602001919060010190611d49565b5b509050611d729190611d76565b5090565b5b80821115611d8f576000816000905550600101611d77565b5090565b6000611da6611da184612850565b61281f565b905082815260208101848484011115611dbe57600080fd5b611dc9848285612af1565b509392505050565b600081519050611de081612cf1565b92915050565b600081359050611df581612d08565b92915050565b600082601f830112611e0c57600080fd5b8135611e1c848260208601611d93565b91505092915050565b600081359050611e3481612d1f565b92915050565b600081519050611e4981612d1f565b92915050565b600060208284031215611e6157600080fd5b6000611e6f84828501611dd1565b91505092915050565b60008060408385031215611e8b57600080fd5b6000611e9985828601611de6565b9250506020611eaa85828601611e25565b9150509250929050565b600060208284031215611ec657600080fd5b6000611ed484828501611e25565b91505092915050565b600060208284031215611eef57600080fd5b6000611efd84828501611e3a565b91505092915050565b60008060008060808587031215611f1c57600080fd5b6000611f2a87828801611e25565b945050602085013567ffffffffffffffff811115611f4757600080fd5b611f5387828801611dfb565b935050604085013567ffffffffffffffff811115611f7057600080fd5b611f7c87828801611dfb565b9250506060611f8d87828801611e25565b91505092959194509250565b600080600080600060a08688031215611fb157600080fd5b6000611fbf88828901611e25565b9550506020611fd088828901611e25565b945050604086013567ffffffffffffffff811115611fed57600080fd5b611ff988828901611dfb565b935050606086013567ffffffffffffffff81111561201657600080fd5b61202288828901611dfb565b925050608086013567ffffffffffffffff81111561203f57600080fd5b61204b88828901611dfb565b9150509295509295909350565b6000806000806080858703121561206e57600080fd5b600061207c87828801611e25565b945050602061208d87828801611e25565b935050604061209e87828801611e25565b92505060606120af87828801611e25565b91505092959194509250565b60006120c7838361240c565b905092915050565b60006120db83836124af565b60208301905092915050565b6120f081612a92565b82525050565b61210761210282612a92565b612bae565b82525050565b6000612118826128a0565b61212281856128e6565b93508360208202850161213485612880565b8060005b85811015612170578484038952815161215185826120bb565b945061215c836128cc565b925060208a01995050600181019050612138565b50829750879550505050505092915050565b600061218d826128ab565b61219781856128f7565b93506121a283612890565b8060005b838110156121d35781516121ba88826120cf565b97506121c5836128d9565b9250506001810190506121a6565b5085935050505092915050565b6121e981612aa4565b82525050565b6121f881612aa4565b82525050565b61220781612ab0565b82525050565b61221e61221982612ab0565b612bc0565b82525050565b600061222f826128b6565b6122398185612908565b9350612249818560208601612b00565b61225281612cd3565b840191505092915050565b6000612268826128c1565b6122728185612919565b9350612282818560208601612b00565b61228b81612cd3565b840191505092915050565b60006122a1826128c1565b6122ab818561292a565b93506122bb818560208601612b00565b6122c481612cd3565b840191505092915050565b60006122da826128c1565b6122e4818561293b565b93506122f4818560208601612b00565b80840191505092915050565b600061230d602b8361292a565b91507f4e6f7420656e6f756768204c494e4b202d2066696c6c20636f6e74726163742060008301527f77697468206661756365740000000000000000000000000000000000000000006020830152604082019050919050565b6000612373601f8361292a565b91507f4f6e6c7920565246436f6f7264696e61746f722063616e2066756c66696c6c006000830152602082019050919050565b60006123b360218361292a565b91507f54686973204f5243494420697320616c7265616479207265676973746572656460008301527f2e000000000000000000000000000000000000000000000000000000000000006020830152604082019050919050565b600060e08301600083015161242460008601826124af565b506020830151848203602086015261243c828261225d565b915050604083015161245160408601826124af565b50606083015161246460608601826124af565b506080830151848203608086015261247c828261225d565b91505060a083015161249160a08601826121e0565b5060c08301516124a460c08601826124af565b508091505092915050565b6124b881612ada565b82525050565b6124c781612ada565b82525050565b6124de6124d982612ada565b612bdc565b82525050565b60006124f0828561220d565b60208201915061250082846124cd565b6020820191508190509392505050565b600061251c82856122cf565b915061252882846122cf565b91508190509392505050565b600061254082866124cd565b60208201915061255082856120f6565b60148201915061256082846124cd565b602082019150819050949350505050565b600060208201905061258660008301846120e7565b92915050565b60006060820190506125a160008301866120e7565b6125ae60208301856124be565b81810360408301526125c08184612224565b9050949350505050565b600060208201905081810360008301526125e4818461210d565b905092915050565b600060208201905081810360008301526126068184612182565b905092915050565b600060208201905061262360008301846121ef565b92915050565b600060208201905061263e60008301846121fe565b92915050565b600060408201905061265960008301856121fe565b61266660208301846124be565b9392505050565b600060808201905061268260008301876121fe565b61268f60208301866124be565b61269c60408301856120e7565b6126a960608301846124be565b95945050505050565b600060608201905081810360008301526126cc8186612296565b905081810360208301526126e08185612296565b905081810360408301526126f48184612296565b9050949350505050565b6000602082019050818103600083015261271781612300565b9050919050565b6000602082019050818103600083015261273781612366565b9050919050565b60006020820190508181036000830152612757816123a6565b9050919050565b600060208201905061277360008301846124be565b92915050565b600060e08201905061278e600083018a6124be565b81810360208301526127a08189612296565b90506127af60408301886124be565b6127bc60608301876124be565b81810360808301526127ce8186612296565b90506127dd60a08301856121ef565b6127ea60c08301846124be565b98975050505050505050565b600060408201905061280b60008301856124be565b61281860208301846124be565b9392505050565b6000604051905081810181811067ffffffffffffffff8211171561284657612845612ca4565b5b8060405250919050565b600067ffffffffffffffff82111561286b5761286a612ca4565b5b601f19601f8301169050602081019050919050565b6000819050602082019050919050565b6000819050602082019050919050565b600081519050919050565b600081519050919050565b600081519050919050565b600081519050919050565b6000602082019050919050565b6000602082019050919050565b600082825260208201905092915050565b600082825260208201905092915050565b600082825260208201905092915050565b600082825260208201905092915050565b600082825260208201905092915050565b600081905092915050565b600061295182612ada565b915061295c83612ada565b9250827fffffffffffffffffffffffffffffffffffffffffffffffffffffffffffffffff0382111561299157612990612c17565b5b828201905092915050565b60006129a782612ae4565b91506129b283612ae4565b92508260ff038211156129c8576129c7612c17565b5b828201905092915050565b60006129de82612ada565b91506129e983612ada565b9250826129f9576129f8612c46565b5b828204905092915050565b6000612a0f82612ada565b9150612a1a83612ada565b9250817fffffffffffffffffffffffffffffffffffffffffffffffffffffffffffffffff0483118215151615612a5357612a52612c17565b5b828202905092915050565b6000612a6982612ada565b9150612a7483612ada565b925082821015612a8757612a86612c17565b5b828203905092915050565b6000612a9d82612aba565b9050919050565b60008115159050919050565b6000819050919050565b600073ffffffffffffffffffffffffffffffffffffffff82169050919050565b6000819050919050565b600060ff82169050919050565b82818337600083830152505050565b60005b83811015612b1e578082015181840152602081019050612b03565b83811115612b2d576000848401525b50505050565b60006002820490506001821680612b4b57607f821691505b60208210811415612b5f57612b5e612c75565b5b50919050565b6000612b7082612ada565b91507fffffffffffffffffffffffffffffffffffffffffffffffffffffffffffffffff821415612ba357612ba2612c17565b5b600182019050919050565b6000612bb982612bca565b9050919050565b6000819050919050565b6000612bd582612ce4565b9050919050565b6000819050919050565b6000612bf182612ada565b9150612bfc83612ada565b925082612c0c57612c0b612c46565b5b828206905092915050565b7f4e487b7100000000000000000000000000000000000000000000000000000000600052601160045260246000fd5b7f4e487b7100000000000000000000000000000000000000000000000000000000600052601260045260246000fd5b7f4e487b7100000000000000000000000000000000000000000000000000000000600052602260045260246000fd5b7f4e487b7100000000000000000000000000000000000000000000000000000000600052604160045260246000fd5b6000601f19601f8301169050919050565b60008160601b9050919050565b612cfa81612aa4565b8114612d0557600080fd5b50565b612d1181612ab0565b8114612d1c57600080fd5b50565b612d2881612ada565b8114612d3357600080fd5b5056fea26469706673582212200b432dd0c24aaa5ed87f682e6c710c22fbcb24b4257185da538f38eff60ae45064736f6c63430008000033",
  "linkReferences": {},
  "deployedLinkReferences": {}
}