{
  "_format": "hh-sol-artifact-1",
  "contractName": "Generator",
  "sourceName": "contracts/Generator.sol",
  "abi": [
    {
      "inputs": [],
      "stateMutability": "nonpayable",
      "type": "constructor"
    },
    {
      "inputs": [
        {
          "internalType": "uint256",
          "name": "_secret",
          "type": "uint256"
        }
      ],
      "name": "checkPass",
      "outputs": [
        {
          "internalType": "bool",
          "name": "",
          "type": "bool"
        }
      ],
      "stateMutability": "view",
      "type": "function"
    },
    {
      "inputs": [
        {
          "internalType": "uint256",
          "name": "_agents",
          "type": "uint256"
        },
        {
          "internalType": "uint256",
          "name": "_resources",
          "type": "uint256"
        },
        {
          "internalType": "uint256",
          "name": "_secret",
          "type": "uint256"
        },
        {
          "internalType": "uint256",
          "name": "_numInstances",
          "type": "uint256"
        },
        {
          "internalType": "uint256",
          "name": "_mode",
          "type": "uint256"
        }
      ],
      "name": "createAInstance",
      "outputs": [],
      "stateMutability": "nonpayable",
      "type": "function"
    },
    {
      "inputs": [
        {
          "internalType": "uint256",
          "name": "_agents",
          "type": "uint256"
        },
        {
          "internalType": "uint256",
          "name": "_resources",
          "type": "uint256"
        },
        {
          "internalType": "uint256",
          "name": "_secret",
          "type": "uint256"
        },
        {
          "internalType": "uint256",
          "name": "_numInstances",
          "type": "uint256"
        },
        {
          "internalType": "uint256",
          "name": "_mode",
          "type": "uint256"
        }
      ],
      "name": "createBInstance",
      "outputs": [],
      "stateMutability": "nonpayable",
      "type": "function"
    },
    {
      "inputs": [
        {
          "internalType": "uint256",
          "name": "_agents",
          "type": "uint256"
        },
        {
          "internalType": "uint256",
          "name": "_resources",
          "type": "uint256"
        },
        {
          "internalType": "uint256",
          "name": "_secret",
          "type": "uint256"
        },
        {
          "internalType": "uint256",
          "name": "_numInstances",
          "type": "uint256"
        },
        {
          "internalType": "uint256",
          "name": "_mode",
          "type": "uint256"
        }
      ],
      "name": "createCInstance",
      "outputs": [],
      "stateMutability": "nonpayable",
      "type": "function"
    },
    {
      "inputs": [
        {
          "internalType": "uint256",
          "name": "_orcid",
          "type": "uint256"
        }
      ],
      "name": "getAllInstances",
      "outputs": [
        {
          "components": [
            {
              "internalType": "uint256",
              "name": "id",
              "type": "uint256"
            },
            {
              "internalType": "string",
              "name": "chain",
              "type": "string"
            },
            {
              "internalType": "uint256[]",
              "name": "setup",
              "type": "uint256[]"
            },
            {
              "internalType": "uint256",
              "name": "dateCreated",
              "type": "uint256"
            },
            {
              "internalType": "string",
              "name": "solution",
              "type": "string"
            },
            {
              "internalType": "bool",
              "name": "solved",
              "type": "bool"
            },
            {
              "internalType": "uint256",
              "name": "dateSolution",
              "type": "uint256"
            }
          ],
          "internalType": "struct Generator.Instance[]",
          "name": "",
          "type": "tuple[]"
        }
      ],
      "stateMutability": "view",
      "type": "function"
    },
    {
      "inputs": [
        {
          "internalType": "uint256",
          "name": "_secret",
          "type": "uint256"
        }
      ],
      "name": "getDateNumber",
      "outputs": [
        {
          "internalType": "uint256[]",
          "name": "",
          "type": "uint256[]"
        }
      ],
      "stateMutability": "view",
      "type": "function"
    },
    {
      "inputs": [
        {
          "internalType": "uint256",
          "name": "_id",
          "type": "uint256"
        }
      ],
      "name": "getHash",
      "outputs": [
        {
          "internalType": "string",
          "name": "",
          "type": "string"
        },
        {
          "internalType": "string",
          "name": "",
          "type": "string"
        },
        {
          "internalType": "string",
          "name": "",
          "type": "string"
        }
      ],
      "stateMutability": "view",
      "type": "function"
    },
    {
      "inputs": [
        {
          "internalType": "uint256",
          "name": "_id",
          "type": "uint256"
        }
      ],
      "name": "getInstance",
      "outputs": [
        {
          "internalType": "uint256",
          "name": "",
          "type": "uint256"
        },
        {
          "internalType": "string",
          "name": "",
          "type": "string"
        },
        {
          "internalType": "uint256[]",
          "name": "",
          "type": "uint256[]"
        },
        {
          "internalType": "uint256",
          "name": "",
          "type": "uint256"
        },
        {
          "internalType": "string",
          "name": "",
          "type": "string"
        },
        {
          "internalType": "bool",
          "name": "",
          "type": "bool"
        },
        {
          "internalType": "uint256",
          "name": "",
          "type": "uint256"
        }
      ],
      "stateMutability": "view",
      "type": "function"
    },
    {
      "inputs": [
        {
          "internalType": "uint256",
          "name": "_secret",
          "type": "uint256"
        }
      ],
      "name": "getRandomNumber",
      "outputs": [
        {
          "internalType": "bytes32",
          "name": "requestId",
          "type": "bytes32"
        }
      ],
      "stateMutability": "nonpayable",
      "type": "function"
    },
    {
      "inputs": [],
      "name": "getRemainingLINK",
      "outputs": [
        {
          "internalType": "uint256",
          "name": "",
          "type": "uint256"
        }
      ],
      "stateMutability": "view",
      "type": "function"
    },
    {
      "inputs": [],
      "name": "randomResult",
      "outputs": [
        {
          "internalType": "uint256",
          "name": "",
          "type": "uint256"
        }
      ],
      "stateMutability": "view",
      "type": "function"
    },
    {
      "inputs": [
        {
          "internalType": "bytes32",
          "name": "requestId",
          "type": "bytes32"
        },
        {
          "internalType": "uint256",
          "name": "randomness",
          "type": "uint256"
        }
      ],
      "name": "rawFulfillRandomness",
      "outputs": [],
      "stateMutability": "nonpayable",
      "type": "function"
    },
    {
      "inputs": [
        {
          "internalType": "uint256",
          "name": "_secret",
          "type": "uint256"
        },
        {
          "internalType": "string",
          "name": "_name",
          "type": "string"
        },
        {
          "internalType": "string",
          "name": "_email",
          "type": "string"
        },
        {
          "internalType": "uint256",
          "name": "_orcid",
          "type": "uint256"
        }
      ],
      "name": "setResearcher",
      "outputs": [],
      "stateMutability": "nonpayable",
      "type": "function"
    },
    {
      "inputs": [
        {
          "internalType": "uint256",
          "name": "_secret",
          "type": "uint256"
        },
        {
          "internalType": "uint256",
          "name": "_id",
          "type": "uint256"
        },
        {
          "internalType": "string",
          "name": "_solution",
          "type": "string"
        },
        {
          "internalType": "string",
          "name": "_algorithm_hash",
          "type": "string"
        },
        {
          "internalType": "string",
          "name": "_hash_method",
          "type": "string"
        }
      ],
      "name": "solveInstance",
      "outputs": [
        {
          "internalType": "bool",
          "name": "",
          "type": "bool"
        }
      ],
      "stateMutability": "nonpayable",
      "type": "function"
    }
  ],
  "bytecode": "0x60c060405234801561001057600080fd5b5073dd3782915140c8f3b190b5d67eac6dc5760c46e973a36085f69e2889c224210f603d836748e7dc00888173ffffffffffffffffffffffffffffffffffffffff1660a08173ffffffffffffffffffffffffffffffffffffffff1660601b815250508073ffffffffffffffffffffffffffffffffffffffff1660808173ffffffffffffffffffffffffffffffffffffffff1660601b8152505050507f6c3699283bda56ad74f6b855546325b68d482e983852a7a82979cc4807b641f460001b60068190555067016345785d8a000060078190555060006009819055506000600a81905550610834600b8190555060805160601c60a05160601c613cb361013d600039600081816117aa01526129b50152600081816116fc01528181611aa001526129790152613cb36000f3fe608060405234801561001057600080fd5b50600436106100ea5760003560e01c80638f0065271161008c578063b37217a411610066578063b37217a414610271578063db7bbdb3146102a1578063eb4419c1146102bd578063ebd348de146102d9576100ea565b80638f0065271461020757806394985ddd146102255780639878ca2c14610241576100ea565b80634dde53ab116100c85780634dde53ab1461016d5780635d1bcbb71461019d5780636094edc8146101b95780636b2fafa9146101d5576100ea565b8063070a6e95146100ef5780630eea10b21461011f57806342619f661461014f575b600080fd5b61010960048036038101906101049190612d93565b61030f565b6040516101169190613544565b60405180910390f35b61013960048036038101906101349190612d93565b61037d565b6040516101469190613566565b60405180910390f35b6101576103aa565b60405161016491906136b6565b60405180910390f35b61018760048036038101906101829190612d93565b6103b0565b6040516101949190613522565b60405180910390f35b6101b760048036038101906101b29190612f37565b6109f7565b005b6101d360048036038101906101ce9190612f37565b610f7e565b005b6101ef60048036038101906101ea9190612d93565b611500565b6040516101fe9392919061360a565b60405180910390f35b61020f6116f8565b60405161021c91906136b6565b60405180910390f35b61023f600480360381019061023a9190612d57565b6117a8565b005b61025b60048036038101906102569190612e78565b611844565b6040516102689190613566565b60405180910390f35b61028b60048036038101906102869190612d93565b611a99565b6040516102989190613581565b60405180910390f35b6102bb60048036038101906102b69190612de5565b611bda565b005b6102d760048036038101906102d29190612f37565b611d4a565b005b6102f360048036038101906102ee9190612d93565b612290565b60405161030697969594939291906136d1565b60405180910390f35b60606001600083815260200190815260200160002060040180548060200260200160405190810160405280929190818152602001828054801561037157602002820191906000526020600020905b81548152602001906001019080831161035d575b50505050509050919050565b60006001600083815260200190815260200160002060020160009054906101000a900460ff169050919050565b60085481565b60606000600260008481526020019081526020016000206000015490506000600160008381526020019081526020016000206003018054905067ffffffffffffffff811115610428577f4e487b7100000000000000000000000000000000000000000000000000000000600052604160045260246000fd5b60405190808252806020026020018201604052801561046157816020015b61044e612b43565b8152602001906001900390816104465790505b50905060005b60016000848152602001908152602001600020600301805490508110156109ec57600060026001600086815260200190815260200160002060030183815481106104da577f4e487b7100000000000000000000000000000000000000000000000000000000600052603260045260246000fd5b90600052602060002001546104ef9190613b2d565b14156107695760036000600160008681526020019081526020016000206003018381548110610547577f4e487b7100000000000000000000000000000000000000000000000000000000600052603260045260246000fd5b906000526020600020015481526020019081526020016000206040518060e00160405290816000820154815260200160018201805461058590613a7a565b80601f01602080910402602001604051908101604052809291908181526020018280546105b190613a7a565b80156105fe5780601f106105d3576101008083540402835291602001916105fe565b820191906000526020600020905b8154815290600101906020018083116105e157829003601f168201915b505050505081526020016002820180548060200260200160405190810160405280929190818152602001828054801561065657602002820191906000526020600020905b815481526020019060010190808311610642575b505050505081526020016003820154815260200160048201805461067990613a7a565b80601f01602080910402602001604051908101604052809291908181526020018280546106a590613a7a565b80156106f25780601f106106c7576101008083540402835291602001916106f2565b820191906000526020600020905b8154815290600101906020018083116106d557829003601f168201915b505050505081526020016005820160009054906101000a900460ff16151515158152602001600682015481525050828281518110610759577f4e487b7100000000000000000000000000000000000000000000000000000000600052603260045260246000fd5b60200260200101819052506109d9565b600460006001600086815260200190815260200160002060030183815481106107bb577f4e487b7100000000000000000000000000000000000000000000000000000000600052603260045260246000fd5b906000526020600020015481526020019081526020016000206040518060e0016040529081600082015481526020016001820180546107f990613a7a565b80601f016020809104026020016040519081016040528092919081815260200182805461082590613a7a565b80156108725780601f1061084757610100808354040283529160200191610872565b820191906000526020600020905b81548152906001019060200180831161085557829003601f168201915b50505050508152602001600282018054806020026020016040519081016040528092919081815260200182805480156108ca57602002820191906000526020600020905b8154815260200190600101908083116108b6575b50505050508152602001600382015481526020016004820180546108ed90613a7a565b80601f016020809104026020016040519081016040528092919081815260200182805461091990613a7a565b80156109665780601f1061093b57610100808354040283529160200191610966565b820191906000526020600020905b81548152906001019060200180831161094957829003601f168201915b505050505081526020016005820160009054906101000a900460ff161515151581526020016006820154815250508282815181106109cd577f4e487b7100000000000000000000000000000000000000000000000000000000600052603260045260246000fd5b60200260200101819052505b80806109e490613aac565b915050610467565b508092505050919050565b6000600367ffffffffffffffff811115610a3a577f4e487b7100000000000000000000000000000000000000000000000000000000600052604160045260246000fd5b604051908082528060200260200182016040528015610a685781602001602082028036833780820191505090505b5090506000861415610a8157610a7e600a612708565b95505b6000861415610a8f57600195505b6000851415610aa557610aa26028612708565b94505b6000851415610ab357600194505b8581600081518110610aee577f4e487b7100000000000000000000000000000000000000000000000000000000600052603260045260246000fd5b6020026020010181815250508481600181518110610b35577f4e487b7100000000000000000000000000000000000000000000000000000000600052603260045260246000fd5b6020026020010181815250508181600281518110610b7c577f4e487b7100000000000000000000000000000000000000000000000000000000600052603260045260246000fd5b60200260200101818152505060008587610b96919061394b565b905060005b84811015610f745760006040518060200160405280600081525090506000806103e8905060008a82610bcd919061391a565b905060005b86811015610c78578b841415610bec576103e89250600093505b610c0685610c01610bfc86612708565b612769565b61293e565b9450610c47856040518060400160405280600181526020017f200000000000000000000000000000000000000000000000000000000000000081525061293e565b94508183610c5591906139a5565b92508380610c6290613aac565b9450508080610c7090613aac565b915050610bd2565b506040518060e00160405280600a5481526020018581526020018881526020014281526020016040518060400160405280600a81526020017f556e7265736f6c766564000000000000000000000000000000000000000000008152508152602001600015158152602001600081525060036000600a548152602001908152602001600020600082015181600001556020820151816001019080519060200190610d22929190612b82565b506040820151816002019080519060200190610d3f929190612c08565b50606082015181600301556080820151816004019080519060200190610d66929190612b82565b5060a08201518160050160006101000a81548160ff02191690831515021790555060c08201518160060155905050600160008b8152602001908152602001600020600301600a549080600181540180825580915050600190039060005260206000200160009091909190915055600a6000815480929190610de690613aac565b91905055506040518060e00160405280600a5481526020018581526020018881526020014281526020016040518060400160405280600a81526020017f556e7265736f6c766564000000000000000000000000000000000000000000008152508152602001600015158152602001600081525060046000600a548152602001908152602001600020600082015181600001556020820151816001019080519060200190610e94929190612b82565b506040820151816002019080519060200190610eb1929190612c08565b50606082015181600301556080820151816004019080519060200190610ed8929190612b82565b5060a08201518160050160006101000a81548160ff02191690831515021790555060c08201518160060155905050600160008b8152602001908152602001600020600301600a549080600181540180825580915050600190039060005260206000200160009091909190915055600a6000815480929190610f5890613aac565b9190505550505050508080610f6c90613aac565b915050610b9b565b5050505050505050565b6000600367ffffffffffffffff811115610fc1577f4e487b7100000000000000000000000000000000000000000000000000000000600052604160045260246000fd5b604051908082528060200260200182016040528015610fef5781602001602082028036833780820191505090505b509050600086141561100857611005600a612708565b95505b600086141561101657600195505b600085141561102c576110296028612708565b94505b600085141561103a57600194505b8581600081518110611075577f4e487b7100000000000000000000000000000000000000000000000000000000600052603260045260246000fd5b60200260200101818152505084816001815181106110bc577f4e487b7100000000000000000000000000000000000000000000000000000000600052603260045260246000fd5b6020026020010181815250508181600281518110611103577f4e487b7100000000000000000000000000000000000000000000000000000000600052603260045260246000fd5b6020026020010181815250506000858761111d919061394b565b905060005b848110156114f6576000604051806020016040528060008152509050600080896103e861114f919061391a565b90506000805b868110156111fa578284611169919061388d565b93506111858561118061117b87612708565b612769565b61293e565b94506111c6856040518060400160405280600181526020017f200000000000000000000000000000000000000000000000000000000000000081525061293e565b945081806111d390613aac565b9250508b8214156111e75760009350600091505b80806111f290613aac565b915050611155565b506040518060e00160405280600a5481526020018581526020018881526020014281526020016040518060400160405280600a81526020017f556e7265736f6c766564000000000000000000000000000000000000000000008152508152602001600015158152602001600081525060036000600a5481526020019081526020016000206000820151816000015560208201518160010190805190602001906112a4929190612b82565b5060408201518160020190805190602001906112c1929190612c08565b506060820151816003015560808201518160040190805190602001906112e8929190612b82565b5060a08201518160050160006101000a81548160ff02191690831515021790555060c08201518160060155905050600160008b8152602001908152602001600020600301600a549080600181540180825580915050600190039060005260206000200160009091909190915055600a600081548092919061136890613aac565b91905055506040518060e00160405280600a5481526020018581526020018881526020014281526020016040518060400160405280600a81526020017f556e7265736f6c766564000000000000000000000000000000000000000000008152508152602001600015158152602001600081525060046000600a548152602001908152602001600020600082015181600001556020820151816001019080519060200190611416929190612b82565b506040820151816002019080519060200190611433929190612c08565b5060608201518160030155608082015181600401908051906020019061145a929190612b82565b5060a08201518160050160006101000a81548160ff02191690831515021790555060c08201518160060155905050600160008b8152602001908152602001600020600301600a549080600181540180825580915050600190039060005260206000200160009091909190915055600a60008154809291906114da90613aac565b91905055505050505080806114ee90613aac565b915050611122565b5050505050505050565b606080606060056000858152602001908152602001600020600001600560008681526020019081526020016000206001016005600087815260200190815260200160002060020182805461155390613a7a565b80601f016020809104026020016040519081016040528092919081815260200182805461157f90613a7a565b80156115cc5780601f106115a1576101008083540402835291602001916115cc565b820191906000526020600020905b8154815290600101906020018083116115af57829003601f168201915b505050505092508180546115df90613a7a565b80601f016020809104026020016040519081016040528092919081815260200182805461160b90613a7a565b80156116585780601f1061162d57610100808354040283529160200191611658565b820191906000526020600020905b81548152906001019060200180831161163b57829003601f168201915b5050505050915080805461166b90613a7a565b80601f016020809104026020016040519081016040528092919081815260200182805461169790613a7a565b80156116e45780601f106116b9576101008083540402835291602001916116e4565b820191906000526020600020905b8154815290600101906020018083116116c757829003601f168201915b505050505090509250925092509193909250565b60007f000000000000000000000000000000000000000000000000000000000000000073ffffffffffffffffffffffffffffffffffffffff166370a08231306040518263ffffffff1660e01b815260040161175391906134c9565b60206040518083038186803b15801561176b57600080fd5b505afa15801561177f573d6000803e3d6000fd5b505050506040513d601f19601f820116820180604052508101906117a39190612dbc565b905090565b7f000000000000000000000000000000000000000000000000000000000000000073ffffffffffffffffffffffffffffffffffffffff163373ffffffffffffffffffffffffffffffffffffffff1614611836576040517f08c379a000000000000000000000000000000000000000000000000000000000815260040161182d90613676565b60405180910390fd5b611840828261296a565b5050565b6000806000905060005b6000151582151514801561187a5750600160008981526020019081526020016000206003018054905081105b156118f75786600160008a815260200190815260200160002060030182815481106118ce577f4e487b7100000000000000000000000000000000000000000000000000000000600052603260045260246000fd5b906000526020600020015414156118e457600191505b80806118ef90613aac565b91505061184e565b600115158215151415611a8b5760006002886119139190613b2d565b14156119935785600360008981526020019081526020016000206004019080519060200190611943929190612b82565b5060016003600089815260200190815260200160002060050160006101000a81548160ff021916908315150217905550426003600089815260200190815260200160002060060181905550611a09565b856004600089815260200190815260200160002060040190805190602001906119bd929190612b82565b5060016004600089815260200190815260200160002060050160006101000a81548160ff0219169083151502179055504260046000898152602001908152602001600020600601819055505b85600560008981526020019081526020016000206000019080519060200190611a33929190612b82565b5084600560008981526020019081526020016000206001019080519060200190611a5e929190612b82565b5083600560008981526020019081526020016000206002019080519060200190611a89929190612b82565b505b819250505095945050505050565b60006007547f000000000000000000000000000000000000000000000000000000000000000073ffffffffffffffffffffffffffffffffffffffff166370a08231306040518263ffffffff1660e01b8152600401611af791906134c9565b60206040518083038186803b158015611b0f57600080fd5b505afa158015611b23573d6000803e3d6000fd5b505050506040513d601f19601f82011682018060405250810190611b479190612dbc565b1015611b88576040517f08c379a0000000000000000000000000000000000000000000000000000000008152600401611b7f90613656565b60405180910390fd5b60016000838152602001908152602001600020600401429080600181540180825580915050600190039060005260206000200160009091909190915055611bd3600654600754612975565b9050919050565b6001600085815260200190815260200160002060020160009054906101000a900460ff1615611c3e576040517f08c379a0000000000000000000000000000000000000000000000000000000008152600401611c3590613696565b60405180910390fd5b60606040518060a0016040528085815260200184815260200160011515815260200182815260200182815250600160008781526020019081526020016000206000820151816000019080519060200190611c99929190612b82565b506020820151816001019080519060200190611cb6929190612b82565b5060408201518160020160006101000a81548160ff0219169083151502179055506060820151816003019080519060200190611cf3929190612c08565b506080820151816004019080519060200190611d10929190612c08565b5090505060405180602001604052808681525060026000848152602001908152602001600020600082015181600001559050505050505050565b6000600367ffffffffffffffff811115611d8d577f4e487b7100000000000000000000000000000000000000000000000000000000600052604160045260246000fd5b604051908082528060200260200182016040528015611dbb5781602001602082028036833780820191505090505b5090506000861415611dd457611dd1600a612708565b95505b6000861415611de257600195505b6000851415611df857611df56028612708565b94505b6000851415611e0657600194505b8581600081518110611e41577f4e487b7100000000000000000000000000000000000000000000000000000000600052603260045260246000fd5b6020026020010181815250508481600181518110611e88577f4e487b7100000000000000000000000000000000000000000000000000000000600052603260045260246000fd5b6020026020010181815250508181600281518110611ecf577f4e487b7100000000000000000000000000000000000000000000000000000000600052603260045260246000fd5b60200260200101818152505060006103e8905060008688611ef0919061394b565b905060005b8581101561228557600060405180602001604052806000815250905060005b83811015611f8c57611f3682611f31611f2c88612708565b612769565b61293e565b9150611f77826040518060400160405280600181526020017f200000000000000000000000000000000000000000000000000000000000000081525061293e565b91508080611f8490613aac565b915050611f14565b506040518060e00160405280600a5481526020018281526020018681526020014281526020016040518060400160405280600a81526020017f556e7265736f6c766564000000000000000000000000000000000000000000008152508152602001600015158152602001600081525060036000600a548152602001908152602001600020600082015181600001556020820151816001019080519060200190612036929190612b82565b506040820151816002019080519060200190612053929190612c08565b5060608201518160030155608082015181600401908051906020019061207a929190612b82565b5060a08201518160050160006101000a81548160ff02191690831515021790555060c0820151816006015590505060016000898152602001908152602001600020600301600a549080600181540180825580915050600190039060005260206000200160009091909190915055600a60008154809291906120fa90613aac565b91905055506040518060e00160405280600a5481526020018281526020018681526020014281526020016040518060400160405280600a81526020017f556e7265736f6c766564000000000000000000000000000000000000000000008152508152602001600015158152602001600081525060046000600a5481526020019081526020016000206000820151816000015560208201518160010190805190602001906121a8929190612b82565b5060408201518160020190805190602001906121c5929190612c08565b506060820151816003015560808201518160040190805190602001906121ec929190612b82565b5060a08201518160050160006101000a81548160ff02191690831515021790555060c0820151816006015590505060016000898152602001908152602001600020600301600a549080600181540180825580915050600190039060005260206000200160009091909190915055600a600081548092919061226c90613aac565b919050555050808061227d90613aac565b915050611ef5565b505050505050505050565b60006060806000606060008060006002896122ab9190613b2d565b14156124d9576003600089815260200190815260200160002060000154600360008a8152602001908152602001600020600101600360008b8152602001908152602001600020600201600360008c815260200190815260200160002060030154600360008d8152602001908152602001600020600401600360008e815260200190815260200160002060050160009054906101000a900460ff16600360008f81526020019081526020016000206006015485805461236890613a7a565b80601f016020809104026020016040519081016040528092919081815260200182805461239490613a7a565b80156123e15780601f106123b6576101008083540402835291602001916123e1565b820191906000526020600020905b8154815290600101906020018083116123c457829003601f168201915b505050505095508480548060200260200160405190810160405280929190818152602001828054801561243357602002820191906000526020600020905b81548152602001906001019080831161241f575b5050505050945082805461244690613a7a565b80601f016020809104026020016040519081016040528092919081815260200182805461247290613a7a565b80156124bf5780601f10612494576101008083540402835291602001916124bf565b820191906000526020600020905b8154815290600101906020018083116124a257829003601f168201915b5050505050925096509650965096509650965096506126fd565b6004600089815260200190815260200160002060000154600460008a8152602001908152602001600020600101600460008b8152602001908152602001600020600201600460008c815260200190815260200160002060030154600460008d8152602001908152602001600020600401600460008e815260200190815260200160002060050160009054906101000a900460ff16600460008f81526020019081526020016000206006015485805461259090613a7a565b80601f01602080910402602001604051908101604052809291908181526020018280546125bc90613a7a565b80156126095780601f106125de57610100808354040283529160200191612609565b820191906000526020600020905b8154815290600101906020018083116125ec57829003601f168201915b505050505095508480548060200260200160405190810160405280929190818152602001828054801561265b57602002820191906000526020600020905b815481526020019060010190808311612647575b5050505050945082805461266e90613a7a565b80601f016020809104026020016040519081016040528092919081815260200182805461269a90613a7a565b80156126e75780601f106126bc576101008083540402835291602001916126e7565b820191906000526020600020905b8154815290600101906020018083116126ca57829003601f168201915b5050505050925096509650965096509650965096505b919395979092949650565b6000808242336009546040516020016127239392919061348c565b6040516020818303038152906040528051906020012060001c6127469190613b2d565b90506009600081548092919061275b90613aac565b919050555080915050919050565b606060008214156127b1576040518060400160405280600181526020017f30000000000000000000000000000000000000000000000000000000000000008152509050612939565b600082905060005b600082146127e35780806127cc90613aac565b915050600a826127dc919061391a565b91506127b9565b60008167ffffffffffffffff811115612825577f4e487b7100000000000000000000000000000000000000000000000000000000600052604160045260246000fd5b6040519080825280601f01601f1916602001820160405280156128575781602001600182028036833780820191505090505b50905060008290505b600086146129315760018161287591906139a5565b90506000600a8088612887919061391a565b612891919061394b565b8761289c91906139a5565b60306128a891906138e3565b905060008160f81b9050808484815181106128ec577f4e487b7100000000000000000000000000000000000000000000000000000000600052603260045260246000fd5b60200101907effffffffffffffffffffffffffffffffffffffffffffffffffffffffffffff1916908160001a905350600a88612928919061391a565b97505050612860565b819450505050505b919050565b60608282604051602001612953929190613468565b604051602081830303815290604052905092915050565b806008819055505050565b60007f000000000000000000000000000000000000000000000000000000000000000073ffffffffffffffffffffffffffffffffffffffff16634000aea07f0000000000000000000000000000000000000000000000000000000000000000848660006040516020016129e992919061359c565b6040516020818303038152906040526040518463ffffffff1660e01b8152600401612a16939291906134e4565b602060405180830381600087803b158015612a3057600080fd5b505af1158015612a44573d6000803e3d6000fd5b505050506040513d601f19601f82011682018060405250810190612a689190612d2e565b506000612a8a8460003060008089815260200190815260200160002054612ad4565b9050600160008086815260200190815260200160002054612aab919061388d565b60008086815260200190815260200160002081905550612acb8482612b10565b91505092915050565b600084848484604051602001612aed94939291906135c5565b6040516020818303038152906040528051906020012060001c9050949350505050565b60008282604051602001612b2592919061343c565b60405160208183030381529060405280519060200120905092915050565b6040518060e001604052806000815260200160608152602001606081526020016000815260200160608152602001600015158152602001600081525090565b828054612b8e90613a7a565b90600052602060002090601f016020900481019282612bb05760008555612bf7565b82601f10612bc957805160ff1916838001178555612bf7565b82800160010185558215612bf7579182015b82811115612bf6578251825591602001919060010190612bdb565b5b509050612c049190612c55565b5090565b828054828255906000526020600020908101928215612c44579160200282015b82811115612c43578251825591602001919060010190612c28565b5b509050612c519190612c55565b5090565b5b80821115612c6e576000816000905550600101612c56565b5090565b6000612c85612c8084613786565b613755565b905082815260208101848484011115612c9d57600080fd5b612ca8848285613a38565b509392505050565b600081519050612cbf81613c38565b92915050565b600081359050612cd481613c4f565b92915050565b600082601f830112612ceb57600080fd5b8135612cfb848260208601612c72565b91505092915050565b600081359050612d1381613c66565b92915050565b600081519050612d2881613c66565b92915050565b600060208284031215612d4057600080fd5b6000612d4e84828501612cb0565b91505092915050565b60008060408385031215612d6a57600080fd5b6000612d7885828601612cc5565b9250506020612d8985828601612d04565b9150509250929050565b600060208284031215612da557600080fd5b6000612db384828501612d04565b91505092915050565b600060208284031215612dce57600080fd5b6000612ddc84828501612d19565b91505092915050565b60008060008060808587031215612dfb57600080fd5b6000612e0987828801612d04565b945050602085013567ffffffffffffffff811115612e2657600080fd5b612e3287828801612cda565b935050604085013567ffffffffffffffff811115612e4f57600080fd5b612e5b87828801612cda565b9250506060612e6c87828801612d04565b91505092959194509250565b600080600080600060a08688031215612e9057600080fd5b6000612e9e88828901612d04565b9550506020612eaf88828901612d04565b945050604086013567ffffffffffffffff811115612ecc57600080fd5b612ed888828901612cda565b935050606086013567ffffffffffffffff811115612ef557600080fd5b612f0188828901612cda565b925050608086013567ffffffffffffffff811115612f1e57600080fd5b612f2a88828901612cda565b9150509295509295909350565b600080600080600060a08688031215612f4f57600080fd5b6000612f5d88828901612d04565b9550506020612f6e88828901612d04565b9450506040612f7f88828901612d04565b9350506060612f9088828901612d04565b9250506080612fa188828901612d04565b9150509295509295909350565b6000612fba838361335d565b905092915050565b6000612fce8383613407565b60208301905092915050565b612fe3816139d9565b82525050565b612ffa612ff5826139d9565b613af5565b82525050565b600061300b826137d6565b613015818561381c565b935083602082028501613027856137b6565b8060005b8581101561306357848403895281516130448582612fae565b945061304f83613802565b925060208a0199505060018101905061302b565b50829750879550505050505092915050565b6000613080826137e1565b61308a818561382d565b9350613095836137c6565b8060005b838110156130c65781516130ad8882612fc2565b97506130b88361380f565b925050600181019050613099565b5085935050505092915050565b60006130de826137e1565b6130e8818561383e565b93506130f3836137c6565b8060005b8381101561312457815161310b8882612fc2565b97506131168361380f565b9250506001810190506130f7565b5085935050505092915050565b61313a816139eb565b82525050565b613149816139eb565b82525050565b613158816139f7565b82525050565b61316f61316a826139f7565b613b07565b82525050565b6000613180826137ec565b61318a818561384f565b935061319a818560208601613a47565b6131a381613c1a565b840191505092915050565b60006131b9826137f7565b6131c38185613860565b93506131d3818560208601613a47565b6131dc81613c1a565b840191505092915050565b60006131f2826137f7565b6131fc8185613871565b935061320c818560208601613a47565b61321581613c1a565b840191505092915050565b600061322b826137f7565b6132358185613882565b9350613245818560208601613a47565b80840191505092915050565b600061325e602b83613871565b91507f4e6f7420656e6f756768204c494e4b202d2066696c6c20636f6e74726163742060008301527f77697468206661756365740000000000000000000000000000000000000000006020830152604082019050919050565b60006132c4601f83613871565b91507f4f6e6c7920565246436f6f7264696e61746f722063616e2066756c66696c6c006000830152602082019050919050565b6000613304602183613871565b91507f54686973204f5243494420697320616c7265616479207265676973746572656460008301527f2e000000000000000000000000000000000000000000000000000000000000006020830152604082019050919050565b600060e0830160008301516133756000860182613407565b506020830151848203602086015261338d82826131ae565b915050604083015184820360408601526133a78282613075565b91505060608301516133bc6060860182613407565b50608083015184820360808601526133d482826131ae565b91505060a08301516133e960a0860182613131565b5060c08301516133fc60c0860182613407565b508091505092915050565b61341081613a21565b82525050565b61341f81613a21565b82525050565b61343661343182613a21565b613b23565b82525050565b6000613448828561315e565b6020820191506134588284613425565b6020820191508190509392505050565b60006134748285613220565b91506134808284613220565b91508190509392505050565b60006134988286613425565b6020820191506134a88285612fe9565b6014820191506134b88284613425565b602082019150819050949350505050565b60006020820190506134de6000830184612fda565b92915050565b60006060820190506134f96000830186612fda565b6135066020830185613416565b81810360408301526135188184613175565b9050949350505050565b6000602082019050818103600083015261353c8184613000565b905092915050565b6000602082019050818103600083015261355e81846130d3565b905092915050565b600060208201905061357b6000830184613140565b92915050565b6000602082019050613596600083018461314f565b92915050565b60006040820190506135b1600083018561314f565b6135be6020830184613416565b9392505050565b60006080820190506135da600083018761314f565b6135e76020830186613416565b6135f46040830185612fda565b6136016060830184613416565b95945050505050565b6000606082019050818103600083015261362481866131e7565b9050818103602083015261363881856131e7565b9050818103604083015261364c81846131e7565b9050949350505050565b6000602082019050818103600083015261366f81613251565b9050919050565b6000602082019050818103600083015261368f816132b7565b9050919050565b600060208201905081810360008301526136af816132f7565b9050919050565b60006020820190506136cb6000830184613416565b92915050565b600060e0820190506136e6600083018a613416565b81810360208301526136f881896131e7565b9050818103604083015261370c81886130d3565b905061371b6060830187613416565b818103608083015261372d81866131e7565b905061373c60a0830185613140565b61374960c0830184613416565b98975050505050505050565b6000604051905081810181811067ffffffffffffffff8211171561377c5761377b613beb565b5b8060405250919050565b600067ffffffffffffffff8211156137a1576137a0613beb565b5b601f19601f8301169050602081019050919050565b6000819050602082019050919050565b6000819050602082019050919050565b600081519050919050565b600081519050919050565b600081519050919050565b600081519050919050565b6000602082019050919050565b6000602082019050919050565b600082825260208201905092915050565b600082825260208201905092915050565b600082825260208201905092915050565b600082825260208201905092915050565b600082825260208201905092915050565b600082825260208201905092915050565b600081905092915050565b600061389882613a21565b91506138a383613a21565b9250827fffffffffffffffffffffffffffffffffffffffffffffffffffffffffffffffff038211156138d8576138d7613b5e565b5b828201905092915050565b60006138ee82613a2b565b91506138f983613a2b565b92508260ff0382111561390f5761390e613b5e565b5b828201905092915050565b600061392582613a21565b915061393083613a21565b9250826139405761393f613b8d565b5b828204905092915050565b600061395682613a21565b915061396183613a21565b9250817fffffffffffffffffffffffffffffffffffffffffffffffffffffffffffffffff048311821515161561399a57613999613b5e565b5b828202905092915050565b60006139b082613a21565b91506139bb83613a21565b9250828210156139ce576139cd613b5e565b5b828203905092915050565b60006139e482613a01565b9050919050565b60008115159050919050565b6000819050919050565b600073ffffffffffffffffffffffffffffffffffffffff82169050919050565b6000819050919050565b600060ff82169050919050565b82818337600083830152505050565b60005b83811015613a65578082015181840152602081019050613a4a565b83811115613a74576000848401525b50505050565b60006002820490506001821680613a9257607f821691505b60208210811415613aa657613aa5613bbc565b5b50919050565b6000613ab782613a21565b91507fffffffffffffffffffffffffffffffffffffffffffffffffffffffffffffffff821415613aea57613ae9613b5e565b5b600182019050919050565b6000613b0082613b11565b9050919050565b6000819050919050565b6000613b1c82613c2b565b9050919050565b6000819050919050565b6000613b3882613a21565b9150613b4383613a21565b925082613b5357613b52613b8d565b5b828206905092915050565b7f4e487b7100000000000000000000000000000000000000000000000000000000600052601160045260246000fd5b7f4e487b7100000000000000000000000000000000000000000000000000000000600052601260045260246000fd5b7f4e487b7100000000000000000000000000000000000000000000000000000000600052602260045260246000fd5b7f4e487b7100000000000000000000000000000000000000000000000000000000600052604160045260246000fd5b6000601f19601f8301169050919050565b60008160601b9050919050565b613c41816139eb565b8114613c4c57600080fd5b50565b613c58816139f7565b8114613c6357600080fd5b50565b613c6f81613a21565b8114613c7a57600080fd5b5056fea264697066735822122033165c27b45b9d9fab459bb3f0c7fa520db2dcc86dc65a85df9a0ad51052e46764736f6c63430008000033",
  "linkReferences": {},
  "deployedLinkReferences": {}
}